{
	"Crowdfunding.sol": {
		"Crowdfunding": {
			"abi": [
				{
					"inputs": [
						{
							"internalType": "string",
							"name": "_name",
							"type": "string"
						},
						{
							"internalType": "string",
							"name": "_description",
							"type": "string"
						},
						{
							"internalType": "uint256",
							"name": "_goal",
							"type": "uint256"
						},
						{
							"internalType": "uint256",
							"name": "_durationInDays",
							"type": "uint256"
						}
					],
					"stateMutability": "nonpayable",
					"type": "constructor"
				},
				{
					"inputs": [
						{
							"internalType": "string",
							"name": "_name",
							"type": "string"
						},
						{
							"internalType": "uint256",
							"name": "_amount",
							"type": "uint256"
						}
					],
					"name": "addTier",
					"outputs": [],
					"stateMutability": "nonpayable",
					"type": "function"
				},
				{
					"inputs": [
						{
							"internalType": "address",
							"name": "",
							"type": "address"
						}
					],
					"name": "backers",
					"outputs": [
						{
							"internalType": "uint256",
							"name": "totalContribution",
							"type": "uint256"
						}
					],
					"stateMutability": "view",
					"type": "function"
				},
				{
					"inputs": [],
					"name": "deadline",
					"outputs": [
						{
							"internalType": "uint256",
							"name": "",
							"type": "uint256"
						}
					],
					"stateMutability": "view",
					"type": "function"
				},
				{
					"inputs": [],
					"name": "description",
					"outputs": [
						{
							"internalType": "string",
							"name": "",
							"type": "string"
						}
					],
					"stateMutability": "view",
					"type": "function"
				},
				{
					"inputs": [
						{
							"internalType": "uint256",
							"name": "_daysToAdd",
							"type": "uint256"
						}
					],
					"name": "extendDeadline",
					"outputs": [],
					"stateMutability": "nonpayable",
					"type": "function"
				},
				{
					"inputs": [
						{
							"internalType": "uint256",
							"name": "_tierIndex",
							"type": "uint256"
						}
					],
					"name": "fund",
					"outputs": [],
					"stateMutability": "payable",
					"type": "function"
				},
				{
					"inputs": [],
					"name": "getBalance",
					"outputs": [
						{
							"internalType": "uint256",
							"name": "",
							"type": "uint256"
						}
					],
					"stateMutability": "view",
					"type": "function"
				},
				{
					"inputs": [],
					"name": "getCampaignStatus",
					"outputs": [
						{
							"internalType": "enum Crowdfunding.CampaignState",
							"name": "",
							"type": "uint8"
						}
					],
					"stateMutability": "view",
					"type": "function"
				},
				{
					"inputs": [],
					"name": "getTiers",
					"outputs": [
						{
							"components": [
								{
									"internalType": "string",
									"name": "name",
									"type": "string"
								},
								{
									"internalType": "uint256",
									"name": "amount",
									"type": "uint256"
								},
								{
									"internalType": "uint256",
									"name": "backers",
									"type": "uint256"
								}
							],
							"internalType": "struct Crowdfunding.Tier[]",
							"name": "",
							"type": "tuple[]"
						}
					],
					"stateMutability": "view",
					"type": "function"
				},
				{
					"inputs": [],
					"name": "goal",
					"outputs": [
						{
							"internalType": "uint256",
							"name": "",
							"type": "uint256"
						}
					],
					"stateMutability": "view",
					"type": "function"
				},
				{
					"inputs": [
						{
							"internalType": "address",
							"name": "_backer",
							"type": "address"
						},
						{
							"internalType": "uint256",
							"name": "_tierIndex",
							"type": "uint256"
						}
					],
					"name": "hasFundedTier",
					"outputs": [
						{
							"internalType": "bool",
							"name": "",
							"type": "bool"
						}
					],
					"stateMutability": "view",
					"type": "function"
				},
				{
					"inputs": [],
					"name": "name",
					"outputs": [
						{
							"internalType": "string",
							"name": "",
							"type": "string"
						}
					],
					"stateMutability": "view",
					"type": "function"
				},
				{
					"inputs": [],
					"name": "owner",
					"outputs": [
						{
							"internalType": "address",
							"name": "",
							"type": "address"
						}
					],
					"stateMutability": "view",
					"type": "function"
				},
				{
					"inputs": [],
					"name": "paused",
					"outputs": [
						{
							"internalType": "bool",
							"name": "",
							"type": "bool"
						}
					],
					"stateMutability": "view",
					"type": "function"
				},
				{
					"inputs": [],
					"name": "refund",
					"outputs": [],
					"stateMutability": "nonpayable",
					"type": "function"
				},
				{
					"inputs": [
						{
							"internalType": "uint256",
							"name": "_index",
							"type": "uint256"
						}
					],
					"name": "removeTier",
					"outputs": [],
					"stateMutability": "nonpayable",
					"type": "function"
				},
				{
					"inputs": [],
					"name": "state",
					"outputs": [
						{
							"internalType": "enum Crowdfunding.CampaignState",
							"name": "",
							"type": "uint8"
						}
					],
					"stateMutability": "view",
					"type": "function"
				},
				{
					"inputs": [
						{
							"internalType": "uint256",
							"name": "",
							"type": "uint256"
						}
					],
					"name": "tiers",
					"outputs": [
						{
							"internalType": "string",
							"name": "name",
							"type": "string"
						},
						{
							"internalType": "uint256",
							"name": "amount",
							"type": "uint256"
						},
						{
							"internalType": "uint256",
							"name": "backers",
							"type": "uint256"
						}
					],
					"stateMutability": "view",
					"type": "function"
				},
				{
					"inputs": [],
					"name": "togglePause",
					"outputs": [],
					"stateMutability": "nonpayable",
					"type": "function"
				},
				{
					"inputs": [],
					"name": "withdraw",
					"outputs": [],
					"stateMutability": "nonpayable",
					"type": "function"
				}
			],
			"devdoc": {
				"kind": "dev",
				"methods": {},
				"version": 1
			},
			"evm": {
				"assembly": "    /* \"Crowdfunding.sol\":57:4136  contract Crowdfunding{... */\n  mstore(0x40, 0x80)\n    /* \"Crowdfunding.sol\":935:1250  constructor(string memory _name,string memory _description, uint256 _goal, uint256 _durationInDays){... */\n  callvalue\n  dup1\n  iszero\n  tag_1\n  jumpi\n  0x00\n  dup1\n  revert\ntag_1:\n  pop\n  mload(0x40)\n  sub(codesize, bytecodeSize)\n  dup1\n  bytecodeSize\n  dup4\n  codecopy\n  dup2\n  dup2\n  add\n  0x40\n  mstore\n  dup2\n  add\n  swap1\n  tag_2\n  swap2\n  swap1\n  tag_3\n  jump\t// in\ntag_2:\n    /* \"Crowdfunding.sol\":1051:1056  _name */\n  dup4\n    /* \"Crowdfunding.sol\":1044:1048  name */\n  0x00\n    /* \"Crowdfunding.sol\":1044:1056  name = _name */\n  swap1\n  dup2\n  tag_6\n  swap2\n  swap1\n  tag_7\n  jump\t// in\ntag_6:\n  pop\n    /* \"Crowdfunding.sol\":1080:1092  _description */\n  dup3\n    /* \"Crowdfunding.sol\":1066:1077  description */\n  0x01\n    /* \"Crowdfunding.sol\":1066:1092  description = _description */\n  swap1\n  dup2\n  tag_8\n  swap2\n  swap1\n  tag_7\n  jump\t// in\ntag_8:\n  pop\n    /* \"Crowdfunding.sol\":1109:1114  _goal */\n  dup2\n    /* \"Crowdfunding.sol\":1102:1106  goal */\n  0x02\n    /* \"Crowdfunding.sol\":1102:1114  goal = _goal */\n  dup2\n  swap1\n  sstore\n  pop\n    /* \"Crowdfunding.sol\":1170:1176  1 days */\n  0x015180\n    /* \"Crowdfunding.sol\":1154:1169  _durationInDays */\n  dup2\n    /* \"Crowdfunding.sol\":1154:1176  _durationInDays*1 days */\n  tag_9\n  swap2\n  swap1\n  tag_10\n  jump\t// in\ntag_9:\n    /* \"Crowdfunding.sol\":1135:1150  block.timestamp */\n  timestamp\n    /* \"Crowdfunding.sol\":1135:1177  block.timestamp + (_durationInDays*1 days) */\n  tag_11\n  swap2\n  swap1\n  tag_12\n  jump\t// in\ntag_11:\n    /* \"Crowdfunding.sol\":1124:1132  deadline */\n  0x03\n    /* \"Crowdfunding.sol\":1124:1177  deadline = block.timestamp + (_durationInDays*1 days) */\n  dup2\n  swap1\n  sstore\n  pop\n    /* \"Crowdfunding.sol\":1195:1205  msg.sender */\n  caller\n    /* \"Crowdfunding.sol\":1187:1192  owner */\n  0x04\n  0x00\n    /* \"Crowdfunding.sol\":1187:1205  owner = msg.sender */\n  0x0100\n  exp\n  dup2\n  sload\n  dup2\n  0xffffffffffffffffffffffffffffffffffffffff\n  mul\n  not\n  and\n  swap1\n  dup4\n  0xffffffffffffffffffffffffffffffffffffffff\n  and\n  mul\n  or\n  swap1\n  sstore\n  pop\n    /* \"Crowdfunding.sol\":1223:1243  CampaignState.Active */\n  0x00\n    /* \"Crowdfunding.sol\":1215:1220  state */\n  0x04\n  0x15\n    /* \"Crowdfunding.sol\":1215:1243  state = CampaignState.Active */\n  0x0100\n  exp\n  dup2\n  sload\n  dup2\n  0xff\n  mul\n  not\n  and\n  swap1\n  dup4\n  0x02\n  dup2\n  gt\n  iszero\n  tag_13\n  jumpi\n  tag_14\n  tag_15\n  jump\t// in\ntag_14:\ntag_13:\n  mul\n  or\n  swap1\n  sstore\n  pop\n    /* \"Crowdfunding.sol\":935:1250  constructor(string memory _name,string memory _description, uint256 _goal, uint256 _durationInDays){... */\n  pop\n  pop\n  pop\n  pop\n    /* \"Crowdfunding.sol\":57:4136  contract Crowdfunding{... */\n  jump(tag_16)\n    /* \"#utility.yul\":7:82   */\ntag_17:\n    /* \"#utility.yul\":40:46   */\n  0x00\n    /* \"#utility.yul\":73:75   */\n  0x40\n    /* \"#utility.yul\":67:76   */\n  mload\n    /* \"#utility.yul\":57:76   */\n  swap1\n  pop\n    /* \"#utility.yul\":7:82   */\n  swap1\n  jump\t// out\n    /* \"#utility.yul\":88:205   */\ntag_18:\n    /* \"#utility.yul\":197:198   */\n  0x00\n    /* \"#utility.yul\":194:195   */\n  dup1\n    /* \"#utility.yul\":187:199   */\n  revert\n    /* \"#utility.yul\":211:328   */\ntag_19:\n    /* \"#utility.yul\":320:321   */\n  0x00\n    /* \"#utility.yul\":317:318   */\n  dup1\n    /* \"#utility.yul\":310:322   */\n  revert\n    /* \"#utility.yul\":334:451   */\ntag_20:\n    /* \"#utility.yul\":443:444   */\n  0x00\n    /* \"#utility.yul\":440:441   */\n  dup1\n    /* \"#utility.yul\":433:445   */\n  revert\n    /* \"#utility.yul\":457:574   */\ntag_21:\n    /* \"#utility.yul\":566:567   */\n  0x00\n    /* \"#utility.yul\":563:564   */\n  dup1\n    /* \"#utility.yul\":556:568   */\n  revert\n    /* \"#utility.yul\":580:682   */\ntag_22:\n    /* \"#utility.yul\":621:627   */\n  0x00\n    /* \"#utility.yul\":672:674   */\n  0x1f\n    /* \"#utility.yul\":668:675   */\n  not\n    /* \"#utility.yul\":663:665   */\n  0x1f\n    /* \"#utility.yul\":656:661   */\n  dup4\n    /* \"#utility.yul\":652:666   */\n  add\n    /* \"#utility.yul\":648:676   */\n  and\n    /* \"#utility.yul\":638:676   */\n  swap1\n  pop\n    /* \"#utility.yul\":580:682   */\n  swap2\n  swap1\n  pop\n  jump\t// out\n    /* \"#utility.yul\":688:868   */\ntag_23:\n    /* \"#utility.yul\":736:813   */\n  0x4e487b7100000000000000000000000000000000000000000000000000000000\n    /* \"#utility.yul\":733:734   */\n  0x00\n    /* \"#utility.yul\":726:814   */\n  mstore\n    /* \"#utility.yul\":833:837   */\n  0x41\n    /* \"#utility.yul\":830:831   */\n  0x04\n    /* \"#utility.yul\":823:838   */\n  mstore\n    /* \"#utility.yul\":857:861   */\n  0x24\n    /* \"#utility.yul\":854:855   */\n  0x00\n    /* \"#utility.yul\":847:862   */\n  revert\n    /* \"#utility.yul\":874:1155   */\ntag_24:\n    /* \"#utility.yul\":957:984   */\n  tag_61\n    /* \"#utility.yul\":979:983   */\n  dup3\n    /* \"#utility.yul\":957:984   */\n  tag_22\n  jump\t// in\ntag_61:\n    /* \"#utility.yul\":949:955   */\n  dup2\n    /* \"#utility.yul\":945:985   */\n  add\n    /* \"#utility.yul\":1087:1093   */\n  dup2\n    /* \"#utility.yul\":1075:1085   */\n  dup2\n    /* \"#utility.yul\":1072:1094   */\n  lt\n    /* \"#utility.yul\":1051:1069   */\n  0xffffffffffffffff\n    /* \"#utility.yul\":1039:1049   */\n  dup3\n    /* \"#utility.yul\":1036:1070   */\n  gt\n    /* \"#utility.yul\":1033:1095   */\n  or\n    /* \"#utility.yul\":1030:1118   */\n  iszero\n  tag_62\n  jumpi\n    /* \"#utility.yul\":1098:1116   */\n  tag_63\n  tag_23\n  jump\t// in\ntag_63:\n    /* \"#utility.yul\":1030:1118   */\ntag_62:\n    /* \"#utility.yul\":1138:1148   */\n  dup1\n    /* \"#utility.yul\":1134:1136   */\n  0x40\n    /* \"#utility.yul\":1127:1149   */\n  mstore\n    /* \"#utility.yul\":917:1155   */\n  pop\n    /* \"#utility.yul\":874:1155   */\n  pop\n  pop\n  jump\t// out\n    /* \"#utility.yul\":1161:1290   */\ntag_25:\n    /* \"#utility.yul\":1195:1201   */\n  0x00\n    /* \"#utility.yul\":1222:1242   */\n  tag_65\n  tag_17\n  jump\t// in\ntag_65:\n    /* \"#utility.yul\":1212:1242   */\n  swap1\n  pop\n    /* \"#utility.yul\":1251:1284   */\n  tag_66\n    /* \"#utility.yul\":1279:1283   */\n  dup3\n    /* \"#utility.yul\":1271:1277   */\n  dup3\n    /* \"#utility.yul\":1251:1284   */\n  tag_24\n  jump\t// in\ntag_66:\n    /* \"#utility.yul\":1161:1290   */\n  swap2\n  swap1\n  pop\n  jump\t// out\n    /* \"#utility.yul\":1296:1604   */\ntag_26:\n    /* \"#utility.yul\":1358:1362   */\n  0x00\n    /* \"#utility.yul\":1448:1466   */\n  0xffffffffffffffff\n    /* \"#utility.yul\":1440:1446   */\n  dup3\n    /* \"#utility.yul\":1437:1467   */\n  gt\n    /* \"#utility.yul\":1434:1490   */\n  iszero\n  tag_68\n  jumpi\n    /* \"#utility.yul\":1470:1488   */\n  tag_69\n  tag_23\n  jump\t// in\ntag_69:\n    /* \"#utility.yul\":1434:1490   */\ntag_68:\n    /* \"#utility.yul\":1508:1537   */\n  tag_70\n    /* \"#utility.yul\":1530:1536   */\n  dup3\n    /* \"#utility.yul\":1508:1537   */\n  tag_22\n  jump\t// in\ntag_70:\n    /* \"#utility.yul\":1500:1537   */\n  swap1\n  pop\n    /* \"#utility.yul\":1592:1596   */\n  0x20\n    /* \"#utility.yul\":1586:1590   */\n  dup2\n    /* \"#utility.yul\":1582:1597   */\n  add\n    /* \"#utility.yul\":1574:1597   */\n  swap1\n  pop\n    /* \"#utility.yul\":1296:1604   */\n  swap2\n  swap1\n  pop\n  jump\t// out\n    /* \"#utility.yul\":1610:1749   */\ntag_27:\n    /* \"#utility.yul\":1699:1705   */\n  dup3\n    /* \"#utility.yul\":1694:1697   */\n  dup2\n    /* \"#utility.yul\":1689:1692   */\n  dup4\n    /* \"#utility.yul\":1683:1706   */\n  mcopy\n    /* \"#utility.yul\":1740:1741   */\n  0x00\n    /* \"#utility.yul\":1731:1737   */\n  dup4\n    /* \"#utility.yul\":1726:1729   */\n  dup4\n    /* \"#utility.yul\":1722:1738   */\n  add\n    /* \"#utility.yul\":1715:1742   */\n  mstore\n    /* \"#utility.yul\":1610:1749   */\n  pop\n  pop\n  pop\n  jump\t// out\n    /* \"#utility.yul\":1755:2189   */\ntag_28:\n    /* \"#utility.yul\":1844:1849   */\n  0x00\n    /* \"#utility.yul\":1869:1935   */\n  tag_73\n    /* \"#utility.yul\":1885:1934   */\n  tag_74\n    /* \"#utility.yul\":1927:1933   */\n  dup5\n    /* \"#utility.yul\":1885:1934   */\n  tag_26\n  jump\t// in\ntag_74:\n    /* \"#utility.yul\":1869:1935   */\n  tag_25\n  jump\t// in\ntag_73:\n    /* \"#utility.yul\":1860:1935   */\n  swap1\n  pop\n    /* \"#utility.yul\":1958:1964   */\n  dup3\n    /* \"#utility.yul\":1951:1956   */\n  dup2\n    /* \"#utility.yul\":1944:1965   */\n  mstore\n    /* \"#utility.yul\":1996:2000   */\n  0x20\n    /* \"#utility.yul\":1989:1994   */\n  dup2\n    /* \"#utility.yul\":1985:2001   */\n  add\n    /* \"#utility.yul\":2034:2037   */\n  dup5\n    /* \"#utility.yul\":2025:2031   */\n  dup5\n    /* \"#utility.yul\":2020:2023   */\n  dup5\n    /* \"#utility.yul\":2016:2032   */\n  add\n    /* \"#utility.yul\":2013:2038   */\n  gt\n    /* \"#utility.yul\":2010:2122   */\n  iszero\n  tag_75\n  jumpi\n    /* \"#utility.yul\":2041:2120   */\n  tag_76\n  tag_21\n  jump\t// in\ntag_76:\n    /* \"#utility.yul\":2010:2122   */\ntag_75:\n    /* \"#utility.yul\":2131:2183   */\n  tag_77\n    /* \"#utility.yul\":2176:2182   */\n  dup5\n    /* \"#utility.yul\":2171:2174   */\n  dup3\n    /* \"#utility.yul\":2166:2169   */\n  dup6\n    /* \"#utility.yul\":2131:2183   */\n  tag_27\n  jump\t// in\ntag_77:\n    /* \"#utility.yul\":1850:2189   */\n  pop\n    /* \"#utility.yul\":1755:2189   */\n  swap4\n  swap3\n  pop\n  pop\n  pop\n  jump\t// out\n    /* \"#utility.yul\":2209:2564   */\ntag_29:\n    /* \"#utility.yul\":2276:2281   */\n  0x00\n    /* \"#utility.yul\":2325:2328   */\n  dup3\n    /* \"#utility.yul\":2318:2322   */\n  0x1f\n    /* \"#utility.yul\":2310:2316   */\n  dup4\n    /* \"#utility.yul\":2306:2323   */\n  add\n    /* \"#utility.yul\":2302:2329   */\n  slt\n    /* \"#utility.yul\":2292:2414   */\n  tag_79\n  jumpi\n    /* \"#utility.yul\":2333:2412   */\n  tag_80\n  tag_20\n  jump\t// in\ntag_80:\n    /* \"#utility.yul\":2292:2414   */\ntag_79:\n    /* \"#utility.yul\":2443:2449   */\n  dup2\n    /* \"#utility.yul\":2437:2450   */\n  mload\n    /* \"#utility.yul\":2468:2558   */\n  tag_81\n    /* \"#utility.yul\":2554:2557   */\n  dup5\n    /* \"#utility.yul\":2546:2552   */\n  dup3\n    /* \"#utility.yul\":2539:2543   */\n  0x20\n    /* \"#utility.yul\":2531:2537   */\n  dup7\n    /* \"#utility.yul\":2527:2544   */\n  add\n    /* \"#utility.yul\":2468:2558   */\n  tag_28\n  jump\t// in\ntag_81:\n    /* \"#utility.yul\":2459:2558   */\n  swap2\n  pop\n    /* \"#utility.yul\":2282:2564   */\n  pop\n    /* \"#utility.yul\":2209:2564   */\n  swap3\n  swap2\n  pop\n  pop\n  jump\t// out\n    /* \"#utility.yul\":2570:2647   */\ntag_30:\n    /* \"#utility.yul\":2607:2614   */\n  0x00\n    /* \"#utility.yul\":2636:2641   */\n  dup2\n    /* \"#utility.yul\":2625:2641   */\n  swap1\n  pop\n    /* \"#utility.yul\":2570:2647   */\n  swap2\n  swap1\n  pop\n  jump\t// out\n    /* \"#utility.yul\":2653:2775   */\ntag_31:\n    /* \"#utility.yul\":2726:2750   */\n  tag_84\n    /* \"#utility.yul\":2744:2749   */\n  dup2\n    /* \"#utility.yul\":2726:2750   */\n  tag_30\n  jump\t// in\ntag_84:\n    /* \"#utility.yul\":2719:2724   */\n  dup2\n    /* \"#utility.yul\":2716:2751   */\n  eq\n    /* \"#utility.yul\":2706:2769   */\n  tag_85\n  jumpi\n    /* \"#utility.yul\":2765:2766   */\n  0x00\n    /* \"#utility.yul\":2762:2763   */\n  dup1\n    /* \"#utility.yul\":2755:2767   */\n  revert\n    /* \"#utility.yul\":2706:2769   */\ntag_85:\n    /* \"#utility.yul\":2653:2775   */\n  pop\n  jump\t// out\n    /* \"#utility.yul\":2781:2924   */\ntag_32:\n    /* \"#utility.yul\":2838:2843   */\n  0x00\n    /* \"#utility.yul\":2869:2875   */\n  dup2\n    /* \"#utility.yul\":2863:2876   */\n  mload\n    /* \"#utility.yul\":2854:2876   */\n  swap1\n  pop\n    /* \"#utility.yul\":2885:2918   */\n  tag_87\n    /* \"#utility.yul\":2912:2917   */\n  dup2\n    /* \"#utility.yul\":2885:2918   */\n  tag_31\n  jump\t// in\ntag_87:\n    /* \"#utility.yul\":2781:2924   */\n  swap3\n  swap2\n  pop\n  pop\n  jump\t// out\n    /* \"#utility.yul\":2930:4096   */\ntag_3:\n    /* \"#utility.yul\":3047:3053   */\n  0x00\n    /* \"#utility.yul\":3055:3061   */\n  dup1\n    /* \"#utility.yul\":3063:3069   */\n  0x00\n    /* \"#utility.yul\":3071:3077   */\n  dup1\n    /* \"#utility.yul\":3120:3123   */\n  0x80\n    /* \"#utility.yul\":3108:3117   */\n  dup6\n    /* \"#utility.yul\":3099:3106   */\n  dup8\n    /* \"#utility.yul\":3095:3118   */\n  sub\n    /* \"#utility.yul\":3091:3124   */\n  slt\n    /* \"#utility.yul\":3088:3208   */\n  iszero\n  tag_89\n  jumpi\n    /* \"#utility.yul\":3127:3206   */\n  tag_90\n  tag_18\n  jump\t// in\ntag_90:\n    /* \"#utility.yul\":3088:3208   */\ntag_89:\n    /* \"#utility.yul\":3268:3269   */\n  0x00\n    /* \"#utility.yul\":3257:3266   */\n  dup6\n    /* \"#utility.yul\":3253:3270   */\n  add\n    /* \"#utility.yul\":3247:3271   */\n  mload\n    /* \"#utility.yul\":3298:3316   */\n  0xffffffffffffffff\n    /* \"#utility.yul\":3290:3296   */\n  dup2\n    /* \"#utility.yul\":3287:3317   */\n  gt\n    /* \"#utility.yul\":3284:3401   */\n  iszero\n  tag_91\n  jumpi\n    /* \"#utility.yul\":3320:3399   */\n  tag_92\n  tag_19\n  jump\t// in\ntag_92:\n    /* \"#utility.yul\":3284:3401   */\ntag_91:\n    /* \"#utility.yul\":3425:3499   */\n  tag_93\n    /* \"#utility.yul\":3491:3498   */\n  dup8\n    /* \"#utility.yul\":3482:3488   */\n  dup3\n    /* \"#utility.yul\":3471:3480   */\n  dup9\n    /* \"#utility.yul\":3467:3489   */\n  add\n    /* \"#utility.yul\":3425:3499   */\n  tag_29\n  jump\t// in\ntag_93:\n    /* \"#utility.yul\":3415:3499   */\n  swap5\n  pop\n    /* \"#utility.yul\":3218:3509   */\n  pop\n    /* \"#utility.yul\":3569:3571   */\n  0x20\n    /* \"#utility.yul\":3558:3567   */\n  dup6\n    /* \"#utility.yul\":3554:3572   */\n  add\n    /* \"#utility.yul\":3548:3573   */\n  mload\n    /* \"#utility.yul\":3600:3618   */\n  0xffffffffffffffff\n    /* \"#utility.yul\":3592:3598   */\n  dup2\n    /* \"#utility.yul\":3589:3619   */\n  gt\n    /* \"#utility.yul\":3586:3703   */\n  iszero\n  tag_94\n  jumpi\n    /* \"#utility.yul\":3622:3701   */\n  tag_95\n  tag_19\n  jump\t// in\ntag_95:\n    /* \"#utility.yul\":3586:3703   */\ntag_94:\n    /* \"#utility.yul\":3727:3801   */\n  tag_96\n    /* \"#utility.yul\":3793:3800   */\n  dup8\n    /* \"#utility.yul\":3784:3790   */\n  dup3\n    /* \"#utility.yul\":3773:3782   */\n  dup9\n    /* \"#utility.yul\":3769:3791   */\n  add\n    /* \"#utility.yul\":3727:3801   */\n  tag_29\n  jump\t// in\ntag_96:\n    /* \"#utility.yul\":3717:3801   */\n  swap4\n  pop\n    /* \"#utility.yul\":3519:3811   */\n  pop\n    /* \"#utility.yul\":3850:3852   */\n  0x40\n    /* \"#utility.yul\":3876:3940   */\n  tag_97\n    /* \"#utility.yul\":3932:3939   */\n  dup8\n    /* \"#utility.yul\":3923:3929   */\n  dup3\n    /* \"#utility.yul\":3912:3921   */\n  dup9\n    /* \"#utility.yul\":3908:3930   */\n  add\n    /* \"#utility.yul\":3876:3940   */\n  tag_32\n  jump\t// in\ntag_97:\n    /* \"#utility.yul\":3866:3940   */\n  swap3\n  pop\n    /* \"#utility.yul\":3821:3950   */\n  pop\n    /* \"#utility.yul\":3989:3991   */\n  0x60\n    /* \"#utility.yul\":4015:4079   */\n  tag_98\n    /* \"#utility.yul\":4071:4078   */\n  dup8\n    /* \"#utility.yul\":4062:4068   */\n  dup3\n    /* \"#utility.yul\":4051:4060   */\n  dup9\n    /* \"#utility.yul\":4047:4069   */\n  add\n    /* \"#utility.yul\":4015:4079   */\n  tag_32\n  jump\t// in\ntag_98:\n    /* \"#utility.yul\":4005:4079   */\n  swap2\n  pop\n    /* \"#utility.yul\":3960:4089   */\n  pop\n    /* \"#utility.yul\":2930:4096   */\n  swap3\n  swap6\n  swap2\n  swap5\n  pop\n  swap3\n  pop\n  jump\t// out\n    /* \"#utility.yul\":4102:4201   */\ntag_33:\n    /* \"#utility.yul\":4154:4160   */\n  0x00\n    /* \"#utility.yul\":4188:4193   */\n  dup2\n    /* \"#utility.yul\":4182:4194   */\n  mload\n    /* \"#utility.yul\":4172:4194   */\n  swap1\n  pop\n    /* \"#utility.yul\":4102:4201   */\n  swap2\n  swap1\n  pop\n  jump\t// out\n    /* \"#utility.yul\":4207:4387   */\ntag_34:\n    /* \"#utility.yul\":4255:4332   */\n  0x4e487b7100000000000000000000000000000000000000000000000000000000\n    /* \"#utility.yul\":4252:4253   */\n  0x00\n    /* \"#utility.yul\":4245:4333   */\n  mstore\n    /* \"#utility.yul\":4352:4356   */\n  0x22\n    /* \"#utility.yul\":4349:4350   */\n  0x04\n    /* \"#utility.yul\":4342:4357   */\n  mstore\n    /* \"#utility.yul\":4376:4380   */\n  0x24\n    /* \"#utility.yul\":4373:4374   */\n  0x00\n    /* \"#utility.yul\":4366:4381   */\n  revert\n    /* \"#utility.yul\":4393:4713   */\ntag_35:\n    /* \"#utility.yul\":4437:4443   */\n  0x00\n    /* \"#utility.yul\":4474:4475   */\n  0x02\n    /* \"#utility.yul\":4468:4472   */\n  dup3\n    /* \"#utility.yul\":4464:4476   */\n  div\n    /* \"#utility.yul\":4454:4476   */\n  swap1\n  pop\n    /* \"#utility.yul\":4521:4522   */\n  0x01\n    /* \"#utility.yul\":4515:4519   */\n  dup3\n    /* \"#utility.yul\":4511:4523   */\n  and\n    /* \"#utility.yul\":4542:4560   */\n  dup1\n    /* \"#utility.yul\":4532:4613   */\n  tag_102\n  jumpi\n    /* \"#utility.yul\":4598:4602   */\n  0x7f\n    /* \"#utility.yul\":4590:4596   */\n  dup3\n    /* \"#utility.yul\":4586:4603   */\n  and\n    /* \"#utility.yul\":4576:4603   */\n  swap2\n  pop\n    /* \"#utility.yul\":4532:4613   */\ntag_102:\n    /* \"#utility.yul\":4660:4662   */\n  0x20\n    /* \"#utility.yul\":4652:4658   */\n  dup3\n    /* \"#utility.yul\":4649:4663   */\n  lt\n    /* \"#utility.yul\":4629:4647   */\n  dup2\n    /* \"#utility.yul\":4626:4664   */\n  sub\n    /* \"#utility.yul\":4623:4707   */\n  tag_103\n  jumpi\n    /* \"#utility.yul\":4679:4697   */\n  tag_104\n  tag_34\n  jump\t// in\ntag_104:\n    /* \"#utility.yul\":4623:4707   */\ntag_103:\n    /* \"#utility.yul\":4444:4713   */\n  pop\n    /* \"#utility.yul\":4393:4713   */\n  swap2\n  swap1\n  pop\n  jump\t// out\n    /* \"#utility.yul\":4719:4860   */\ntag_36:\n    /* \"#utility.yul\":4768:4772   */\n  0x00\n    /* \"#utility.yul\":4791:4794   */\n  dup2\n    /* \"#utility.yul\":4783:4794   */\n  swap1\n  pop\n    /* \"#utility.yul\":4814:4817   */\n  dup2\n    /* \"#utility.yul\":4811:4812   */\n  0x00\n    /* \"#utility.yul\":4804:4818   */\n  mstore\n    /* \"#utility.yul\":4848:4852   */\n  0x20\n    /* \"#utility.yul\":4845:4846   */\n  0x00\n    /* \"#utility.yul\":4835:4853   */\n  keccak256\n    /* \"#utility.yul\":4827:4853   */\n  swap1\n  pop\n    /* \"#utility.yul\":4719:4860   */\n  swap2\n  swap1\n  pop\n  jump\t// out\n    /* \"#utility.yul\":4866:4959   */\ntag_37:\n    /* \"#utility.yul\":4903:4909   */\n  0x00\n    /* \"#utility.yul\":4950:4952   */\n  0x20\n    /* \"#utility.yul\":4945:4947   */\n  0x1f\n    /* \"#utility.yul\":4938:4943   */\n  dup4\n    /* \"#utility.yul\":4934:4948   */\n  add\n    /* \"#utility.yul\":4930:4953   */\n  div\n    /* \"#utility.yul\":4920:4953   */\n  swap1\n  pop\n    /* \"#utility.yul\":4866:4959   */\n  swap2\n  swap1\n  pop\n  jump\t// out\n    /* \"#utility.yul\":4965:5072   */\ntag_38:\n    /* \"#utility.yul\":5009:5017   */\n  0x00\n    /* \"#utility.yul\":5059:5064   */\n  dup3\n    /* \"#utility.yul\":5053:5057   */\n  dup3\n    /* \"#utility.yul\":5049:5065   */\n  shl\n    /* \"#utility.yul\":5028:5065   */\n  swap1\n  pop\n    /* \"#utility.yul\":4965:5072   */\n  swap3\n  swap2\n  pop\n  pop\n  jump\t// out\n    /* \"#utility.yul\":5078:5471   */\ntag_39:\n    /* \"#utility.yul\":5147:5153   */\n  0x00\n    /* \"#utility.yul\":5197:5198   */\n  0x08\n    /* \"#utility.yul\":5185:5195   */\n  dup4\n    /* \"#utility.yul\":5181:5199   */\n  mul\n    /* \"#utility.yul\":5220:5317   */\n  tag_109\n    /* \"#utility.yul\":5250:5316   */\n  0xffffffffffffffffffffffffffffffffffffffffffffffffffffffffffffffff\n    /* \"#utility.yul\":5239:5248   */\n  dup3\n    /* \"#utility.yul\":5220:5317   */\n  tag_38\n  jump\t// in\ntag_109:\n    /* \"#utility.yul\":5338:5377   */\n  tag_110\n    /* \"#utility.yul\":5368:5376   */\n  dup7\n    /* \"#utility.yul\":5357:5366   */\n  dup4\n    /* \"#utility.yul\":5338:5377   */\n  tag_38\n  jump\t// in\ntag_110:\n    /* \"#utility.yul\":5326:5377   */\n  swap6\n  pop\n    /* \"#utility.yul\":5410:5414   */\n  dup1\n    /* \"#utility.yul\":5406:5415   */\n  not\n    /* \"#utility.yul\":5399:5404   */\n  dup5\n    /* \"#utility.yul\":5395:5416   */\n  and\n    /* \"#utility.yul\":5386:5416   */\n  swap4\n  pop\n    /* \"#utility.yul\":5459:5463   */\n  dup1\n    /* \"#utility.yul\":5449:5457   */\n  dup7\n    /* \"#utility.yul\":5445:5464   */\n  and\n    /* \"#utility.yul\":5438:5443   */\n  dup5\n    /* \"#utility.yul\":5435:5465   */\n  or\n    /* \"#utility.yul\":5425:5465   */\n  swap3\n  pop\n    /* \"#utility.yul\":5154:5471   */\n  pop\n  pop\n    /* \"#utility.yul\":5078:5471   */\n  swap4\n  swap3\n  pop\n  pop\n  pop\n  jump\t// out\n    /* \"#utility.yul\":5477:5537   */\ntag_40:\n    /* \"#utility.yul\":5505:5508   */\n  0x00\n    /* \"#utility.yul\":5526:5531   */\n  dup2\n    /* \"#utility.yul\":5519:5531   */\n  swap1\n  pop\n    /* \"#utility.yul\":5477:5537   */\n  swap2\n  swap1\n  pop\n  jump\t// out\n    /* \"#utility.yul\":5543:5685   */\ntag_41:\n    /* \"#utility.yul\":5593:5602   */\n  0x00\n    /* \"#utility.yul\":5626:5679   */\n  tag_113\n    /* \"#utility.yul\":5644:5678   */\n  tag_114\n    /* \"#utility.yul\":5653:5677   */\n  tag_115\n    /* \"#utility.yul\":5671:5676   */\n  dup5\n    /* \"#utility.yul\":5653:5677   */\n  tag_30\n  jump\t// in\ntag_115:\n    /* \"#utility.yul\":5644:5678   */\n  tag_40\n  jump\t// in\ntag_114:\n    /* \"#utility.yul\":5626:5679   */\n  tag_30\n  jump\t// in\ntag_113:\n    /* \"#utility.yul\":5613:5679   */\n  swap1\n  pop\n    /* \"#utility.yul\":5543:5685   */\n  swap2\n  swap1\n  pop\n  jump\t// out\n    /* \"#utility.yul\":5691:5766   */\ntag_42:\n    /* \"#utility.yul\":5734:5737   */\n  0x00\n    /* \"#utility.yul\":5755:5760   */\n  dup2\n    /* \"#utility.yul\":5748:5760   */\n  swap1\n  pop\n    /* \"#utility.yul\":5691:5766   */\n  swap2\n  swap1\n  pop\n  jump\t// out\n    /* \"#utility.yul\":5772:6041   */\ntag_43:\n    /* \"#utility.yul\":5882:5921   */\n  tag_118\n    /* \"#utility.yul\":5913:5920   */\n  dup4\n    /* \"#utility.yul\":5882:5921   */\n  tag_41\n  jump\t// in\ntag_118:\n    /* \"#utility.yul\":5943:6034   */\n  tag_119\n    /* \"#utility.yul\":5992:6033   */\n  tag_120\n    /* \"#utility.yul\":6016:6032   */\n  dup3\n    /* \"#utility.yul\":5992:6033   */\n  tag_42\n  jump\t// in\ntag_120:\n    /* \"#utility.yul\":5984:5990   */\n  dup5\n    /* \"#utility.yul\":5977:5981   */\n  dup5\n    /* \"#utility.yul\":5971:5982   */\n  sload\n    /* \"#utility.yul\":5943:6034   */\n  tag_39\n  jump\t// in\ntag_119:\n    /* \"#utility.yul\":5937:5941   */\n  dup3\n    /* \"#utility.yul\":5930:6035   */\n  sstore\n    /* \"#utility.yul\":5848:6041   */\n  pop\n    /* \"#utility.yul\":5772:6041   */\n  pop\n  pop\n  pop\n  jump\t// out\n    /* \"#utility.yul\":6047:6120   */\ntag_44:\n    /* \"#utility.yul\":6092:6095   */\n  0x00\n    /* \"#utility.yul\":6047:6120   */\n  swap1\n  jump\t// out\n    /* \"#utility.yul\":6126:6315   */\ntag_45:\n    /* \"#utility.yul\":6203:6235   */\n  tag_123\n  tag_44\n  jump\t// in\ntag_123:\n    /* \"#utility.yul\":6244:6309   */\n  tag_124\n    /* \"#utility.yul\":6302:6308   */\n  dup2\n    /* \"#utility.yul\":6294:6300   */\n  dup5\n    /* \"#utility.yul\":6288:6292   */\n  dup5\n    /* \"#utility.yul\":6244:6309   */\n  tag_43\n  jump\t// in\ntag_124:\n    /* \"#utility.yul\":6179:6315   */\n  pop\n    /* \"#utility.yul\":6126:6315   */\n  pop\n  pop\n  jump\t// out\n    /* \"#utility.yul\":6321:6507   */\ntag_46:\n    /* \"#utility.yul\":6381:6501   */\ntag_126:\n    /* \"#utility.yul\":6398:6401   */\n  dup2\n    /* \"#utility.yul\":6391:6396   */\n  dup2\n    /* \"#utility.yul\":6388:6402   */\n  lt\n    /* \"#utility.yul\":6381:6501   */\n  iszero\n  tag_128\n  jumpi\n    /* \"#utility.yul\":6452:6491   */\n  tag_129\n    /* \"#utility.yul\":6489:6490   */\n  0x00\n    /* \"#utility.yul\":6482:6487   */\n  dup3\n    /* \"#utility.yul\":6452:6491   */\n  tag_45\n  jump\t// in\ntag_129:\n    /* \"#utility.yul\":6425:6426   */\n  0x01\n    /* \"#utility.yul\":6418:6423   */\n  dup2\n    /* \"#utility.yul\":6414:6427   */\n  add\n    /* \"#utility.yul\":6405:6427   */\n  swap1\n  pop\n    /* \"#utility.yul\":6381:6501   */\n  jump(tag_126)\ntag_128:\n    /* \"#utility.yul\":6321:6507   */\n  pop\n  pop\n  jump\t// out\n    /* \"#utility.yul\":6513:7056   */\ntag_47:\n    /* \"#utility.yul\":6614:6616   */\n  0x1f\n    /* \"#utility.yul\":6609:6612   */\n  dup3\n    /* \"#utility.yul\":6606:6617   */\n  gt\n    /* \"#utility.yul\":6603:7049   */\n  iszero\n  tag_131\n  jumpi\n    /* \"#utility.yul\":6648:6686   */\n  tag_132\n    /* \"#utility.yul\":6680:6685   */\n  dup2\n    /* \"#utility.yul\":6648:6686   */\n  tag_36\n  jump\t// in\ntag_132:\n    /* \"#utility.yul\":6732:6761   */\n  tag_133\n    /* \"#utility.yul\":6750:6760   */\n  dup5\n    /* \"#utility.yul\":6732:6761   */\n  tag_37\n  jump\t// in\ntag_133:\n    /* \"#utility.yul\":6722:6730   */\n  dup2\n    /* \"#utility.yul\":6718:6762   */\n  add\n    /* \"#utility.yul\":6915:6917   */\n  0x20\n    /* \"#utility.yul\":6903:6913   */\n  dup6\n    /* \"#utility.yul\":6900:6918   */\n  lt\n    /* \"#utility.yul\":6897:6946   */\n  iszero\n  tag_134\n  jumpi\n    /* \"#utility.yul\":6936:6944   */\n  dup2\n    /* \"#utility.yul\":6921:6944   */\n  swap1\n  pop\n    /* \"#utility.yul\":6897:6946   */\ntag_134:\n    /* \"#utility.yul\":6959:7039   */\n  tag_135\n    /* \"#utility.yul\":7015:7037   */\n  tag_136\n    /* \"#utility.yul\":7033:7036   */\n  dup6\n    /* \"#utility.yul\":7015:7037   */\n  tag_37\n  jump\t// in\ntag_136:\n    /* \"#utility.yul\":7005:7013   */\n  dup4\n    /* \"#utility.yul\":7001:7038   */\n  add\n    /* \"#utility.yul\":6988:6999   */\n  dup3\n    /* \"#utility.yul\":6959:7039   */\n  tag_46\n  jump\t// in\ntag_135:\n    /* \"#utility.yul\":6618:7049   */\n  pop\n  pop\n    /* \"#utility.yul\":6603:7049   */\ntag_131:\n    /* \"#utility.yul\":6513:7056   */\n  pop\n  pop\n  pop\n  jump\t// out\n    /* \"#utility.yul\":7062:7179   */\ntag_48:\n    /* \"#utility.yul\":7116:7124   */\n  0x00\n    /* \"#utility.yul\":7166:7171   */\n  dup3\n    /* \"#utility.yul\":7160:7164   */\n  dup3\n    /* \"#utility.yul\":7156:7172   */\n  shr\n    /* \"#utility.yul\":7135:7172   */\n  swap1\n  pop\n    /* \"#utility.yul\":7062:7179   */\n  swap3\n  swap2\n  pop\n  pop\n  jump\t// out\n    /* \"#utility.yul\":7185:7354   */\ntag_49:\n    /* \"#utility.yul\":7229:7235   */\n  0x00\n    /* \"#utility.yul\":7262:7313   */\n  tag_139\n    /* \"#utility.yul\":7310:7311   */\n  0x00\n    /* \"#utility.yul\":7306:7312   */\n  not\n    /* \"#utility.yul\":7298:7303   */\n  dup5\n    /* \"#utility.yul\":7295:7296   */\n  0x08\n    /* \"#utility.yul\":7291:7304   */\n  mul\n    /* \"#utility.yul\":7262:7313   */\n  tag_48\n  jump\t// in\ntag_139:\n    /* \"#utility.yul\":7258:7314   */\n  not\n    /* \"#utility.yul\":7343:7347   */\n  dup1\n    /* \"#utility.yul\":7337:7341   */\n  dup4\n    /* \"#utility.yul\":7333:7348   */\n  and\n    /* \"#utility.yul\":7323:7348   */\n  swap2\n  pop\n    /* \"#utility.yul\":7236:7354   */\n  pop\n    /* \"#utility.yul\":7185:7354   */\n  swap3\n  swap2\n  pop\n  pop\n  jump\t// out\n    /* \"#utility.yul\":7359:7654   */\ntag_50:\n    /* \"#utility.yul\":7435:7439   */\n  0x00\n    /* \"#utility.yul\":7581:7610   */\n  tag_141\n    /* \"#utility.yul\":7606:7609   */\n  dup4\n    /* \"#utility.yul\":7600:7604   */\n  dup4\n    /* \"#utility.yul\":7581:7610   */\n  tag_49\n  jump\t// in\ntag_141:\n    /* \"#utility.yul\":7573:7610   */\n  swap2\n  pop\n    /* \"#utility.yul\":7643:7646   */\n  dup3\n    /* \"#utility.yul\":7640:7641   */\n  0x02\n    /* \"#utility.yul\":7636:7647   */\n  mul\n    /* \"#utility.yul\":7630:7634   */\n  dup3\n    /* \"#utility.yul\":7627:7648   */\n  or\n    /* \"#utility.yul\":7619:7648   */\n  swap1\n  pop\n    /* \"#utility.yul\":7359:7654   */\n  swap3\n  swap2\n  pop\n  pop\n  jump\t// out\n    /* \"#utility.yul\":7659:9054   */\ntag_7:\n    /* \"#utility.yul\":7776:7813   */\n  tag_143\n    /* \"#utility.yul\":7809:7812   */\n  dup3\n    /* \"#utility.yul\":7776:7813   */\n  tag_33\n  jump\t// in\ntag_143:\n    /* \"#utility.yul\":7878:7896   */\n  0xffffffffffffffff\n    /* \"#utility.yul\":7870:7876   */\n  dup2\n    /* \"#utility.yul\":7867:7897   */\n  gt\n    /* \"#utility.yul\":7864:7920   */\n  iszero\n  tag_144\n  jumpi\n    /* \"#utility.yul\":7900:7918   */\n  tag_145\n  tag_23\n  jump\t// in\ntag_145:\n    /* \"#utility.yul\":7864:7920   */\ntag_144:\n    /* \"#utility.yul\":7944:7982   */\n  tag_146\n    /* \"#utility.yul\":7976:7980   */\n  dup3\n    /* \"#utility.yul\":7970:7981   */\n  sload\n    /* \"#utility.yul\":7944:7982   */\n  tag_35\n  jump\t// in\ntag_146:\n    /* \"#utility.yul\":8029:8096   */\n  tag_147\n    /* \"#utility.yul\":8089:8095   */\n  dup3\n    /* \"#utility.yul\":8081:8087   */\n  dup3\n    /* \"#utility.yul\":8075:8079   */\n  dup6\n    /* \"#utility.yul\":8029:8096   */\n  tag_47\n  jump\t// in\ntag_147:\n    /* \"#utility.yul\":8123:8124   */\n  0x00\n    /* \"#utility.yul\":8147:8151   */\n  0x20\n    /* \"#utility.yul\":8134:8151   */\n  swap1\n  pop\n    /* \"#utility.yul\":8179:8181   */\n  0x1f\n    /* \"#utility.yul\":8171:8177   */\n  dup4\n    /* \"#utility.yul\":8168:8182   */\n  gt\n    /* \"#utility.yul\":8196:8197   */\n  0x01\n    /* \"#utility.yul\":8191:8809   */\n  dup2\n  eq\n  tag_149\n  jumpi\n    /* \"#utility.yul\":8853:8854   */\n  0x00\n    /* \"#utility.yul\":8870:8876   */\n  dup5\n    /* \"#utility.yul\":8867:8944   */\n  iszero\n  tag_150\n  jumpi\n    /* \"#utility.yul\":8919:8928   */\n  dup3\n    /* \"#utility.yul\":8914:8917   */\n  dup8\n    /* \"#utility.yul\":8910:8929   */\n  add\n    /* \"#utility.yul\":8904:8930   */\n  mload\n    /* \"#utility.yul\":8895:8930   */\n  swap1\n  pop\n    /* \"#utility.yul\":8867:8944   */\ntag_150:\n    /* \"#utility.yul\":8970:9037   */\n  tag_151\n    /* \"#utility.yul\":9030:9036   */\n  dup6\n    /* \"#utility.yul\":9023:9028   */\n  dup3\n    /* \"#utility.yul\":8970:9037   */\n  tag_50\n  jump\t// in\ntag_151:\n    /* \"#utility.yul\":8964:8968   */\n  dup7\n    /* \"#utility.yul\":8957:9038   */\n  sstore\n    /* \"#utility.yul\":8826:9048   */\n  pop\n    /* \"#utility.yul\":8161:9048   */\n  jump(tag_148)\n    /* \"#utility.yul\":8191:8809   */\ntag_149:\n    /* \"#utility.yul\":8243:8247   */\n  0x1f\n    /* \"#utility.yul\":8239:8248   */\n  not\n    /* \"#utility.yul\":8231:8237   */\n  dup5\n    /* \"#utility.yul\":8227:8249   */\n  and\n    /* \"#utility.yul\":8277:8314   */\n  tag_152\n    /* \"#utility.yul\":8309:8313   */\n  dup7\n    /* \"#utility.yul\":8277:8314   */\n  tag_36\n  jump\t// in\ntag_152:\n    /* \"#utility.yul\":8336:8337   */\n  0x00\n    /* \"#utility.yul\":8350:8558   */\ntag_153:\n    /* \"#utility.yul\":8364:8371   */\n  dup3\n    /* \"#utility.yul\":8361:8362   */\n  dup2\n    /* \"#utility.yul\":8358:8372   */\n  lt\n    /* \"#utility.yul\":8350:8558   */\n  iszero\n  tag_155\n  jumpi\n    /* \"#utility.yul\":8443:8452   */\n  dup5\n    /* \"#utility.yul\":8438:8441   */\n  dup10\n    /* \"#utility.yul\":8434:8453   */\n  add\n    /* \"#utility.yul\":8428:8454   */\n  mload\n    /* \"#utility.yul\":8420:8426   */\n  dup3\n    /* \"#utility.yul\":8413:8455   */\n  sstore\n    /* \"#utility.yul\":8494:8495   */\n  0x01\n    /* \"#utility.yul\":8486:8492   */\n  dup3\n    /* \"#utility.yul\":8482:8496   */\n  add\n    /* \"#utility.yul\":8472:8496   */\n  swap2\n  pop\n    /* \"#utility.yul\":8541:8543   */\n  0x20\n    /* \"#utility.yul\":8530:8539   */\n  dup6\n    /* \"#utility.yul\":8526:8544   */\n  add\n    /* \"#utility.yul\":8513:8544   */\n  swap5\n  pop\n    /* \"#utility.yul\":8387:8391   */\n  0x20\n    /* \"#utility.yul\":8384:8385   */\n  dup2\n    /* \"#utility.yul\":8380:8392   */\n  add\n    /* \"#utility.yul\":8375:8392   */\n  swap1\n  pop\n    /* \"#utility.yul\":8350:8558   */\n  jump(tag_153)\ntag_155:\n    /* \"#utility.yul\":8586:8592   */\n  dup7\n    /* \"#utility.yul\":8577:8584   */\n  dup4\n    /* \"#utility.yul\":8574:8593   */\n  lt\n    /* \"#utility.yul\":8571:8750   */\n  iszero\n  tag_156\n  jumpi\n    /* \"#utility.yul\":8644:8653   */\n  dup5\n    /* \"#utility.yul\":8639:8642   */\n  dup10\n    /* \"#utility.yul\":8635:8654   */\n  add\n    /* \"#utility.yul\":8629:8655   */\n  mload\n    /* \"#utility.yul\":8687:8735   */\n  tag_157\n    /* \"#utility.yul\":8729:8733   */\n  0x1f\n    /* \"#utility.yul\":8721:8727   */\n  dup10\n    /* \"#utility.yul\":8717:8734   */\n  and\n    /* \"#utility.yul\":8706:8715   */\n  dup3\n    /* \"#utility.yul\":8687:8735   */\n  tag_49\n  jump\t// in\ntag_157:\n    /* \"#utility.yul\":8679:8685   */\n  dup4\n    /* \"#utility.yul\":8672:8736   */\n  sstore\n    /* \"#utility.yul\":8594:8750   */\n  pop\n    /* \"#utility.yul\":8571:8750   */\ntag_156:\n    /* \"#utility.yul\":8796:8797   */\n  0x01\n    /* \"#utility.yul\":8792:8793   */\n  0x02\n    /* \"#utility.yul\":8784:8790   */\n  dup9\n    /* \"#utility.yul\":8780:8794   */\n  mul\n    /* \"#utility.yul\":8776:8798   */\n  add\n    /* \"#utility.yul\":8770:8774   */\n  dup9\n    /* \"#utility.yul\":8763:8799   */\n  sstore\n    /* \"#utility.yul\":8198:8809   */\n  pop\n  pop\n  pop\n    /* \"#utility.yul\":8161:9048   */\ntag_148:\n  pop\n    /* \"#utility.yul\":7751:9054   */\n  pop\n  pop\n  pop\n    /* \"#utility.yul\":7659:9054   */\n  pop\n  pop\n  jump\t// out\n    /* \"#utility.yul\":9060:9240   */\ntag_51:\n    /* \"#utility.yul\":9108:9185   */\n  0x4e487b7100000000000000000000000000000000000000000000000000000000\n    /* \"#utility.yul\":9105:9106   */\n  0x00\n    /* \"#utility.yul\":9098:9186   */\n  mstore\n    /* \"#utility.yul\":9205:9209   */\n  0x11\n    /* \"#utility.yul\":9202:9203   */\n  0x04\n    /* \"#utility.yul\":9195:9210   */\n  mstore\n    /* \"#utility.yul\":9229:9233   */\n  0x24\n    /* \"#utility.yul\":9226:9227   */\n  0x00\n    /* \"#utility.yul\":9219:9234   */\n  revert\n    /* \"#utility.yul\":9246:9656   */\ntag_10:\n    /* \"#utility.yul\":9286:9293   */\n  0x00\n    /* \"#utility.yul\":9309:9329   */\n  tag_160\n    /* \"#utility.yul\":9327:9328   */\n  dup3\n    /* \"#utility.yul\":9309:9329   */\n  tag_30\n  jump\t// in\ntag_160:\n    /* \"#utility.yul\":9304:9329   */\n  swap2\n  pop\n    /* \"#utility.yul\":9343:9363   */\n  tag_161\n    /* \"#utility.yul\":9361:9362   */\n  dup4\n    /* \"#utility.yul\":9343:9363   */\n  tag_30\n  jump\t// in\ntag_161:\n    /* \"#utility.yul\":9338:9363   */\n  swap3\n  pop\n    /* \"#utility.yul\":9398:9399   */\n  dup3\n    /* \"#utility.yul\":9395:9396   */\n  dup3\n    /* \"#utility.yul\":9391:9400   */\n  mul\n    /* \"#utility.yul\":9420:9450   */\n  tag_162\n    /* \"#utility.yul\":9438:9449   */\n  dup2\n    /* \"#utility.yul\":9420:9450   */\n  tag_30\n  jump\t// in\ntag_162:\n    /* \"#utility.yul\":9409:9450   */\n  swap2\n  pop\n    /* \"#utility.yul\":9599:9600   */\n  dup3\n    /* \"#utility.yul\":9590:9597   */\n  dup3\n    /* \"#utility.yul\":9586:9601   */\n  div\n    /* \"#utility.yul\":9583:9584   */\n  dup5\n    /* \"#utility.yul\":9580:9602   */\n  eq\n    /* \"#utility.yul\":9560:9561   */\n  dup4\n    /* \"#utility.yul\":9553:9562   */\n  iszero\n    /* \"#utility.yul\":9533:9616   */\n  or\n    /* \"#utility.yul\":9510:9649   */\n  tag_163\n  jumpi\n    /* \"#utility.yul\":9629:9647   */\n  tag_164\n  tag_51\n  jump\t// in\ntag_164:\n    /* \"#utility.yul\":9510:9649   */\ntag_163:\n    /* \"#utility.yul\":9294:9656   */\n  pop\n    /* \"#utility.yul\":9246:9656   */\n  swap3\n  swap2\n  pop\n  pop\n  jump\t// out\n    /* \"#utility.yul\":9662:9853   */\ntag_12:\n    /* \"#utility.yul\":9702:9705   */\n  0x00\n    /* \"#utility.yul\":9721:9741   */\n  tag_166\n    /* \"#utility.yul\":9739:9740   */\n  dup3\n    /* \"#utility.yul\":9721:9741   */\n  tag_30\n  jump\t// in\ntag_166:\n    /* \"#utility.yul\":9716:9741   */\n  swap2\n  pop\n    /* \"#utility.yul\":9755:9775   */\n  tag_167\n    /* \"#utility.yul\":9773:9774   */\n  dup4\n    /* \"#utility.yul\":9755:9775   */\n  tag_30\n  jump\t// in\ntag_167:\n    /* \"#utility.yul\":9750:9775   */\n  swap3\n  pop\n    /* \"#utility.yul\":9798:9799   */\n  dup3\n    /* \"#utility.yul\":9795:9796   */\n  dup3\n    /* \"#utility.yul\":9791:9800   */\n  add\n    /* \"#utility.yul\":9784:9800   */\n  swap1\n  pop\n    /* \"#utility.yul\":9819:9822   */\n  dup1\n    /* \"#utility.yul\":9816:9817   */\n  dup3\n    /* \"#utility.yul\":9813:9823   */\n  gt\n    /* \"#utility.yul\":9810:9846   */\n  iszero\n  tag_168\n  jumpi\n    /* \"#utility.yul\":9826:9844   */\n  tag_169\n  tag_51\n  jump\t// in\ntag_169:\n    /* \"#utility.yul\":9810:9846   */\ntag_168:\n    /* \"#utility.yul\":9662:9853   */\n  swap3\n  swap2\n  pop\n  pop\n  jump\t// out\n    /* \"#utility.yul\":9859:10039   */\ntag_15:\n    /* \"#utility.yul\":9907:9984   */\n  0x4e487b7100000000000000000000000000000000000000000000000000000000\n    /* \"#utility.yul\":9904:9905   */\n  0x00\n    /* \"#utility.yul\":9897:9985   */\n  mstore\n    /* \"#utility.yul\":10004:10008   */\n  0x21\n    /* \"#utility.yul\":10001:10002   */\n  0x04\n    /* \"#utility.yul\":9994:10009   */\n  mstore\n    /* \"#utility.yul\":10028:10032   */\n  0x24\n    /* \"#utility.yul\":10025:10026   */\n  0x00\n    /* \"#utility.yul\":10018:10033   */\n  revert\n    /* \"Crowdfunding.sol\":57:4136  contract Crowdfunding{... */\ntag_16:\n  dataSize(sub_0)\n  dup1\n  dataOffset(sub_0)\n  0x00\n  codecopy\n  0x00\n  return\nstop\n\nsub_0: assembly {\n        /* \"Crowdfunding.sol\":57:4136  contract Crowdfunding{... */\n      mstore(0x40, 0x80)\n      jumpi(tag_1, lt(calldatasize, 0x04))\n      shr(0xe0, calldataload(0x00))\n      dup1\n      0x7284e416\n      gt\n      tag_22\n      jumpi\n      dup1\n      0xb85dfb80\n      gt\n      tag_23\n      jumpi\n      dup1\n      0xb85dfb80\n      eq\n      tag_17\n      jumpi\n      dup1\n      0xc19d93fb\n      eq\n      tag_18\n      jumpi\n      dup1\n      0xc4ae3168\n      eq\n      tag_19\n      jumpi\n      dup1\n      0xca1d209d\n      eq\n      tag_20\n      jumpi\n      dup1\n      0xde170570\n      eq\n      tag_21\n      jumpi\n      jump(tag_1)\n    tag_23:\n      dup1\n      0x7284e416\n      eq\n      tag_12\n      jumpi\n      dup1\n      0x7497211b\n      eq\n      tag_13\n      jumpi\n      dup1\n      0x7adba527\n      eq\n      tag_14\n      jumpi\n      dup1\n      0x8da5cb5b\n      eq\n      tag_15\n      jumpi\n      dup1\n      0x8ece7b91\n      eq\n      tag_16\n      jumpi\n      jump(tag_1)\n    tag_22:\n      dup1\n      0x389b7533\n      gt\n      tag_24\n      jumpi\n      dup1\n      0x389b7533\n      eq\n      tag_7\n      jumpi\n      dup1\n      0x3ccfd60b\n      eq\n      tag_8\n      jumpi\n      dup1\n      0x40193883\n      eq\n      tag_9\n      jumpi\n      dup1\n      0x590e1ae3\n      eq\n      tag_10\n      jumpi\n      dup1\n      0x5c975abb\n      eq\n      tag_11\n      jumpi\n      jump(tag_1)\n    tag_24:\n      dup1\n      0x039af9eb\n      eq\n      tag_2\n      jumpi\n      dup1\n      0x06fdde03\n      eq\n      tag_3\n      jumpi\n      dup1\n      0x10550515\n      eq\n      tag_4\n      jumpi\n      dup1\n      0x12065fe0\n      eq\n      tag_5\n      jumpi\n      dup1\n      0x29dcb0cf\n      eq\n      tag_6\n      jumpi\n    tag_1:\n      0x00\n      dup1\n      revert\n        /* \"Crowdfunding.sol\":545:564  Tier[] public tiers */\n    tag_2:\n      callvalue\n      dup1\n      iszero\n      tag_25\n      jumpi\n      0x00\n      dup1\n      revert\n    tag_25:\n      pop\n      tag_26\n      0x04\n      dup1\n      calldatasize\n      sub\n      dup2\n      add\n      swap1\n      tag_27\n      swap2\n      swap1\n      tag_28\n      jump\t// in\n    tag_27:\n      tag_29\n      jump\t// in\n    tag_26:\n      mload(0x40)\n      tag_30\n      swap4\n      swap3\n      swap2\n      swap1\n      tag_31\n      jump\t// in\n    tag_30:\n      mload(0x40)\n      dup1\n      swap2\n      sub\n      swap1\n      return\n        /* \"Crowdfunding.sol\":84:102  string public name */\n    tag_3:\n      callvalue\n      dup1\n      iszero\n      tag_32\n      jumpi\n      0x00\n      dup1\n      revert\n    tag_32:\n      pop\n      tag_33\n      tag_34\n      jump\t// in\n    tag_33:\n      mload(0x40)\n      tag_35\n      swap2\n      swap1\n      tag_36\n      jump\t// in\n    tag_35:\n      mload(0x40)\n      dup1\n      swap2\n      sub\n      swap1\n      return\n        /* \"Crowdfunding.sol\":3734:4008  function getCampaignStatus() public view returns (CampaignState){... */\n    tag_4:\n      callvalue\n      dup1\n      iszero\n      tag_37\n      jumpi\n      0x00\n      dup1\n      revert\n    tag_37:\n      pop\n      tag_38\n      tag_39\n      jump\t// in\n    tag_38:\n      mload(0x40)\n      tag_40\n      swap2\n      swap1\n      tag_41\n      jump\t// in\n    tag_40:\n      mload(0x40)\n      dup1\n      swap2\n      sub\n      swap1\n      return\n        /* \"Crowdfunding.sol\":2933:3030  function getBalance() public view returns (uint256){... */\n    tag_5:\n      callvalue\n      dup1\n      iszero\n      tag_42\n      jumpi\n      0x00\n      dup1\n      revert\n    tag_42:\n      pop\n      tag_43\n      tag_44\n      jump\t// in\n    tag_43:\n      mload(0x40)\n      tag_45\n      swap2\n      swap1\n      tag_46\n      jump\t// in\n    tag_45:\n      mload(0x40)\n      dup1\n      swap2\n      sub\n      swap1\n      return\n        /* \"Crowdfunding.sol\":164:187  uint256 public deadline */\n    tag_6:\n      callvalue\n      dup1\n      iszero\n      tag_47\n      jumpi\n      0x00\n      dup1\n      revert\n    tag_47:\n      pop\n      tag_48\n      tag_49\n      jump\t// in\n    tag_48:\n      mload(0x40)\n      tag_50\n      swap2\n      swap1\n      tag_46\n      jump\t// in\n    tag_50:\n      mload(0x40)\n      dup1\n      swap2\n      sub\n      swap1\n      return\n        /* \"Crowdfunding.sol\":4014:4134  function extendDeadline(uint256 _daysToAdd) public OnlyOwner campainOpen {... */\n    tag_7:\n      callvalue\n      dup1\n      iszero\n      tag_51\n      jumpi\n      0x00\n      dup1\n      revert\n    tag_51:\n      pop\n      tag_52\n      0x04\n      dup1\n      calldatasize\n      sub\n      dup2\n      add\n      swap1\n      tag_53\n      swap2\n      swap1\n      tag_28\n      jump\t// in\n    tag_53:\n      tag_54\n      jump\t// in\n    tag_52:\n      stop\n        /* \"Crowdfunding.sol\":2478:2928  function withdraw() public OnlyOwner{... */\n    tag_8:\n      callvalue\n      dup1\n      iszero\n      tag_55\n      jumpi\n      0x00\n      dup1\n      revert\n    tag_55:\n      pop\n      tag_56\n      tag_57\n      jump\t// in\n    tag_56:\n      stop\n        /* \"Crowdfunding.sol\":139:158  uint256 public goal */\n    tag_9:\n      callvalue\n      dup1\n      iszero\n      tag_58\n      jumpi\n      0x00\n      dup1\n      revert\n    tag_58:\n      pop\n      tag_59\n      tag_60\n      jump\t// in\n    tag_59:\n      mload(0x40)\n      tag_61\n      swap2\n      swap1\n      tag_46\n      jump\t// in\n    tag_61:\n      mload(0x40)\n      dup1\n      swap2\n      sub\n      swap1\n      return\n        /* \"Crowdfunding.sol\":3035:3406  function refund() public {... */\n    tag_10:\n      callvalue\n      dup1\n      iszero\n      tag_62\n      jumpi\n      0x00\n      dup1\n      revert\n    tag_62:\n      pop\n      tag_63\n      tag_64\n      jump\t// in\n    tag_63:\n      stop\n        /* \"Crowdfunding.sol\":219:237  bool public paused */\n    tag_11:\n      callvalue\n      dup1\n      iszero\n      tag_65\n      jumpi\n      0x00\n      dup1\n      revert\n    tag_65:\n      pop\n      tag_66\n      tag_67\n      jump\t// in\n    tag_66:\n      mload(0x40)\n      tag_68\n      swap2\n      swap1\n      tag_69\n      jump\t// in\n    tag_68:\n      mload(0x40)\n      dup1\n      swap2\n      sub\n      swap1\n      return\n        /* \"Crowdfunding.sol\":108:133  string public description */\n    tag_12:\n      callvalue\n      dup1\n      iszero\n      tag_70\n      jumpi\n      0x00\n      dup1\n      revert\n    tag_70:\n      pop\n      tag_71\n      tag_72\n      jump\t// in\n    tag_71:\n      mload(0x40)\n      tag_73\n      swap2\n      swap1\n      tag_36\n      jump\t// in\n    tag_73:\n      mload(0x40)\n      dup1\n      swap2\n      sub\n      swap1\n      return\n        /* \"Crowdfunding.sol\":2290:2468  function removeTier(uint256 _index) public {... */\n    tag_13:\n      callvalue\n      dup1\n      iszero\n      tag_74\n      jumpi\n      0x00\n      dup1\n      revert\n    tag_74:\n      pop\n      tag_75\n      0x04\n      dup1\n      calldatasize\n      sub\n      dup2\n      add\n      swap1\n      tag_76\n      swap2\n      swap1\n      tag_28\n      jump\t// in\n    tag_76:\n      tag_77\n      jump\t// in\n    tag_75:\n      stop\n        /* \"Crowdfunding.sol\":3411:3561  function hasFundedTier(address _backer, uint256 _tierIndex) public view returns (bool){... */\n    tag_14:\n      callvalue\n      dup1\n      iszero\n      tag_78\n      jumpi\n      0x00\n      dup1\n      revert\n    tag_78:\n      pop\n      tag_79\n      0x04\n      dup1\n      calldatasize\n      sub\n      dup2\n      add\n      swap1\n      tag_80\n      swap2\n      swap1\n      tag_81\n      jump\t// in\n    tag_80:\n      tag_82\n      jump\t// in\n    tag_79:\n      mload(0x40)\n      tag_83\n      swap2\n      swap1\n      tag_69\n      jump\t// in\n    tag_83:\n      mload(0x40)\n      dup1\n      swap2\n      sub\n      swap1\n      return\n        /* \"Crowdfunding.sol\":193:213  address public owner */\n    tag_15:\n      callvalue\n      dup1\n      iszero\n      tag_84\n      jumpi\n      0x00\n      dup1\n      revert\n    tag_84:\n      pop\n      tag_85\n      tag_86\n      jump\t// in\n    tag_85:\n      mload(0x40)\n      tag_87\n      swap2\n      swap1\n      tag_88\n      jump\t// in\n    tag_87:\n      mload(0x40)\n      dup1\n      swap2\n      sub\n      swap1\n      return\n        /* \"Crowdfunding.sol\":2073:2284  function addTier(... */\n    tag_16:\n      callvalue\n      dup1\n      iszero\n      tag_89\n      jumpi\n      0x00\n      dup1\n      revert\n    tag_89:\n      pop\n      tag_90\n      0x04\n      dup1\n      calldatasize\n      sub\n      dup2\n      add\n      swap1\n      tag_91\n      swap2\n      swap1\n      tag_92\n      jump\t// in\n    tag_91:\n      tag_93\n      jump\t// in\n    tag_90:\n      stop\n        /* \"Crowdfunding.sol\":570:612  mapping (address => Backer) public backers */\n    tag_17:\n      callvalue\n      dup1\n      iszero\n      tag_94\n      jumpi\n      0x00\n      dup1\n      revert\n    tag_94:\n      pop\n      tag_95\n      0x04\n      dup1\n      calldatasize\n      sub\n      dup2\n      add\n      swap1\n      tag_96\n      swap2\n      swap1\n      tag_97\n      jump\t// in\n    tag_96:\n      tag_98\n      jump\t// in\n    tag_95:\n      mload(0x40)\n      tag_99\n      swap2\n      swap1\n      tag_46\n      jump\t// in\n    tag_99:\n      mload(0x40)\n      dup1\n      swap2\n      sub\n      swap1\n      return\n        /* \"Crowdfunding.sol\":296:322  CampaignState public state */\n    tag_18:\n      callvalue\n      dup1\n      iszero\n      tag_100\n      jumpi\n      0x00\n      dup1\n      revert\n    tag_100:\n      pop\n      tag_101\n      tag_102\n      jump\t// in\n    tag_101:\n      mload(0x40)\n      tag_103\n      swap2\n      swap1\n      tag_41\n      jump\t// in\n    tag_103:\n      mload(0x40)\n      dup1\n      swap2\n      sub\n      swap1\n      return\n        /* \"Crowdfunding.sol\":3656:3729  function togglePause() public OnlyOwner{... */\n    tag_19:\n      callvalue\n      dup1\n      iszero\n      tag_104\n      jumpi\n      0x00\n      dup1\n      revert\n    tag_104:\n      pop\n      tag_105\n      tag_106\n      jump\t// in\n    tag_105:\n      stop\n        /* \"Crowdfunding.sol\":1664:2067  function fund(uint256 _tierIndex) public payable campainOpen notPaused{... */\n    tag_20:\n      tag_107\n      0x04\n      dup1\n      calldatasize\n      sub\n      dup2\n      add\n      swap1\n      tag_108\n      swap2\n      swap1\n      tag_28\n      jump\t// in\n    tag_108:\n      tag_109\n      jump\t// in\n    tag_107:\n      stop\n        /* \"Crowdfunding.sol\":3566:3650  function getTiers() public view returns (Tier[] memory){... */\n    tag_21:\n      callvalue\n      dup1\n      iszero\n      tag_110\n      jumpi\n      0x00\n      dup1\n      revert\n    tag_110:\n      pop\n      tag_111\n      tag_112\n      jump\t// in\n    tag_111:\n      mload(0x40)\n      tag_113\n      swap2\n      swap1\n      tag_114\n      jump\t// in\n    tag_113:\n      mload(0x40)\n      dup1\n      swap2\n      sub\n      swap1\n      return\n        /* \"Crowdfunding.sol\":545:564  Tier[] public tiers */\n    tag_29:\n      0x05\n      dup2\n      dup2\n      sload\n      dup2\n      lt\n      tag_115\n      jumpi\n      0x00\n      dup1\n      revert\n    tag_115:\n      swap1\n      0x00\n      mstore\n      keccak256(0x00, 0x20)\n      swap1\n      0x03\n      mul\n      add\n      0x00\n      swap2\n      pop\n      swap1\n      pop\n      dup1\n      0x00\n      add\n      dup1\n      sload\n      tag_117\n      swap1\n      tag_118\n      jump\t// in\n    tag_117:\n      dup1\n      0x1f\n      add\n      0x20\n      dup1\n      swap2\n      div\n      mul\n      0x20\n      add\n      mload(0x40)\n      swap1\n      dup2\n      add\n      0x40\n      mstore\n      dup1\n      swap3\n      swap2\n      swap1\n      dup2\n      dup2\n      mstore\n      0x20\n      add\n      dup3\n      dup1\n      sload\n      tag_119\n      swap1\n      tag_118\n      jump\t// in\n    tag_119:\n      dup1\n      iszero\n      tag_120\n      jumpi\n      dup1\n      0x1f\n      lt\n      tag_121\n      jumpi\n      0x0100\n      dup1\n      dup4\n      sload\n      div\n      mul\n      dup4\n      mstore\n      swap2\n      0x20\n      add\n      swap2\n      jump(tag_120)\n    tag_121:\n      dup3\n      add\n      swap2\n      swap1\n      0x00\n      mstore\n      keccak256(0x00, 0x20)\n      swap1\n    tag_122:\n      dup2\n      sload\n      dup2\n      mstore\n      swap1\n      0x01\n      add\n      swap1\n      0x20\n      add\n      dup1\n      dup4\n      gt\n      tag_122\n      jumpi\n      dup3\n      swap1\n      sub\n      0x1f\n      and\n      dup3\n      add\n      swap2\n    tag_120:\n      pop\n      pop\n      pop\n      pop\n      pop\n      swap1\n      dup1\n      0x01\n      add\n      sload\n      swap1\n      dup1\n      0x02\n      add\n      sload\n      swap1\n      pop\n      dup4\n      jump\t// out\n        /* \"Crowdfunding.sol\":84:102  string public name */\n    tag_34:\n      0x00\n      dup1\n      sload\n      tag_123\n      swap1\n      tag_118\n      jump\t// in\n    tag_123:\n      dup1\n      0x1f\n      add\n      0x20\n      dup1\n      swap2\n      div\n      mul\n      0x20\n      add\n      mload(0x40)\n      swap1\n      dup2\n      add\n      0x40\n      mstore\n      dup1\n      swap3\n      swap2\n      swap1\n      dup2\n      dup2\n      mstore\n      0x20\n      add\n      dup3\n      dup1\n      sload\n      tag_124\n      swap1\n      tag_118\n      jump\t// in\n    tag_124:\n      dup1\n      iszero\n      tag_125\n      jumpi\n      dup1\n      0x1f\n      lt\n      tag_126\n      jumpi\n      0x0100\n      dup1\n      dup4\n      sload\n      div\n      mul\n      dup4\n      mstore\n      swap2\n      0x20\n      add\n      swap2\n      jump(tag_125)\n    tag_126:\n      dup3\n      add\n      swap2\n      swap1\n      0x00\n      mstore\n      keccak256(0x00, 0x20)\n      swap1\n    tag_127:\n      dup2\n      sload\n      dup2\n      mstore\n      swap1\n      0x01\n      add\n      swap1\n      0x20\n      add\n      dup1\n      dup4\n      gt\n      tag_127\n      jumpi\n      dup3\n      swap1\n      sub\n      0x1f\n      and\n      dup3\n      add\n      swap2\n    tag_125:\n      pop\n      pop\n      pop\n      pop\n      pop\n      dup2\n      jump\t// out\n        /* \"Crowdfunding.sol\":3734:4008  function getCampaignStatus() public view returns (CampaignState){... */\n    tag_39:\n        /* \"Crowdfunding.sol\":3784:3797  CampaignState */\n      0x00\n        /* \"Crowdfunding.sol\":3821:3841  CampaignState.Active */\n      dup1\n        /* \"Crowdfunding.sol\":3812:3841  state == CampaignState.Active */\n      0x02\n      dup2\n      gt\n      iszero\n      tag_129\n      jumpi\n      tag_130\n      tag_131\n      jump\t// in\n    tag_130:\n    tag_129:\n        /* \"Crowdfunding.sol\":3812:3817  state */\n      0x04\n      0x15\n      swap1\n      sload\n      swap1\n      0x0100\n      exp\n      swap1\n      div\n      0xff\n      and\n        /* \"Crowdfunding.sol\":3812:3841  state == CampaignState.Active */\n      0x02\n      dup2\n      gt\n      iszero\n      tag_132\n      jumpi\n      tag_133\n      tag_131\n      jump\t// in\n    tag_133:\n    tag_132:\n      eq\n        /* \"Crowdfunding.sol\":3812:3869  state == CampaignState.Active && block.timestamp>deadline */\n      dup1\n      iszero\n      tag_134\n      jumpi\n      pop\n        /* \"Crowdfunding.sol\":3861:3869  deadline */\n      sload(0x03)\n        /* \"Crowdfunding.sol\":3845:3860  block.timestamp */\n      timestamp\n        /* \"Crowdfunding.sol\":3845:3869  block.timestamp>deadline */\n      gt\n        /* \"Crowdfunding.sol\":3812:3869  state == CampaignState.Active && block.timestamp>deadline */\n    tag_134:\n        /* \"Crowdfunding.sol\":3808:3980  if (state == CampaignState.Active && block.timestamp>deadline){... */\n      iszero\n      tag_135\n      jumpi\n        /* \"Crowdfunding.sol\":3916:3920  goal */\n      sload(0x02)\n        /* \"Crowdfunding.sol\":3891:3912  address(this).balance */\n      selfbalance\n        /* \"Crowdfunding.sol\":3891:3920  address(this).balance >= goal */\n      lt\n      iszero\n        /* \"Crowdfunding.sol\":3891:3969  address(this).balance >= goal ? CampaignState.Sucessful : CampaignState.Failed */\n      tag_136\n      jumpi\n        /* \"Crowdfunding.sol\":3949:3969  CampaignState.Failed */\n      0x02\n        /* \"Crowdfunding.sol\":3891:3969  address(this).balance >= goal ? CampaignState.Sucessful : CampaignState.Failed */\n      jump(tag_137)\n    tag_136:\n        /* \"Crowdfunding.sol\":3923:3946  CampaignState.Sucessful */\n      0x01\n        /* \"Crowdfunding.sol\":3891:3969  address(this).balance >= goal ? CampaignState.Sucessful : CampaignState.Failed */\n    tag_137:\n        /* \"Crowdfunding.sol\":3884:3969  return address(this).balance >= goal ? CampaignState.Sucessful : CampaignState.Failed */\n      swap1\n      pop\n      jump(tag_128)\n        /* \"Crowdfunding.sol\":3808:3980  if (state == CampaignState.Active && block.timestamp>deadline){... */\n    tag_135:\n        /* \"Crowdfunding.sol\":3996:4001  state */\n      0x04\n      0x15\n      swap1\n      sload\n      swap1\n      0x0100\n      exp\n      swap1\n      div\n      0xff\n      and\n        /* \"Crowdfunding.sol\":3989:4001  return state */\n      swap1\n      pop\n        /* \"Crowdfunding.sol\":3734:4008  function getCampaignStatus() public view returns (CampaignState){... */\n    tag_128:\n      swap1\n      jump\t// out\n        /* \"Crowdfunding.sol\":2933:3030  function getBalance() public view returns (uint256){... */\n    tag_44:\n        /* \"Crowdfunding.sol\":2976:2983  uint256 */\n      0x00\n        /* \"Crowdfunding.sol\":3001:3022  address(this).balance */\n      selfbalance\n        /* \"Crowdfunding.sol\":2994:3022  return address(this).balance */\n      swap1\n      pop\n        /* \"Crowdfunding.sol\":2933:3030  function getBalance() public view returns (uint256){... */\n      swap1\n      jump\t// out\n        /* \"Crowdfunding.sol\":164:187  uint256 public deadline */\n    tag_49:\n      sload(0x03)\n      dup2\n      jump\t// out\n        /* \"Crowdfunding.sol\":4014:4134  function extendDeadline(uint256 _daysToAdd) public OnlyOwner campainOpen {... */\n    tag_54:\n        /* \"Crowdfunding.sol\":673:678  owner */\n      0x04\n      0x00\n      swap1\n      sload\n      swap1\n      0x0100\n      exp\n      swap1\n      div\n      0xffffffffffffffffffffffffffffffffffffffff\n      and\n        /* \"Crowdfunding.sol\":659:678  msg.sender == owner */\n      0xffffffffffffffffffffffffffffffffffffffff\n      and\n        /* \"Crowdfunding.sol\":659:669  msg.sender */\n      caller\n        /* \"Crowdfunding.sol\":659:678  msg.sender == owner */\n      0xffffffffffffffffffffffffffffffffffffffff\n      and\n      eq\n        /* \"Crowdfunding.sol\":650:695  require (msg.sender == owner,\"Not the Owner\") */\n      tag_140\n      jumpi\n      mload(0x40)\n      0x08c379a000000000000000000000000000000000000000000000000000000000\n      dup2\n      mstore\n      0x04\n      add\n      tag_141\n      swap1\n      tag_142\n      jump\t// in\n    tag_141:\n      mload(0x40)\n      dup1\n      swap2\n      sub\n      swap1\n      revert\n    tag_140:\n        /* \"Crowdfunding.sol\":865:885  CampaignState.Active */\n      0x00\n        /* \"Crowdfunding.sol\":856:885  state == CampaignState.Active */\n      0x02\n      dup2\n      gt\n      iszero\n      tag_144\n      jumpi\n      tag_145\n      tag_131\n      jump\t// in\n    tag_145:\n    tag_144:\n        /* \"Crowdfunding.sol\":856:861  state */\n      0x04\n      0x15\n      swap1\n      sload\n      swap1\n      0x0100\n      exp\n      swap1\n      div\n      0xff\n      and\n        /* \"Crowdfunding.sol\":856:885  state == CampaignState.Active */\n      0x02\n      dup2\n      gt\n      iszero\n      tag_146\n      jumpi\n      tag_147\n      tag_131\n      jump\t// in\n    tag_147:\n    tag_146:\n      eq\n        /* \"Crowdfunding.sol\":848:911  require(state == CampaignState.Active, \"Campain is Not Active\") */\n      tag_148\n      jumpi\n      mload(0x40)\n      0x08c379a000000000000000000000000000000000000000000000000000000000\n      dup2\n      mstore\n      0x04\n      add\n      tag_149\n      swap1\n      tag_150\n      jump\t// in\n    tag_149:\n      mload(0x40)\n      dup1\n      swap2\n      sub\n      swap1\n      revert\n    tag_148:\n        /* \"Crowdfunding.sol\":4121:4127  1 days */\n      0x015180\n        /* \"Crowdfunding.sol\":4108:4118  _daysToAdd */\n      dup2\n        /* \"Crowdfunding.sol\":4108:4127  _daysToAdd + 1 days */\n      tag_152\n      swap2\n      swap1\n      tag_153\n      jump\t// in\n    tag_152:\n        /* \"Crowdfunding.sol\":4097:4105  deadline */\n      0x03\n      0x00\n        /* \"Crowdfunding.sol\":4097:4127  deadline+= _daysToAdd + 1 days */\n      dup3\n      dup3\n      sload\n      tag_154\n      swap2\n      swap1\n      tag_153\n      jump\t// in\n    tag_154:\n      swap3\n      pop\n      pop\n      dup2\n      swap1\n      sstore\n      pop\n        /* \"Crowdfunding.sol\":4014:4134  function extendDeadline(uint256 _daysToAdd) public OnlyOwner campainOpen {... */\n      pop\n      jump\t// out\n        /* \"Crowdfunding.sol\":2478:2928  function withdraw() public OnlyOwner{... */\n    tag_57:\n        /* \"Crowdfunding.sol\":673:678  owner */\n      0x04\n      0x00\n      swap1\n      sload\n      swap1\n      0x0100\n      exp\n      swap1\n      div\n      0xffffffffffffffffffffffffffffffffffffffff\n      and\n        /* \"Crowdfunding.sol\":659:678  msg.sender == owner */\n      0xffffffffffffffffffffffffffffffffffffffff\n      and\n        /* \"Crowdfunding.sol\":659:669  msg.sender */\n      caller\n        /* \"Crowdfunding.sol\":659:678  msg.sender == owner */\n      0xffffffffffffffffffffffffffffffffffffffff\n      and\n      eq\n        /* \"Crowdfunding.sol\":650:695  require (msg.sender == owner,\"Not the Owner\") */\n      tag_156\n      jumpi\n      mload(0x40)\n      0x08c379a000000000000000000000000000000000000000000000000000000000\n      dup2\n      mstore\n      0x04\n      add\n      tag_157\n      swap1\n      tag_142\n      jump\t// in\n    tag_157:\n      mload(0x40)\n      dup1\n      swap2\n      sub\n      swap1\n      revert\n    tag_156:\n        /* \"Crowdfunding.sol\":2661:2690  checkAndUpdateCampaignState() */\n      tag_159\n        /* \"Crowdfunding.sol\":2661:2688  checkAndUpdateCampaignState */\n      tag_160\n        /* \"Crowdfunding.sol\":2661:2690  checkAndUpdateCampaignState() */\n      jump\t// in\n    tag_159:\n        /* \"Crowdfunding.sol\":2717:2740  CampaignState.Sucessful */\n      0x01\n        /* \"Crowdfunding.sol\":2708:2740  state == CampaignState.Sucessful */\n      0x02\n      dup2\n      gt\n      iszero\n      tag_161\n      jumpi\n      tag_162\n      tag_131\n      jump\t// in\n    tag_162:\n    tag_161:\n        /* \"Crowdfunding.sol\":2708:2713  state */\n      0x04\n      0x15\n      swap1\n      sload\n      swap1\n      0x0100\n      exp\n      swap1\n      div\n      0xff\n      and\n        /* \"Crowdfunding.sol\":2708:2740  state == CampaignState.Sucessful */\n      0x02\n      dup2\n      gt\n      iszero\n      tag_163\n      jumpi\n      tag_164\n      tag_131\n      jump\t// in\n    tag_164:\n    tag_163:\n      eq\n        /* \"Crowdfunding.sol\":2700:2766  require(state == CampaignState.Sucessful, \"Campain not sucessful\") */\n      tag_165\n      jumpi\n      mload(0x40)\n      0x08c379a000000000000000000000000000000000000000000000000000000000\n      dup2\n      mstore\n      0x04\n      add\n      tag_166\n      swap1\n      tag_167\n      jump\t// in\n    tag_166:\n      mload(0x40)\n      dup1\n      swap2\n      sub\n      swap1\n      revert\n    tag_165:\n        /* \"Crowdfunding.sol\":2778:2793  uint256 balance */\n      0x00\n        /* \"Crowdfunding.sol\":2796:2817  address(this).balance */\n      selfbalance\n        /* \"Crowdfunding.sol\":2778:2817  uint256 balance = address(this).balance */\n      swap1\n      pop\n        /* \"Crowdfunding.sol\":2843:2844  0 */\n      0x00\n        /* \"Crowdfunding.sol\":2835:2842  balance */\n      dup2\n        /* \"Crowdfunding.sol\":2835:2844  balance>0 */\n      gt\n        /* \"Crowdfunding.sol\":2827:2870  require(balance>0,\"No balance to withdraw\") */\n      tag_168\n      jumpi\n      mload(0x40)\n      0x08c379a000000000000000000000000000000000000000000000000000000000\n      dup2\n      mstore\n      0x04\n      add\n      tag_169\n      swap1\n      tag_170\n      jump\t// in\n    tag_169:\n      mload(0x40)\n      dup1\n      swap2\n      sub\n      swap1\n      revert\n    tag_168:\n        /* \"Crowdfunding.sol\":2897:2902  owner */\n      0x04\n      0x00\n      swap1\n      sload\n      swap1\n      0x0100\n      exp\n      swap1\n      div\n      0xffffffffffffffffffffffffffffffffffffffff\n      and\n        /* \"Crowdfunding.sol\":2889:2912  payable(owner).transfer */\n      0xffffffffffffffffffffffffffffffffffffffff\n      and\n        /* \"Crowdfunding.sol\":2889:2921  payable(owner).transfer(balance) */\n      0x08fc\n        /* \"Crowdfunding.sol\":2913:2920  balance */\n      dup3\n        /* \"Crowdfunding.sol\":2889:2921  payable(owner).transfer(balance) */\n      swap1\n      dup2\n      iszero\n      mul\n      swap1\n      mload(0x40)\n      0x00\n      mload(0x40)\n      dup1\n      dup4\n      sub\n      dup2\n      dup6\n      dup9\n      dup9\n      call\n      swap4\n      pop\n      pop\n      pop\n      pop\n      iszero\n      dup1\n      iszero\n      tag_172\n      jumpi\n      returndatasize\n      0x00\n      dup1\n      returndatacopy\n      revert(0x00, returndatasize)\n    tag_172:\n      pop\n        /* \"Crowdfunding.sol\":2514:2928  {... */\n      pop\n        /* \"Crowdfunding.sol\":2478:2928  function withdraw() public OnlyOwner{... */\n      jump\t// out\n        /* \"Crowdfunding.sol\":139:158  uint256 public goal */\n    tag_60:\n      sload(0x02)\n      dup2\n      jump\t// out\n        /* \"Crowdfunding.sol\":3035:3406  function refund() public {... */\n    tag_64:\n        /* \"Crowdfunding.sol\":3070:3099  checkAndUpdateCampaignState() */\n      tag_174\n        /* \"Crowdfunding.sol\":3070:3097  checkAndUpdateCampaignState */\n      tag_160\n        /* \"Crowdfunding.sol\":3070:3099  checkAndUpdateCampaignState() */\n      jump\t// in\n    tag_174:\n        /* \"Crowdfunding.sol\":3181:3195  uint256 amount */\n      0x00\n        /* \"Crowdfunding.sol\":3198:3205  backers */\n      0x06\n        /* \"Crowdfunding.sol\":3198:3217  backers[msg.sender] */\n      0x00\n        /* \"Crowdfunding.sol\":3206:3216  msg.sender */\n      caller\n        /* \"Crowdfunding.sol\":3198:3217  backers[msg.sender] */\n      0xffffffffffffffffffffffffffffffffffffffff\n      and\n      0xffffffffffffffffffffffffffffffffffffffff\n      and\n      dup2\n      mstore\n      0x20\n      add\n      swap1\n      dup2\n      mstore\n      0x20\n      add\n      0x00\n      keccak256\n        /* \"Crowdfunding.sol\":3198:3235  backers[msg.sender].totalContribution */\n      0x00\n      add\n      sload\n        /* \"Crowdfunding.sol\":3181:3235  uint256 amount = backers[msg.sender].totalContribution */\n      swap1\n      pop\n        /* \"Crowdfunding.sol\":3260:3261  0 */\n      0x00\n        /* \"Crowdfunding.sol\":3253:3259  amount */\n      dup2\n        /* \"Crowdfunding.sol\":3253:3261  amount>0 */\n      gt\n        /* \"Crowdfunding.sol\":3245:3302  require(amount>0, \"You already Caimed your contribution\") */\n      tag_175\n      jumpi\n      mload(0x40)\n      0x08c379a000000000000000000000000000000000000000000000000000000000\n      dup2\n      mstore\n      0x04\n      add\n      tag_176\n      swap1\n      tag_177\n      jump\t// in\n    tag_176:\n      mload(0x40)\n      dup1\n      swap2\n      sub\n      swap1\n      revert\n    tag_175:\n        /* \"Crowdfunding.sol\":3352:3353  0 */\n      0x00\n        /* \"Crowdfunding.sol\":3312:3319  backers */\n      0x06\n        /* \"Crowdfunding.sol\":3312:3331  backers[msg.sender] */\n      0x00\n        /* \"Crowdfunding.sol\":3320:3330  msg.sender */\n      caller\n        /* \"Crowdfunding.sol\":3312:3331  backers[msg.sender] */\n      0xffffffffffffffffffffffffffffffffffffffff\n      and\n      0xffffffffffffffffffffffffffffffffffffffff\n      and\n      dup2\n      mstore\n      0x20\n      add\n      swap1\n      dup2\n      mstore\n      0x20\n      add\n      0x00\n      keccak256\n        /* \"Crowdfunding.sol\":3312:3349  backers[msg.sender].totalContribution */\n      0x00\n      add\n        /* \"Crowdfunding.sol\":3312:3353  backers[msg.sender].totalContribution = 0 */\n      dup2\n      swap1\n      sstore\n      pop\n        /* \"Crowdfunding.sol\":3371:3381  msg.sender */\n      caller\n        /* \"Crowdfunding.sol\":3363:3391  payable(msg.sender).transfer */\n      0xffffffffffffffffffffffffffffffffffffffff\n      and\n        /* \"Crowdfunding.sol\":3363:3399  payable(msg.sender).transfer(amount) */\n      0x08fc\n        /* \"Crowdfunding.sol\":3392:3398  amount */\n      dup3\n        /* \"Crowdfunding.sol\":3363:3399  payable(msg.sender).transfer(amount) */\n      swap1\n      dup2\n      iszero\n      mul\n      swap1\n      mload(0x40)\n      0x00\n      mload(0x40)\n      dup1\n      dup4\n      sub\n      dup2\n      dup6\n      dup9\n      dup9\n      call\n      swap4\n      pop\n      pop\n      pop\n      pop\n      iszero\n      dup1\n      iszero\n      tag_179\n      jumpi\n      returndatasize\n      0x00\n      dup1\n      returndatacopy\n      revert(0x00, returndatasize)\n    tag_179:\n      pop\n        /* \"Crowdfunding.sol\":3060:3406  {... */\n      pop\n        /* \"Crowdfunding.sol\":3035:3406  function refund() public {... */\n      jump\t// out\n        /* \"Crowdfunding.sol\":219:237  bool public paused */\n    tag_67:\n      0x04\n      0x14\n      swap1\n      sload\n      swap1\n      0x0100\n      exp\n      swap1\n      div\n      0xff\n      and\n      dup2\n      jump\t// out\n        /* \"Crowdfunding.sol\":108:133  string public description */\n    tag_72:\n      0x01\n      dup1\n      sload\n      tag_180\n      swap1\n      tag_118\n      jump\t// in\n    tag_180:\n      dup1\n      0x1f\n      add\n      0x20\n      dup1\n      swap2\n      div\n      mul\n      0x20\n      add\n      mload(0x40)\n      swap1\n      dup2\n      add\n      0x40\n      mstore\n      dup1\n      swap3\n      swap2\n      swap1\n      dup2\n      dup2\n      mstore\n      0x20\n      add\n      dup3\n      dup1\n      sload\n      tag_181\n      swap1\n      tag_118\n      jump\t// in\n    tag_181:\n      dup1\n      iszero\n      tag_182\n      jumpi\n      dup1\n      0x1f\n      lt\n      tag_183\n      jumpi\n      0x0100\n      dup1\n      dup4\n      sload\n      div\n      mul\n      dup4\n      mstore\n      swap2\n      0x20\n      add\n      swap2\n      jump(tag_182)\n    tag_183:\n      dup3\n      add\n      swap2\n      swap1\n      0x00\n      mstore\n      keccak256(0x00, 0x20)\n      swap1\n    tag_184:\n      dup2\n      sload\n      dup2\n      mstore\n      swap1\n      0x01\n      add\n      swap1\n      0x20\n      add\n      dup1\n      dup4\n      gt\n      tag_184\n      jumpi\n      dup3\n      swap1\n      sub\n      0x1f\n      and\n      dup3\n      add\n      swap2\n    tag_182:\n      pop\n      pop\n      pop\n      pop\n      pop\n      dup2\n      jump\t// out\n        /* \"Crowdfunding.sol\":2290:2468  function removeTier(uint256 _index) public {... */\n    tag_77:\n        /* \"Crowdfunding.sol\":2358:2363  tiers */\n      0x05\n        /* \"Crowdfunding.sol\":2358:2370  tiers.length */\n      dup1\n      sload\n      swap1\n      pop\n        /* \"Crowdfunding.sol\":2351:2357  _index */\n      dup2\n        /* \"Crowdfunding.sol\":2351:2370  _index<tiers.length */\n      lt\n        /* \"Crowdfunding.sol\":2343:2393  require(_index<tiers.length, \"Tier doesn't exist\") */\n      tag_186\n      jumpi\n      mload(0x40)\n      0x08c379a000000000000000000000000000000000000000000000000000000000\n      dup2\n      mstore\n      0x04\n      add\n      tag_187\n      swap1\n      tag_188\n      jump\t// in\n    tag_187:\n      mload(0x40)\n      dup1\n      swap2\n      sub\n      swap1\n      revert\n    tag_186:\n        /* \"Crowdfunding.sol\":2419:2424  tiers */\n      0x05\n        /* \"Crowdfunding.sol\":2438:2439  1 */\n      0x01\n        /* \"Crowdfunding.sol\":2425:2430  tiers */\n      0x05\n        /* \"Crowdfunding.sol\":2425:2437  tiers.length */\n      dup1\n      sload\n      swap1\n      pop\n        /* \"Crowdfunding.sol\":2425:2439  tiers.length-1 */\n      tag_189\n      swap2\n      swap1\n      tag_190\n      jump\t// in\n    tag_189:\n        /* \"Crowdfunding.sol\":2419:2440  tiers[tiers.length-1] */\n      dup2\n      sload\n      dup2\n      lt\n      tag_191\n      jumpi\n      tag_192\n      tag_193\n      jump\t// in\n    tag_192:\n    tag_191:\n      swap1\n      0x00\n      mstore\n      keccak256(0x00, 0x20)\n      swap1\n      0x03\n      mul\n      add\n        /* \"Crowdfunding.sol\":2403:2408  tiers */\n      0x05\n        /* \"Crowdfunding.sol\":2409:2415  _index */\n      dup3\n        /* \"Crowdfunding.sol\":2403:2416  tiers[_index] */\n      dup2\n      sload\n      dup2\n      lt\n      tag_195\n      jumpi\n      tag_196\n      tag_193\n      jump\t// in\n    tag_196:\n    tag_195:\n      swap1\n      0x00\n      mstore\n      keccak256(0x00, 0x20)\n      swap1\n      0x03\n      mul\n      add\n        /* \"Crowdfunding.sol\":2403:2440  tiers[_index] = tiers[tiers.length-1] */\n      0x00\n      dup3\n      add\n      dup2\n      0x00\n      add\n      swap1\n      dup2\n      tag_198\n      swap2\n      swap1\n      tag_199\n      jump\t// in\n    tag_198:\n      pop\n      0x01\n      dup3\n      add\n      sload\n      dup2\n      0x01\n      add\n      sstore\n      0x02\n      dup3\n      add\n      sload\n      dup2\n      0x02\n      add\n      sstore\n      swap1\n      pop\n      pop\n        /* \"Crowdfunding.sol\":2450:2455  tiers */\n      0x05\n        /* \"Crowdfunding.sol\":2450:2461  tiers.pop() */\n      dup1\n      sload\n      dup1\n      tag_200\n      jumpi\n      tag_201\n      tag_202\n      jump\t// in\n    tag_201:\n    tag_200:\n      0x01\n      swap1\n      sub\n      dup2\n      dup2\n      swap1\n      0x00\n      mstore\n      keccak256(0x00, 0x20)\n      swap1\n      0x03\n      mul\n      add\n      0x00\n      dup1\n      dup3\n      add\n      0x00\n      tag_204\n      swap2\n      swap1\n      tag_205\n      jump\t// in\n    tag_204:\n      0x01\n      dup3\n      add\n      0x00\n      swap1\n      sstore\n      0x02\n      dup3\n      add\n      0x00\n      swap1\n      sstore\n      pop\n      pop\n      swap1\n      sstore\n        /* \"Crowdfunding.sol\":2290:2468  function removeTier(uint256 _index) public {... */\n      pop\n      jump\t// out\n        /* \"Crowdfunding.sol\":3411:3561  function hasFundedTier(address _backer, uint256 _tierIndex) public view returns (bool){... */\n    tag_82:\n        /* \"Crowdfunding.sol\":3492:3496  bool */\n      0x00\n        /* \"Crowdfunding.sol\":3514:3521  backers */\n      0x06\n        /* \"Crowdfunding.sol\":3514:3530  backers[_backer] */\n      0x00\n        /* \"Crowdfunding.sol\":3522:3529  _backer */\n      dup5\n        /* \"Crowdfunding.sol\":3514:3530  backers[_backer] */\n      0xffffffffffffffffffffffffffffffffffffffff\n      and\n      0xffffffffffffffffffffffffffffffffffffffff\n      and\n      dup2\n      mstore\n      0x20\n      add\n      swap1\n      dup2\n      mstore\n      0x20\n      add\n      0x00\n      keccak256\n        /* \"Crowdfunding.sol\":3514:3542  backers[_backer].fundedTiers */\n      0x01\n      add\n        /* \"Crowdfunding.sol\":3514:3554  backers[_backer].fundedTiers[_tierIndex] */\n      0x00\n        /* \"Crowdfunding.sol\":3543:3553  _tierIndex */\n      dup4\n        /* \"Crowdfunding.sol\":3514:3554  backers[_backer].fundedTiers[_tierIndex] */\n      dup2\n      mstore\n      0x20\n      add\n      swap1\n      dup2\n      mstore\n      0x20\n      add\n      0x00\n      keccak256\n      0x00\n      swap1\n      sload\n      swap1\n      0x0100\n      exp\n      swap1\n      div\n      0xff\n      and\n        /* \"Crowdfunding.sol\":3507:3554  return backers[_backer].fundedTiers[_tierIndex] */\n      swap1\n      pop\n        /* \"Crowdfunding.sol\":3411:3561  function hasFundedTier(address _backer, uint256 _tierIndex) public view returns (bool){... */\n      swap3\n      swap2\n      pop\n      pop\n      jump\t// out\n        /* \"Crowdfunding.sol\":193:213  address public owner */\n    tag_86:\n      0x04\n      0x00\n      swap1\n      sload\n      swap1\n      0x0100\n      exp\n      swap1\n      div\n      0xffffffffffffffffffffffffffffffffffffffff\n      and\n      dup2\n      jump\t// out\n        /* \"Crowdfunding.sol\":2073:2284  function addTier(... */\n    tag_93:\n        /* \"Crowdfunding.sol\":673:678  owner */\n      0x04\n      0x00\n      swap1\n      sload\n      swap1\n      0x0100\n      exp\n      swap1\n      div\n      0xffffffffffffffffffffffffffffffffffffffff\n      and\n        /* \"Crowdfunding.sol\":659:678  msg.sender == owner */\n      0xffffffffffffffffffffffffffffffffffffffff\n      and\n        /* \"Crowdfunding.sol\":659:669  msg.sender */\n      caller\n        /* \"Crowdfunding.sol\":659:678  msg.sender == owner */\n      0xffffffffffffffffffffffffffffffffffffffff\n      and\n      eq\n        /* \"Crowdfunding.sol\":650:695  require (msg.sender == owner,\"Not the Owner\") */\n      tag_208\n      jumpi\n      mload(0x40)\n      0x08c379a000000000000000000000000000000000000000000000000000000000\n      dup2\n      mstore\n      0x04\n      add\n      tag_209\n      swap1\n      tag_142\n      jump\t// in\n    tag_209:\n      mload(0x40)\n      dup1\n      swap2\n      sub\n      swap1\n      revert\n    tag_208:\n        /* \"Crowdfunding.sol\":2193:2194  0 */\n      0x00\n        /* \"Crowdfunding.sol\":2185:2192  _amount */\n      dup2\n        /* \"Crowdfunding.sol\":2185:2194  _amount>0 */\n      gt\n        /* \"Crowdfunding.sol\":2177:2231  require(_amount>0,\"Amount should be higher than zero\") */\n      tag_211\n      jumpi\n      mload(0x40)\n      0x08c379a000000000000000000000000000000000000000000000000000000000\n      dup2\n      mstore\n      0x04\n      add\n      tag_212\n      swap1\n      tag_213\n      jump\t// in\n    tag_212:\n      mload(0x40)\n      dup1\n      swap2\n      sub\n      swap1\n      revert\n    tag_211:\n        /* \"Crowdfunding.sol\":2241:2246  tiers */\n      0x05\n        /* \"Crowdfunding.sol\":2252:2274  Tier(_name, _amount,0) */\n      mload(0x40)\n      dup1\n      0x60\n      add\n      0x40\n      mstore\n      dup1\n        /* \"Crowdfunding.sol\":2257:2262  _name */\n      dup5\n        /* \"Crowdfunding.sol\":2252:2274  Tier(_name, _amount,0) */\n      dup2\n      mstore\n      0x20\n      add\n        /* \"Crowdfunding.sol\":2264:2271  _amount */\n      dup4\n        /* \"Crowdfunding.sol\":2252:2274  Tier(_name, _amount,0) */\n      dup2\n      mstore\n      0x20\n      add\n        /* \"Crowdfunding.sol\":2272:2273  0 */\n      0x00\n        /* \"Crowdfunding.sol\":2252:2274  Tier(_name, _amount,0) */\n      dup2\n      mstore\n      pop\n        /* \"Crowdfunding.sol\":2241:2275  tiers.push(Tier(_name, _amount,0)) */\n      swap1\n      dup1\n      0x01\n      dup2\n      sload\n      add\n      dup1\n      dup3\n      sstore\n      dup1\n      swap2\n      pop\n      pop\n      0x01\n      swap1\n      sub\n      swap1\n      0x00\n      mstore\n      keccak256(0x00, 0x20)\n      swap1\n      0x03\n      mul\n      add\n      0x00\n      swap1\n      swap2\n      swap1\n      swap2\n      swap1\n      swap2\n      pop\n      0x00\n      dup3\n      add\n      mload\n      dup2\n      0x00\n      add\n      swap1\n      dup2\n      tag_215\n      swap2\n      swap1\n      tag_216\n      jump\t// in\n    tag_215:\n      pop\n      0x20\n      dup3\n      add\n      mload\n      dup2\n      0x01\n      add\n      sstore\n      0x40\n      dup3\n      add\n      mload\n      dup2\n      0x02\n      add\n      sstore\n      pop\n      pop\n        /* \"Crowdfunding.sol\":2073:2284  function addTier(... */\n      pop\n      pop\n      jump\t// out\n        /* \"Crowdfunding.sol\":570:612  mapping (address => Backer) public backers */\n    tag_98:\n      mstore(0x20, 0x06)\n      dup1\n      0x00\n      mstore\n      keccak256(0x00, 0x40)\n      0x00\n      swap2\n      pop\n      swap1\n      pop\n      dup1\n      0x00\n      add\n      sload\n      swap1\n      pop\n      dup2\n      jump\t// out\n        /* \"Crowdfunding.sol\":296:322  CampaignState public state */\n    tag_102:\n      0x04\n      0x15\n      swap1\n      sload\n      swap1\n      0x0100\n      exp\n      swap1\n      div\n      0xff\n      and\n      dup2\n      jump\t// out\n        /* \"Crowdfunding.sol\":3656:3729  function togglePause() public OnlyOwner{... */\n    tag_106:\n        /* \"Crowdfunding.sol\":673:678  owner */\n      0x04\n      0x00\n      swap1\n      sload\n      swap1\n      0x0100\n      exp\n      swap1\n      div\n      0xffffffffffffffffffffffffffffffffffffffff\n      and\n        /* \"Crowdfunding.sol\":659:678  msg.sender == owner */\n      0xffffffffffffffffffffffffffffffffffffffff\n      and\n        /* \"Crowdfunding.sol\":659:669  msg.sender */\n      caller\n        /* \"Crowdfunding.sol\":659:678  msg.sender == owner */\n      0xffffffffffffffffffffffffffffffffffffffff\n      and\n      eq\n        /* \"Crowdfunding.sol\":650:695  require (msg.sender == owner,\"Not the Owner\") */\n      tag_218\n      jumpi\n      mload(0x40)\n      0x08c379a000000000000000000000000000000000000000000000000000000000\n      dup2\n      mstore\n      0x04\n      add\n      tag_219\n      swap1\n      tag_142\n      jump\t// in\n    tag_219:\n      mload(0x40)\n      dup1\n      swap2\n      sub\n      swap1\n      revert\n    tag_218:\n        /* \"Crowdfunding.sol\":3715:3721  paused */\n      0x04\n      0x14\n      swap1\n      sload\n      swap1\n      0x0100\n      exp\n      swap1\n      div\n      0xff\n      and\n        /* \"Crowdfunding.sol\":3714:3721  !paused */\n      iszero\n        /* \"Crowdfunding.sol\":3705:3711  paused */\n      0x04\n      0x14\n        /* \"Crowdfunding.sol\":3705:3721  paused = !paused */\n      0x0100\n      exp\n      dup2\n      sload\n      dup2\n      0xff\n      mul\n      not\n      and\n      swap1\n      dup4\n      iszero\n      iszero\n      mul\n      or\n      swap1\n      sstore\n      pop\n        /* \"Crowdfunding.sol\":3656:3729  function togglePause() public OnlyOwner{... */\n      jump\t// out\n        /* \"Crowdfunding.sol\":1664:2067  function fund(uint256 _tierIndex) public payable campainOpen notPaused{... */\n    tag_109:\n        /* \"Crowdfunding.sol\":865:885  CampaignState.Active */\n      0x00\n        /* \"Crowdfunding.sol\":856:885  state == CampaignState.Active */\n      0x02\n      dup2\n      gt\n      iszero\n      tag_222\n      jumpi\n      tag_223\n      tag_131\n      jump\t// in\n    tag_223:\n    tag_222:\n        /* \"Crowdfunding.sol\":856:861  state */\n      0x04\n      0x15\n      swap1\n      sload\n      swap1\n      0x0100\n      exp\n      swap1\n      div\n      0xff\n      and\n        /* \"Crowdfunding.sol\":856:885  state == CampaignState.Active */\n      0x02\n      dup2\n      gt\n      iszero\n      tag_224\n      jumpi\n      tag_225\n      tag_131\n      jump\t// in\n    tag_225:\n    tag_224:\n      eq\n        /* \"Crowdfunding.sol\":848:911  require(state == CampaignState.Active, \"Campain is Not Active\") */\n      tag_226\n      jumpi\n      mload(0x40)\n      0x08c379a000000000000000000000000000000000000000000000000000000000\n      dup2\n      mstore\n      0x04\n      add\n      tag_227\n      swap1\n      tag_150\n      jump\t// in\n    tag_227:\n      mload(0x40)\n      dup1\n      swap2\n      sub\n      swap1\n      revert\n    tag_226:\n        /* \"Crowdfunding.sol\":759:765  paused */\n      0x04\n      0x14\n      swap1\n      sload\n      swap1\n      0x0100\n      exp\n      swap1\n      div\n      0xff\n      and\n        /* \"Crowdfunding.sol\":758:765  !paused */\n      iszero\n        /* \"Crowdfunding.sol\":750:792  require(!paused,\"The Campaign is paused!\") */\n      tag_229\n      jumpi\n      mload(0x40)\n      0x08c379a000000000000000000000000000000000000000000000000000000000\n      dup2\n      mstore\n      0x04\n      add\n      tag_230\n      swap1\n      tag_231\n      jump\t// in\n    tag_230:\n      mload(0x40)\n      dup1\n      swap2\n      sub\n      swap1\n      revert\n    tag_229:\n        /* \"Crowdfunding.sol\":1765:1770  tiers */\n      0x05\n        /* \"Crowdfunding.sol\":1765:1777  tiers.length */\n      dup1\n      sload\n      swap1\n      pop\n        /* \"Crowdfunding.sol\":1752:1762  _tierIndex */\n      dup2\n        /* \"Crowdfunding.sol\":1752:1777  _tierIndex < tiers.length */\n      lt\n        /* \"Crowdfunding.sol\":1744:1793  require(_tierIndex < tiers.length,\"Invalid tier\") */\n      tag_233\n      jumpi\n      mload(0x40)\n      0x08c379a000000000000000000000000000000000000000000000000000000000\n      dup2\n      mstore\n      0x04\n      add\n      tag_234\n      swap1\n      tag_235\n      jump\t// in\n    tag_234:\n      mload(0x40)\n      dup1\n      swap2\n      sub\n      swap1\n      revert\n    tag_233:\n        /* \"Crowdfunding.sol\":1824:1829  tiers */\n      0x05\n        /* \"Crowdfunding.sol\":1830:1840  _tierIndex */\n      dup2\n        /* \"Crowdfunding.sol\":1824:1841  tiers[_tierIndex] */\n      dup2\n      sload\n      dup2\n      lt\n      tag_236\n      jumpi\n      tag_237\n      tag_193\n      jump\t// in\n    tag_237:\n    tag_236:\n      swap1\n      0x00\n      mstore\n      keccak256(0x00, 0x20)\n      swap1\n      0x03\n      mul\n      add\n        /* \"Crowdfunding.sol\":1824:1848  tiers[_tierIndex].amount */\n      0x01\n      add\n      sload\n        /* \"Crowdfunding.sol\":1811:1820  msg.value */\n      callvalue\n        /* \"Crowdfunding.sol\":1811:1848  msg.value == tiers[_tierIndex].amount */\n      eq\n        /* \"Crowdfunding.sol\":1803:1869  require(msg.value == tiers[_tierIndex].amount, \"Incorrect Amount\") */\n      tag_239\n      jumpi\n      mload(0x40)\n      0x08c379a000000000000000000000000000000000000000000000000000000000\n      dup2\n      mstore\n      0x04\n      add\n      tag_240\n      swap1\n      tag_241\n      jump\t// in\n    tag_240:\n      mload(0x40)\n      dup1\n      swap2\n      sub\n      swap1\n      revert\n    tag_239:\n        /* \"Crowdfunding.sol\":1880:1885  tiers */\n      0x05\n        /* \"Crowdfunding.sol\":1886:1896  _tierIndex */\n      dup2\n        /* \"Crowdfunding.sol\":1880:1897  tiers[_tierIndex] */\n      dup2\n      sload\n      dup2\n      lt\n      tag_242\n      jumpi\n      tag_243\n      tag_193\n      jump\t// in\n    tag_243:\n    tag_242:\n      swap1\n      0x00\n      mstore\n      keccak256(0x00, 0x20)\n      swap1\n      0x03\n      mul\n      add\n        /* \"Crowdfunding.sol\":1880:1905  tiers[_tierIndex].backers */\n      0x02\n      add\n      0x00\n        /* \"Crowdfunding.sol\":1880:1907  tiers[_tierIndex].backers++ */\n      dup2\n      sload\n      dup1\n      swap3\n      swap2\n      swap1\n      tag_245\n      swap1\n      tag_246\n      jump\t// in\n    tag_245:\n      swap2\n      swap1\n      pop\n      sstore\n      pop\n        /* \"Crowdfunding.sol\":1956:1965  msg.value */\n      callvalue\n        /* \"Crowdfunding.sol\":1917:1924  backers */\n      0x06\n        /* \"Crowdfunding.sol\":1917:1936  backers[msg.sender] */\n      0x00\n        /* \"Crowdfunding.sol\":1925:1935  msg.sender */\n      caller\n        /* \"Crowdfunding.sol\":1917:1936  backers[msg.sender] */\n      0xffffffffffffffffffffffffffffffffffffffff\n      and\n      0xffffffffffffffffffffffffffffffffffffffff\n      and\n      dup2\n      mstore\n      0x20\n      add\n      swap1\n      dup2\n      mstore\n      0x20\n      add\n      0x00\n      keccak256\n        /* \"Crowdfunding.sol\":1917:1954  backers[msg.sender].totalContribution */\n      0x00\n      add\n      0x00\n        /* \"Crowdfunding.sol\":1917:1965  backers[msg.sender].totalContribution+=msg.value */\n      dup3\n      dup3\n      sload\n      tag_247\n      swap2\n      swap1\n      tag_153\n      jump\t// in\n    tag_247:\n      swap3\n      pop\n      pop\n      dup2\n      swap1\n      sstore\n      pop\n        /* \"Crowdfunding.sol\":1975:1982  backers */\n      0x06\n        /* \"Crowdfunding.sol\":1975:1994  backers[msg.sender] */\n      0x00\n        /* \"Crowdfunding.sol\":1983:1993  msg.sender */\n      caller\n        /* \"Crowdfunding.sol\":1975:1994  backers[msg.sender] */\n      0xffffffffffffffffffffffffffffffffffffffff\n      and\n      0xffffffffffffffffffffffffffffffffffffffff\n      and\n      dup2\n      mstore\n      0x20\n      add\n      swap1\n      dup2\n      mstore\n      0x20\n      add\n      0x00\n      keccak256\n        /* \"Crowdfunding.sol\":1975:2006  backers[msg.sender].fundedTiers */\n      0x01\n      add\n        /* \"Crowdfunding.sol\":1975:2018  backers[msg.sender].fundedTiers[_tierIndex] */\n      0x00\n        /* \"Crowdfunding.sol\":2007:2017  _tierIndex */\n      dup3\n        /* \"Crowdfunding.sol\":1975:2018  backers[msg.sender].fundedTiers[_tierIndex] */\n      dup2\n      mstore\n      0x20\n      add\n      swap1\n      dup2\n      mstore\n      0x20\n      add\n      0x00\n      keccak256\n      0x00\n      swap1\n      sload\n      swap1\n      0x0100\n      exp\n      swap1\n      pop\n      pop\n        /* \"Crowdfunding.sol\":2028:2057  checkAndUpdateCampaignState() */\n      tag_248\n        /* \"Crowdfunding.sol\":2028:2055  checkAndUpdateCampaignState */\n      tag_160\n        /* \"Crowdfunding.sol\":2028:2057  checkAndUpdateCampaignState() */\n      jump\t// in\n    tag_248:\n        /* \"Crowdfunding.sol\":1664:2067  function fund(uint256 _tierIndex) public payable campainOpen notPaused{... */\n      pop\n      jump\t// out\n        /* \"Crowdfunding.sol\":3566:3650  function getTiers() public view returns (Tier[] memory){... */\n    tag_112:\n        /* \"Crowdfunding.sol\":3607:3620  Tier[] memory */\n      0x60\n        /* \"Crowdfunding.sol\":3638:3643  tiers */\n      0x05\n        /* \"Crowdfunding.sol\":3631:3643  return tiers */\n      dup1\n      sload\n      dup1\n      0x20\n      mul\n      0x20\n      add\n      mload(0x40)\n      swap1\n      dup2\n      add\n      0x40\n      mstore\n      dup1\n      swap3\n      swap2\n      swap1\n      dup2\n      dup2\n      mstore\n      0x20\n      add\n      0x00\n      swap1\n    tag_250:\n      dup3\n      dup3\n      lt\n      iszero\n      tag_251\n      jumpi\n      dup4\n      dup3\n      swap1\n      0x00\n      mstore\n      keccak256(0x00, 0x20)\n      swap1\n      0x03\n      mul\n      add\n      mload(0x40)\n      dup1\n      0x60\n      add\n      0x40\n      mstore\n      swap1\n      dup2\n      0x00\n      dup3\n      add\n      dup1\n      sload\n      tag_253\n      swap1\n      tag_118\n      jump\t// in\n    tag_253:\n      dup1\n      0x1f\n      add\n      0x20\n      dup1\n      swap2\n      div\n      mul\n      0x20\n      add\n      mload(0x40)\n      swap1\n      dup2\n      add\n      0x40\n      mstore\n      dup1\n      swap3\n      swap2\n      swap1\n      dup2\n      dup2\n      mstore\n      0x20\n      add\n      dup3\n      dup1\n      sload\n      tag_254\n      swap1\n      tag_118\n      jump\t// in\n    tag_254:\n      dup1\n      iszero\n      tag_255\n      jumpi\n      dup1\n      0x1f\n      lt\n      tag_256\n      jumpi\n      0x0100\n      dup1\n      dup4\n      sload\n      div\n      mul\n      dup4\n      mstore\n      swap2\n      0x20\n      add\n      swap2\n      jump(tag_255)\n    tag_256:\n      dup3\n      add\n      swap2\n      swap1\n      0x00\n      mstore\n      keccak256(0x00, 0x20)\n      swap1\n    tag_257:\n      dup2\n      sload\n      dup2\n      mstore\n      swap1\n      0x01\n      add\n      swap1\n      0x20\n      add\n      dup1\n      dup4\n      gt\n      tag_257\n      jumpi\n      dup3\n      swap1\n      sub\n      0x1f\n      and\n      dup3\n      add\n      swap2\n    tag_255:\n      pop\n      pop\n      pop\n      pop\n      pop\n      dup2\n      mstore\n      0x20\n      add\n      0x01\n      dup3\n      add\n      sload\n      dup2\n      mstore\n      0x20\n      add\n      0x02\n      dup3\n      add\n      sload\n      dup2\n      mstore\n      pop\n      pop\n      dup2\n      mstore\n      0x20\n      add\n      swap1\n      0x01\n      add\n      swap1\n      jump(tag_250)\n    tag_251:\n      pop\n      pop\n      pop\n      pop\n      swap1\n      pop\n        /* \"Crowdfunding.sol\":3566:3650  function getTiers() public view returns (Tier[] memory){... */\n      swap1\n      jump\t// out\n        /* \"Crowdfunding.sol\":1255:1659  function checkAndUpdateCampaignState() internal  {... */\n    tag_160:\n        /* \"Crowdfunding.sol\":1326:1346  CampaignState.Active */\n      0x00\n        /* \"Crowdfunding.sol\":1317:1346  state == CampaignState.Active */\n      0x02\n      dup2\n      gt\n      iszero\n      tag_259\n      jumpi\n      tag_260\n      tag_131\n      jump\t// in\n    tag_260:\n    tag_259:\n        /* \"Crowdfunding.sol\":1317:1322  state */\n      0x04\n      0x15\n      swap1\n      sload\n      swap1\n      0x0100\n      exp\n      swap1\n      div\n      0xff\n      and\n        /* \"Crowdfunding.sol\":1317:1346  state == CampaignState.Active */\n      0x02\n      dup2\n      gt\n      iszero\n      tag_261\n      jumpi\n      tag_262\n      tag_131\n      jump\t// in\n    tag_262:\n    tag_261:\n      sub\n        /* \"Crowdfunding.sol\":1314:1644  if(state == CampaignState.Active){... */\n      tag_263\n      jumpi\n        /* \"Crowdfunding.sol\":1383:1391  deadline */\n      sload(0x03)\n        /* \"Crowdfunding.sol\":1365:1380  block.timestamp */\n      timestamp\n        /* \"Crowdfunding.sol\":1365:1391  block.timestamp>= deadline */\n      lt\n        /* \"Crowdfunding.sol\":1361:1634  if (block.timestamp>= deadline){... */\n      tag_264\n      jumpi\n        /* \"Crowdfunding.sol\":1442:1446  goal */\n      sload(0x02)\n        /* \"Crowdfunding.sol\":1418:1439  address(this).balance */\n      selfbalance\n        /* \"Crowdfunding.sol\":1418:1446  address(this).balance >=goal */\n      lt\n      iszero\n        /* \"Crowdfunding.sol\":1418:1495  address(this).balance >=goal ? CampaignState.Sucessful : CampaignState.Failed */\n      tag_265\n      jumpi\n        /* \"Crowdfunding.sol\":1475:1495  CampaignState.Failed */\n      0x02\n        /* \"Crowdfunding.sol\":1418:1495  address(this).balance >=goal ? CampaignState.Sucessful : CampaignState.Failed */\n      jump(tag_266)\n    tag_265:\n        /* \"Crowdfunding.sol\":1449:1472  CampaignState.Sucessful */\n      0x01\n        /* \"Crowdfunding.sol\":1418:1495  address(this).balance >=goal ? CampaignState.Sucessful : CampaignState.Failed */\n    tag_266:\n        /* \"Crowdfunding.sol\":1410:1415  state */\n      0x04\n      0x15\n        /* \"Crowdfunding.sol\":1410:1495  state = address(this).balance >=goal ? CampaignState.Sucessful : CampaignState.Failed */\n      0x0100\n      exp\n      dup2\n      sload\n      dup2\n      0xff\n      mul\n      not\n      and\n      swap1\n      dup4\n      0x02\n      dup2\n      gt\n      iszero\n      tag_267\n      jumpi\n      tag_268\n      tag_131\n      jump\t// in\n    tag_268:\n    tag_267:\n      mul\n      or\n      swap1\n      sstore\n      pop\n        /* \"Crowdfunding.sol\":1361:1634  if (block.timestamp>= deadline){... */\n      jump(tag_269)\n    tag_264:\n        /* \"Crowdfunding.sol\":1566:1570  goal */\n      sload(0x02)\n        /* \"Crowdfunding.sol\":1542:1563  address(this).balance */\n      selfbalance\n        /* \"Crowdfunding.sol\":1542:1570  address(this).balance >=goal */\n      lt\n      iszero\n        /* \"Crowdfunding.sol\":1542:1619  address(this).balance >=goal ? CampaignState.Sucessful : CampaignState.Active */\n      tag_270\n      jumpi\n        /* \"Crowdfunding.sol\":1599:1619  CampaignState.Active */\n      0x00\n        /* \"Crowdfunding.sol\":1542:1619  address(this).balance >=goal ? CampaignState.Sucessful : CampaignState.Active */\n      jump(tag_271)\n    tag_270:\n        /* \"Crowdfunding.sol\":1573:1596  CampaignState.Sucessful */\n      0x01\n        /* \"Crowdfunding.sol\":1542:1619  address(this).balance >=goal ? CampaignState.Sucessful : CampaignState.Active */\n    tag_271:\n        /* \"Crowdfunding.sol\":1534:1539  state */\n      0x04\n      0x15\n        /* \"Crowdfunding.sol\":1534:1619  state = address(this).balance >=goal ? CampaignState.Sucessful : CampaignState.Active */\n      0x0100\n      exp\n      dup2\n      sload\n      dup2\n      0xff\n      mul\n      not\n      and\n      swap1\n      dup4\n      0x02\n      dup2\n      gt\n      iszero\n      tag_272\n      jumpi\n      tag_273\n      tag_131\n      jump\t// in\n    tag_273:\n    tag_272:\n      mul\n      or\n      swap1\n      sstore\n      pop\n        /* \"Crowdfunding.sol\":1361:1634  if (block.timestamp>= deadline){... */\n    tag_269:\n        /* \"Crowdfunding.sol\":1314:1644  if(state == CampaignState.Active){... */\n    tag_263:\n        /* \"Crowdfunding.sol\":1255:1659  function checkAndUpdateCampaignState() internal  {... */\n      jump\t// out\n    tag_205:\n      pop\n      dup1\n      sload\n      tag_274\n      swap1\n      tag_118\n      jump\t// in\n    tag_274:\n      0x00\n      dup3\n      sstore\n      dup1\n      0x1f\n      lt\n      tag_276\n      jumpi\n      pop\n      jump(tag_275)\n    tag_276:\n      0x1f\n      add\n      0x20\n      swap1\n      div\n      swap1\n      0x00\n      mstore\n      keccak256(0x00, 0x20)\n      swap1\n      dup2\n      add\n      swap1\n      tag_277\n      swap2\n      swap1\n      tag_278\n      jump\t// in\n    tag_277:\n    tag_275:\n      pop\n      jump\t// out\n    tag_278:\n    tag_279:\n      dup1\n      dup3\n      gt\n      iszero\n      tag_280\n      jumpi\n      0x00\n      dup2\n      0x00\n      swap1\n      sstore\n      pop\n      0x01\n      add\n      jump(tag_279)\n    tag_280:\n      pop\n      swap1\n      jump\t// out\n        /* \"#utility.yul\":7:82   */\n    tag_281:\n        /* \"#utility.yul\":40:46   */\n      0x00\n        /* \"#utility.yul\":73:75   */\n      0x40\n        /* \"#utility.yul\":67:76   */\n      mload\n        /* \"#utility.yul\":57:76   */\n      swap1\n      pop\n        /* \"#utility.yul\":7:82   */\n      swap1\n      jump\t// out\n        /* \"#utility.yul\":88:205   */\n    tag_282:\n        /* \"#utility.yul\":197:198   */\n      0x00\n        /* \"#utility.yul\":194:195   */\n      dup1\n        /* \"#utility.yul\":187:199   */\n      revert\n        /* \"#utility.yul\":211:328   */\n    tag_283:\n        /* \"#utility.yul\":320:321   */\n      0x00\n        /* \"#utility.yul\":317:318   */\n      dup1\n        /* \"#utility.yul\":310:322   */\n      revert\n        /* \"#utility.yul\":334:411   */\n    tag_284:\n        /* \"#utility.yul\":371:378   */\n      0x00\n        /* \"#utility.yul\":400:405   */\n      dup2\n        /* \"#utility.yul\":389:405   */\n      swap1\n      pop\n        /* \"#utility.yul\":334:411   */\n      swap2\n      swap1\n      pop\n      jump\t// out\n        /* \"#utility.yul\":417:539   */\n    tag_285:\n        /* \"#utility.yul\":490:514   */\n      tag_367\n        /* \"#utility.yul\":508:513   */\n      dup2\n        /* \"#utility.yul\":490:514   */\n      tag_284\n      jump\t// in\n    tag_367:\n        /* \"#utility.yul\":483:488   */\n      dup2\n        /* \"#utility.yul\":480:515   */\n      eq\n        /* \"#utility.yul\":470:533   */\n      tag_368\n      jumpi\n        /* \"#utility.yul\":529:530   */\n      0x00\n        /* \"#utility.yul\":526:527   */\n      dup1\n        /* \"#utility.yul\":519:531   */\n      revert\n        /* \"#utility.yul\":470:533   */\n    tag_368:\n        /* \"#utility.yul\":417:539   */\n      pop\n      jump\t// out\n        /* \"#utility.yul\":545:684   */\n    tag_286:\n        /* \"#utility.yul\":591:596   */\n      0x00\n        /* \"#utility.yul\":629:635   */\n      dup2\n        /* \"#utility.yul\":616:636   */\n      calldataload\n        /* \"#utility.yul\":607:636   */\n      swap1\n      pop\n        /* \"#utility.yul\":645:678   */\n      tag_370\n        /* \"#utility.yul\":672:677   */\n      dup2\n        /* \"#utility.yul\":645:678   */\n      tag_285\n      jump\t// in\n    tag_370:\n        /* \"#utility.yul\":545:684   */\n      swap3\n      swap2\n      pop\n      pop\n      jump\t// out\n        /* \"#utility.yul\":690:1019   */\n    tag_28:\n        /* \"#utility.yul\":749:755   */\n      0x00\n        /* \"#utility.yul\":798:800   */\n      0x20\n        /* \"#utility.yul\":786:795   */\n      dup3\n        /* \"#utility.yul\":777:784   */\n      dup5\n        /* \"#utility.yul\":773:796   */\n      sub\n        /* \"#utility.yul\":769:801   */\n      slt\n        /* \"#utility.yul\":766:885   */\n      iszero\n      tag_372\n      jumpi\n        /* \"#utility.yul\":804:883   */\n      tag_373\n      tag_282\n      jump\t// in\n    tag_373:\n        /* \"#utility.yul\":766:885   */\n    tag_372:\n        /* \"#utility.yul\":924:925   */\n      0x00\n        /* \"#utility.yul\":949:1002   */\n      tag_374\n        /* \"#utility.yul\":994:1001   */\n      dup5\n        /* \"#utility.yul\":985:991   */\n      dup3\n        /* \"#utility.yul\":974:983   */\n      dup6\n        /* \"#utility.yul\":970:992   */\n      add\n        /* \"#utility.yul\":949:1002   */\n      tag_286\n      jump\t// in\n    tag_374:\n        /* \"#utility.yul\":939:1002   */\n      swap2\n      pop\n        /* \"#utility.yul\":895:1012   */\n      pop\n        /* \"#utility.yul\":690:1019   */\n      swap3\n      swap2\n      pop\n      pop\n      jump\t// out\n        /* \"#utility.yul\":1025:1124   */\n    tag_287:\n        /* \"#utility.yul\":1077:1083   */\n      0x00\n        /* \"#utility.yul\":1111:1116   */\n      dup2\n        /* \"#utility.yul\":1105:1117   */\n      mload\n        /* \"#utility.yul\":1095:1117   */\n      swap1\n      pop\n        /* \"#utility.yul\":1025:1124   */\n      swap2\n      swap1\n      pop\n      jump\t// out\n        /* \"#utility.yul\":1130:1299   */\n    tag_288:\n        /* \"#utility.yul\":1214:1225   */\n      0x00\n        /* \"#utility.yul\":1248:1254   */\n      dup3\n        /* \"#utility.yul\":1243:1246   */\n      dup3\n        /* \"#utility.yul\":1236:1255   */\n      mstore\n        /* \"#utility.yul\":1288:1292   */\n      0x20\n        /* \"#utility.yul\":1283:1286   */\n      dup3\n        /* \"#utility.yul\":1279:1293   */\n      add\n        /* \"#utility.yul\":1264:1293   */\n      swap1\n      pop\n        /* \"#utility.yul\":1130:1299   */\n      swap3\n      swap2\n      pop\n      pop\n      jump\t// out\n        /* \"#utility.yul\":1305:1444   */\n    tag_289:\n        /* \"#utility.yul\":1394:1400   */\n      dup3\n        /* \"#utility.yul\":1389:1392   */\n      dup2\n        /* \"#utility.yul\":1384:1387   */\n      dup4\n        /* \"#utility.yul\":1378:1401   */\n      mcopy\n        /* \"#utility.yul\":1435:1436   */\n      0x00\n        /* \"#utility.yul\":1426:1432   */\n      dup4\n        /* \"#utility.yul\":1421:1424   */\n      dup4\n        /* \"#utility.yul\":1417:1433   */\n      add\n        /* \"#utility.yul\":1410:1437   */\n      mstore\n        /* \"#utility.yul\":1305:1444   */\n      pop\n      pop\n      pop\n      jump\t// out\n        /* \"#utility.yul\":1450:1552   */\n    tag_290:\n        /* \"#utility.yul\":1491:1497   */\n      0x00\n        /* \"#utility.yul\":1542:1544   */\n      0x1f\n        /* \"#utility.yul\":1538:1545   */\n      not\n        /* \"#utility.yul\":1533:1535   */\n      0x1f\n        /* \"#utility.yul\":1526:1531   */\n      dup4\n        /* \"#utility.yul\":1522:1536   */\n      add\n        /* \"#utility.yul\":1518:1546   */\n      and\n        /* \"#utility.yul\":1508:1546   */\n      swap1\n      pop\n        /* \"#utility.yul\":1450:1552   */\n      swap2\n      swap1\n      pop\n      jump\t// out\n        /* \"#utility.yul\":1558:1935   */\n    tag_291:\n        /* \"#utility.yul\":1646:1649   */\n      0x00\n        /* \"#utility.yul\":1674:1713   */\n      tag_380\n        /* \"#utility.yul\":1707:1712   */\n      dup3\n        /* \"#utility.yul\":1674:1713   */\n      tag_287\n      jump\t// in\n    tag_380:\n        /* \"#utility.yul\":1729:1800   */\n      tag_381\n        /* \"#utility.yul\":1793:1799   */\n      dup2\n        /* \"#utility.yul\":1788:1791   */\n      dup6\n        /* \"#utility.yul\":1729:1800   */\n      tag_288\n      jump\t// in\n    tag_381:\n        /* \"#utility.yul\":1722:1800   */\n      swap4\n      pop\n        /* \"#utility.yul\":1809:1874   */\n      tag_382\n        /* \"#utility.yul\":1867:1873   */\n      dup2\n        /* \"#utility.yul\":1862:1865   */\n      dup6\n        /* \"#utility.yul\":1855:1859   */\n      0x20\n        /* \"#utility.yul\":1848:1853   */\n      dup7\n        /* \"#utility.yul\":1844:1860   */\n      add\n        /* \"#utility.yul\":1809:1874   */\n      tag_289\n      jump\t// in\n    tag_382:\n        /* \"#utility.yul\":1899:1928   */\n      tag_383\n        /* \"#utility.yul\":1921:1927   */\n      dup2\n        /* \"#utility.yul\":1899:1928   */\n      tag_290\n      jump\t// in\n    tag_383:\n        /* \"#utility.yul\":1894:1897   */\n      dup5\n        /* \"#utility.yul\":1890:1929   */\n      add\n        /* \"#utility.yul\":1883:1929   */\n      swap2\n      pop\n        /* \"#utility.yul\":1650:1935   */\n      pop\n        /* \"#utility.yul\":1558:1935   */\n      swap3\n      swap2\n      pop\n      pop\n      jump\t// out\n        /* \"#utility.yul\":1941:2059   */\n    tag_292:\n        /* \"#utility.yul\":2028:2052   */\n      tag_385\n        /* \"#utility.yul\":2046:2051   */\n      dup2\n        /* \"#utility.yul\":2028:2052   */\n      tag_284\n      jump\t// in\n    tag_385:\n        /* \"#utility.yul\":2023:2026   */\n      dup3\n        /* \"#utility.yul\":2016:2053   */\n      mstore\n        /* \"#utility.yul\":1941:2059   */\n      pop\n      pop\n      jump\t// out\n        /* \"#utility.yul\":2065:2598   */\n    tag_31:\n        /* \"#utility.yul\":2234:2238   */\n      0x00\n        /* \"#utility.yul\":2272:2274   */\n      0x60\n        /* \"#utility.yul\":2261:2270   */\n      dup3\n        /* \"#utility.yul\":2257:2275   */\n      add\n        /* \"#utility.yul\":2249:2275   */\n      swap1\n      pop\n        /* \"#utility.yul\":2321:2330   */\n      dup2\n        /* \"#utility.yul\":2315:2319   */\n      dup2\n        /* \"#utility.yul\":2311:2331   */\n      sub\n        /* \"#utility.yul\":2307:2308   */\n      0x00\n        /* \"#utility.yul\":2296:2305   */\n      dup4\n        /* \"#utility.yul\":2292:2309   */\n      add\n        /* \"#utility.yul\":2285:2332   */\n      mstore\n        /* \"#utility.yul\":2349:2427   */\n      tag_387\n        /* \"#utility.yul\":2422:2426   */\n      dup2\n        /* \"#utility.yul\":2413:2419   */\n      dup7\n        /* \"#utility.yul\":2349:2427   */\n      tag_291\n      jump\t// in\n    tag_387:\n        /* \"#utility.yul\":2341:2427   */\n      swap1\n      pop\n        /* \"#utility.yul\":2437:2509   */\n      tag_388\n        /* \"#utility.yul\":2505:2507   */\n      0x20\n        /* \"#utility.yul\":2494:2503   */\n      dup4\n        /* \"#utility.yul\":2490:2508   */\n      add\n        /* \"#utility.yul\":2481:2487   */\n      dup6\n        /* \"#utility.yul\":2437:2509   */\n      tag_292\n      jump\t// in\n    tag_388:\n        /* \"#utility.yul\":2519:2591   */\n      tag_389\n        /* \"#utility.yul\":2587:2589   */\n      0x40\n        /* \"#utility.yul\":2576:2585   */\n      dup4\n        /* \"#utility.yul\":2572:2590   */\n      add\n        /* \"#utility.yul\":2563:2569   */\n      dup5\n        /* \"#utility.yul\":2519:2591   */\n      tag_292\n      jump\t// in\n    tag_389:\n        /* \"#utility.yul\":2065:2598   */\n      swap5\n      swap4\n      pop\n      pop\n      pop\n      pop\n      jump\t// out\n        /* \"#utility.yul\":2604:2917   */\n    tag_36:\n        /* \"#utility.yul\":2717:2721   */\n      0x00\n        /* \"#utility.yul\":2755:2757   */\n      0x20\n        /* \"#utility.yul\":2744:2753   */\n      dup3\n        /* \"#utility.yul\":2740:2758   */\n      add\n        /* \"#utility.yul\":2732:2758   */\n      swap1\n      pop\n        /* \"#utility.yul\":2804:2813   */\n      dup2\n        /* \"#utility.yul\":2798:2802   */\n      dup2\n        /* \"#utility.yul\":2794:2814   */\n      sub\n        /* \"#utility.yul\":2790:2791   */\n      0x00\n        /* \"#utility.yul\":2779:2788   */\n      dup4\n        /* \"#utility.yul\":2775:2792   */\n      add\n        /* \"#utility.yul\":2768:2815   */\n      mstore\n        /* \"#utility.yul\":2832:2910   */\n      tag_391\n        /* \"#utility.yul\":2905:2909   */\n      dup2\n        /* \"#utility.yul\":2896:2902   */\n      dup5\n        /* \"#utility.yul\":2832:2910   */\n      tag_291\n      jump\t// in\n    tag_391:\n        /* \"#utility.yul\":2824:2910   */\n      swap1\n      pop\n        /* \"#utility.yul\":2604:2917   */\n      swap3\n      swap2\n      pop\n      pop\n      jump\t// out\n        /* \"#utility.yul\":2923:3103   */\n    tag_131:\n        /* \"#utility.yul\":2971:3048   */\n      0x4e487b7100000000000000000000000000000000000000000000000000000000\n        /* \"#utility.yul\":2968:2969   */\n      0x00\n        /* \"#utility.yul\":2961:3049   */\n      mstore\n        /* \"#utility.yul\":3068:3072   */\n      0x21\n        /* \"#utility.yul\":3065:3066   */\n      0x04\n        /* \"#utility.yul\":3058:3073   */\n      mstore\n        /* \"#utility.yul\":3092:3096   */\n      0x24\n        /* \"#utility.yul\":3089:3090   */\n      0x00\n        /* \"#utility.yul\":3082:3097   */\n      revert\n        /* \"#utility.yul\":3109:3230   */\n    tag_293:\n        /* \"#utility.yul\":3198:3199   */\n      0x03\n        /* \"#utility.yul\":3191:3196   */\n      dup2\n        /* \"#utility.yul\":3188:3200   */\n      lt\n        /* \"#utility.yul\":3178:3224   */\n      tag_394\n      jumpi\n        /* \"#utility.yul\":3204:3222   */\n      tag_395\n      tag_131\n      jump\t// in\n    tag_395:\n        /* \"#utility.yul\":3178:3224   */\n    tag_394:\n        /* \"#utility.yul\":3109:3230   */\n      pop\n      jump\t// out\n        /* \"#utility.yul\":3236:3379   */\n    tag_294:\n        /* \"#utility.yul\":3289:3296   */\n      0x00\n        /* \"#utility.yul\":3318:3323   */\n      dup2\n        /* \"#utility.yul\":3307:3323   */\n      swap1\n      pop\n        /* \"#utility.yul\":3324:3373   */\n      tag_397\n        /* \"#utility.yul\":3367:3372   */\n      dup3\n        /* \"#utility.yul\":3324:3373   */\n      tag_293\n      jump\t// in\n    tag_397:\n        /* \"#utility.yul\":3236:3379   */\n      swap2\n      swap1\n      pop\n      jump\t// out\n        /* \"#utility.yul\":3385:3528   */\n    tag_295:\n        /* \"#utility.yul\":3449:3458   */\n      0x00\n        /* \"#utility.yul\":3482:3522   */\n      tag_399\n        /* \"#utility.yul\":3516:3521   */\n      dup3\n        /* \"#utility.yul\":3482:3522   */\n      tag_294\n      jump\t// in\n    tag_399:\n        /* \"#utility.yul\":3469:3522   */\n      swap1\n      pop\n        /* \"#utility.yul\":3385:3528   */\n      swap2\n      swap1\n      pop\n      jump\t// out\n        /* \"#utility.yul\":3534:3693   */\n    tag_296:\n        /* \"#utility.yul\":3635:3686   */\n      tag_401\n        /* \"#utility.yul\":3680:3685   */\n      dup2\n        /* \"#utility.yul\":3635:3686   */\n      tag_295\n      jump\t// in\n    tag_401:\n        /* \"#utility.yul\":3630:3633   */\n      dup3\n        /* \"#utility.yul\":3623:3687   */\n      mstore\n        /* \"#utility.yul\":3534:3693   */\n      pop\n      pop\n      jump\t// out\n        /* \"#utility.yul\":3699:3949   */\n    tag_41:\n        /* \"#utility.yul\":3806:3810   */\n      0x00\n        /* \"#utility.yul\":3844:3846   */\n      0x20\n        /* \"#utility.yul\":3833:3842   */\n      dup3\n        /* \"#utility.yul\":3829:3847   */\n      add\n        /* \"#utility.yul\":3821:3847   */\n      swap1\n      pop\n        /* \"#utility.yul\":3857:3942   */\n      tag_403\n        /* \"#utility.yul\":3939:3940   */\n      0x00\n        /* \"#utility.yul\":3928:3937   */\n      dup4\n        /* \"#utility.yul\":3924:3941   */\n      add\n        /* \"#utility.yul\":3915:3921   */\n      dup5\n        /* \"#utility.yul\":3857:3942   */\n      tag_296\n      jump\t// in\n    tag_403:\n        /* \"#utility.yul\":3699:3949   */\n      swap3\n      swap2\n      pop\n      pop\n      jump\t// out\n        /* \"#utility.yul\":3955:4177   */\n    tag_46:\n        /* \"#utility.yul\":4048:4052   */\n      0x00\n        /* \"#utility.yul\":4086:4088   */\n      0x20\n        /* \"#utility.yul\":4075:4084   */\n      dup3\n        /* \"#utility.yul\":4071:4089   */\n      add\n        /* \"#utility.yul\":4063:4089   */\n      swap1\n      pop\n        /* \"#utility.yul\":4099:4170   */\n      tag_405\n        /* \"#utility.yul\":4167:4168   */\n      0x00\n        /* \"#utility.yul\":4156:4165   */\n      dup4\n        /* \"#utility.yul\":4152:4169   */\n      add\n        /* \"#utility.yul\":4143:4149   */\n      dup5\n        /* \"#utility.yul\":4099:4170   */\n      tag_292\n      jump\t// in\n    tag_405:\n        /* \"#utility.yul\":3955:4177   */\n      swap3\n      swap2\n      pop\n      pop\n      jump\t// out\n        /* \"#utility.yul\":4183:4273   */\n    tag_297:\n        /* \"#utility.yul\":4217:4224   */\n      0x00\n        /* \"#utility.yul\":4260:4265   */\n      dup2\n        /* \"#utility.yul\":4253:4266   */\n      iszero\n        /* \"#utility.yul\":4246:4267   */\n      iszero\n        /* \"#utility.yul\":4235:4267   */\n      swap1\n      pop\n        /* \"#utility.yul\":4183:4273   */\n      swap2\n      swap1\n      pop\n      jump\t// out\n        /* \"#utility.yul\":4279:4388   */\n    tag_298:\n        /* \"#utility.yul\":4360:4381   */\n      tag_408\n        /* \"#utility.yul\":4375:4380   */\n      dup2\n        /* \"#utility.yul\":4360:4381   */\n      tag_297\n      jump\t// in\n    tag_408:\n        /* \"#utility.yul\":4355:4358   */\n      dup3\n        /* \"#utility.yul\":4348:4382   */\n      mstore\n        /* \"#utility.yul\":4279:4388   */\n      pop\n      pop\n      jump\t// out\n        /* \"#utility.yul\":4394:4604   */\n    tag_69:\n        /* \"#utility.yul\":4481:4485   */\n      0x00\n        /* \"#utility.yul\":4519:4521   */\n      0x20\n        /* \"#utility.yul\":4508:4517   */\n      dup3\n        /* \"#utility.yul\":4504:4522   */\n      add\n        /* \"#utility.yul\":4496:4522   */\n      swap1\n      pop\n        /* \"#utility.yul\":4532:4597   */\n      tag_410\n        /* \"#utility.yul\":4594:4595   */\n      0x00\n        /* \"#utility.yul\":4583:4592   */\n      dup4\n        /* \"#utility.yul\":4579:4596   */\n      add\n        /* \"#utility.yul\":4570:4576   */\n      dup5\n        /* \"#utility.yul\":4532:4597   */\n      tag_298\n      jump\t// in\n    tag_410:\n        /* \"#utility.yul\":4394:4604   */\n      swap3\n      swap2\n      pop\n      pop\n      jump\t// out\n        /* \"#utility.yul\":4610:4736   */\n    tag_299:\n        /* \"#utility.yul\":4647:4654   */\n      0x00\n        /* \"#utility.yul\":4687:4729   */\n      0xffffffffffffffffffffffffffffffffffffffff\n        /* \"#utility.yul\":4680:4685   */\n      dup3\n        /* \"#utility.yul\":4676:4730   */\n      and\n        /* \"#utility.yul\":4665:4730   */\n      swap1\n      pop\n        /* \"#utility.yul\":4610:4736   */\n      swap2\n      swap1\n      pop\n      jump\t// out\n        /* \"#utility.yul\":4742:4838   */\n    tag_300:\n        /* \"#utility.yul\":4779:4786   */\n      0x00\n        /* \"#utility.yul\":4808:4832   */\n      tag_413\n        /* \"#utility.yul\":4826:4831   */\n      dup3\n        /* \"#utility.yul\":4808:4832   */\n      tag_299\n      jump\t// in\n    tag_413:\n        /* \"#utility.yul\":4797:4832   */\n      swap1\n      pop\n        /* \"#utility.yul\":4742:4838   */\n      swap2\n      swap1\n      pop\n      jump\t// out\n        /* \"#utility.yul\":4844:4966   */\n    tag_301:\n        /* \"#utility.yul\":4917:4941   */\n      tag_415\n        /* \"#utility.yul\":4935:4940   */\n      dup2\n        /* \"#utility.yul\":4917:4941   */\n      tag_300\n      jump\t// in\n    tag_415:\n        /* \"#utility.yul\":4910:4915   */\n      dup2\n        /* \"#utility.yul\":4907:4942   */\n      eq\n        /* \"#utility.yul\":4897:4960   */\n      tag_416\n      jumpi\n        /* \"#utility.yul\":4956:4957   */\n      0x00\n        /* \"#utility.yul\":4953:4954   */\n      dup1\n        /* \"#utility.yul\":4946:4958   */\n      revert\n        /* \"#utility.yul\":4897:4960   */\n    tag_416:\n        /* \"#utility.yul\":4844:4966   */\n      pop\n      jump\t// out\n        /* \"#utility.yul\":4972:5111   */\n    tag_302:\n        /* \"#utility.yul\":5018:5023   */\n      0x00\n        /* \"#utility.yul\":5056:5062   */\n      dup2\n        /* \"#utility.yul\":5043:5063   */\n      calldataload\n        /* \"#utility.yul\":5034:5063   */\n      swap1\n      pop\n        /* \"#utility.yul\":5072:5105   */\n      tag_418\n        /* \"#utility.yul\":5099:5104   */\n      dup2\n        /* \"#utility.yul\":5072:5105   */\n      tag_301\n      jump\t// in\n    tag_418:\n        /* \"#utility.yul\":4972:5111   */\n      swap3\n      swap2\n      pop\n      pop\n      jump\t// out\n        /* \"#utility.yul\":5117:5591   */\n    tag_81:\n        /* \"#utility.yul\":5185:5191   */\n      0x00\n        /* \"#utility.yul\":5193:5199   */\n      dup1\n        /* \"#utility.yul\":5242:5244   */\n      0x40\n        /* \"#utility.yul\":5230:5239   */\n      dup4\n        /* \"#utility.yul\":5221:5228   */\n      dup6\n        /* \"#utility.yul\":5217:5240   */\n      sub\n        /* \"#utility.yul\":5213:5245   */\n      slt\n        /* \"#utility.yul\":5210:5329   */\n      iszero\n      tag_420\n      jumpi\n        /* \"#utility.yul\":5248:5327   */\n      tag_421\n      tag_282\n      jump\t// in\n    tag_421:\n        /* \"#utility.yul\":5210:5329   */\n    tag_420:\n        /* \"#utility.yul\":5368:5369   */\n      0x00\n        /* \"#utility.yul\":5393:5446   */\n      tag_422\n        /* \"#utility.yul\":5438:5445   */\n      dup6\n        /* \"#utility.yul\":5429:5435   */\n      dup3\n        /* \"#utility.yul\":5418:5427   */\n      dup7\n        /* \"#utility.yul\":5414:5436   */\n      add\n        /* \"#utility.yul\":5393:5446   */\n      tag_302\n      jump\t// in\n    tag_422:\n        /* \"#utility.yul\":5383:5446   */\n      swap3\n      pop\n        /* \"#utility.yul\":5339:5456   */\n      pop\n        /* \"#utility.yul\":5495:5497   */\n      0x20\n        /* \"#utility.yul\":5521:5574   */\n      tag_423\n        /* \"#utility.yul\":5566:5573   */\n      dup6\n        /* \"#utility.yul\":5557:5563   */\n      dup3\n        /* \"#utility.yul\":5546:5555   */\n      dup7\n        /* \"#utility.yul\":5542:5564   */\n      add\n        /* \"#utility.yul\":5521:5574   */\n      tag_286\n      jump\t// in\n    tag_423:\n        /* \"#utility.yul\":5511:5574   */\n      swap2\n      pop\n        /* \"#utility.yul\":5466:5584   */\n      pop\n        /* \"#utility.yul\":5117:5591   */\n      swap3\n      pop\n      swap3\n      swap1\n      pop\n      jump\t// out\n        /* \"#utility.yul\":5597:5715   */\n    tag_303:\n        /* \"#utility.yul\":5684:5708   */\n      tag_425\n        /* \"#utility.yul\":5702:5707   */\n      dup2\n        /* \"#utility.yul\":5684:5708   */\n      tag_300\n      jump\t// in\n    tag_425:\n        /* \"#utility.yul\":5679:5682   */\n      dup3\n        /* \"#utility.yul\":5672:5709   */\n      mstore\n        /* \"#utility.yul\":5597:5715   */\n      pop\n      pop\n      jump\t// out\n        /* \"#utility.yul\":5721:5943   */\n    tag_88:\n        /* \"#utility.yul\":5814:5818   */\n      0x00\n        /* \"#utility.yul\":5852:5854   */\n      0x20\n        /* \"#utility.yul\":5841:5850   */\n      dup3\n        /* \"#utility.yul\":5837:5855   */\n      add\n        /* \"#utility.yul\":5829:5855   */\n      swap1\n      pop\n        /* \"#utility.yul\":5865:5936   */\n      tag_427\n        /* \"#utility.yul\":5933:5934   */\n      0x00\n        /* \"#utility.yul\":5922:5931   */\n      dup4\n        /* \"#utility.yul\":5918:5935   */\n      add\n        /* \"#utility.yul\":5909:5915   */\n      dup5\n        /* \"#utility.yul\":5865:5936   */\n      tag_303\n      jump\t// in\n    tag_427:\n        /* \"#utility.yul\":5721:5943   */\n      swap3\n      swap2\n      pop\n      pop\n      jump\t// out\n        /* \"#utility.yul\":5949:6066   */\n    tag_304:\n        /* \"#utility.yul\":6058:6059   */\n      0x00\n        /* \"#utility.yul\":6055:6056   */\n      dup1\n        /* \"#utility.yul\":6048:6060   */\n      revert\n        /* \"#utility.yul\":6072:6189   */\n    tag_305:\n        /* \"#utility.yul\":6181:6182   */\n      0x00\n        /* \"#utility.yul\":6178:6179   */\n      dup1\n        /* \"#utility.yul\":6171:6183   */\n      revert\n        /* \"#utility.yul\":6195:6375   */\n    tag_306:\n        /* \"#utility.yul\":6243:6320   */\n      0x4e487b7100000000000000000000000000000000000000000000000000000000\n        /* \"#utility.yul\":6240:6241   */\n      0x00\n        /* \"#utility.yul\":6233:6321   */\n      mstore\n        /* \"#utility.yul\":6340:6344   */\n      0x41\n        /* \"#utility.yul\":6337:6338   */\n      0x04\n        /* \"#utility.yul\":6330:6345   */\n      mstore\n        /* \"#utility.yul\":6364:6368   */\n      0x24\n        /* \"#utility.yul\":6361:6362   */\n      0x00\n        /* \"#utility.yul\":6354:6369   */\n      revert\n        /* \"#utility.yul\":6381:6662   */\n    tag_307:\n        /* \"#utility.yul\":6464:6491   */\n      tag_432\n        /* \"#utility.yul\":6486:6490   */\n      dup3\n        /* \"#utility.yul\":6464:6491   */\n      tag_290\n      jump\t// in\n    tag_432:\n        /* \"#utility.yul\":6456:6462   */\n      dup2\n        /* \"#utility.yul\":6452:6492   */\n      add\n        /* \"#utility.yul\":6594:6600   */\n      dup2\n        /* \"#utility.yul\":6582:6592   */\n      dup2\n        /* \"#utility.yul\":6579:6601   */\n      lt\n        /* \"#utility.yul\":6558:6576   */\n      0xffffffffffffffff\n        /* \"#utility.yul\":6546:6556   */\n      dup3\n        /* \"#utility.yul\":6543:6577   */\n      gt\n        /* \"#utility.yul\":6540:6602   */\n      or\n        /* \"#utility.yul\":6537:6625   */\n      iszero\n      tag_433\n      jumpi\n        /* \"#utility.yul\":6605:6623   */\n      tag_434\n      tag_306\n      jump\t// in\n    tag_434:\n        /* \"#utility.yul\":6537:6625   */\n    tag_433:\n        /* \"#utility.yul\":6645:6655   */\n      dup1\n        /* \"#utility.yul\":6641:6643   */\n      0x40\n        /* \"#utility.yul\":6634:6656   */\n      mstore\n        /* \"#utility.yul\":6424:6662   */\n      pop\n        /* \"#utility.yul\":6381:6662   */\n      pop\n      pop\n      jump\t// out\n        /* \"#utility.yul\":6668:6797   */\n    tag_308:\n        /* \"#utility.yul\":6702:6708   */\n      0x00\n        /* \"#utility.yul\":6729:6749   */\n      tag_436\n      tag_281\n      jump\t// in\n    tag_436:\n        /* \"#utility.yul\":6719:6749   */\n      swap1\n      pop\n        /* \"#utility.yul\":6758:6791   */\n      tag_437\n        /* \"#utility.yul\":6786:6790   */\n      dup3\n        /* \"#utility.yul\":6778:6784   */\n      dup3\n        /* \"#utility.yul\":6758:6791   */\n      tag_307\n      jump\t// in\n    tag_437:\n        /* \"#utility.yul\":6668:6797   */\n      swap2\n      swap1\n      pop\n      jump\t// out\n        /* \"#utility.yul\":6803:7111   */\n    tag_309:\n        /* \"#utility.yul\":6865:6869   */\n      0x00\n        /* \"#utility.yul\":6955:6973   */\n      0xffffffffffffffff\n        /* \"#utility.yul\":6947:6953   */\n      dup3\n        /* \"#utility.yul\":6944:6974   */\n      gt\n        /* \"#utility.yul\":6941:6997   */\n      iszero\n      tag_439\n      jumpi\n        /* \"#utility.yul\":6977:6995   */\n      tag_440\n      tag_306\n      jump\t// in\n    tag_440:\n        /* \"#utility.yul\":6941:6997   */\n    tag_439:\n        /* \"#utility.yul\":7015:7044   */\n      tag_441\n        /* \"#utility.yul\":7037:7043   */\n      dup3\n        /* \"#utility.yul\":7015:7044   */\n      tag_290\n      jump\t// in\n    tag_441:\n        /* \"#utility.yul\":7007:7044   */\n      swap1\n      pop\n        /* \"#utility.yul\":7099:7103   */\n      0x20\n        /* \"#utility.yul\":7093:7097   */\n      dup2\n        /* \"#utility.yul\":7089:7104   */\n      add\n        /* \"#utility.yul\":7081:7104   */\n      swap1\n      pop\n        /* \"#utility.yul\":6803:7111   */\n      swap2\n      swap1\n      pop\n      jump\t// out\n        /* \"#utility.yul\":7117:7265   */\n    tag_310:\n        /* \"#utility.yul\":7215:7221   */\n      dup3\n        /* \"#utility.yul\":7210:7213   */\n      dup2\n        /* \"#utility.yul\":7205:7208   */\n      dup4\n        /* \"#utility.yul\":7192:7222   */\n      calldatacopy\n        /* \"#utility.yul\":7256:7257   */\n      0x00\n        /* \"#utility.yul\":7247:7253   */\n      dup4\n        /* \"#utility.yul\":7242:7245   */\n      dup4\n        /* \"#utility.yul\":7238:7254   */\n      add\n        /* \"#utility.yul\":7231:7258   */\n      mstore\n        /* \"#utility.yul\":7117:7265   */\n      pop\n      pop\n      pop\n      jump\t// out\n        /* \"#utility.yul\":7271:7696   */\n    tag_311:\n        /* \"#utility.yul\":7349:7354   */\n      0x00\n        /* \"#utility.yul\":7374:7440   */\n      tag_444\n        /* \"#utility.yul\":7390:7439   */\n      tag_445\n        /* \"#utility.yul\":7432:7438   */\n      dup5\n        /* \"#utility.yul\":7390:7439   */\n      tag_309\n      jump\t// in\n    tag_445:\n        /* \"#utility.yul\":7374:7440   */\n      tag_308\n      jump\t// in\n    tag_444:\n        /* \"#utility.yul\":7365:7440   */\n      swap1\n      pop\n        /* \"#utility.yul\":7463:7469   */\n      dup3\n        /* \"#utility.yul\":7456:7461   */\n      dup2\n        /* \"#utility.yul\":7449:7470   */\n      mstore\n        /* \"#utility.yul\":7501:7505   */\n      0x20\n        /* \"#utility.yul\":7494:7499   */\n      dup2\n        /* \"#utility.yul\":7490:7506   */\n      add\n        /* \"#utility.yul\":7539:7542   */\n      dup5\n        /* \"#utility.yul\":7530:7536   */\n      dup5\n        /* \"#utility.yul\":7525:7528   */\n      dup5\n        /* \"#utility.yul\":7521:7537   */\n      add\n        /* \"#utility.yul\":7518:7543   */\n      gt\n        /* \"#utility.yul\":7515:7627   */\n      iszero\n      tag_446\n      jumpi\n        /* \"#utility.yul\":7546:7625   */\n      tag_447\n      tag_305\n      jump\t// in\n    tag_447:\n        /* \"#utility.yul\":7515:7627   */\n    tag_446:\n        /* \"#utility.yul\":7636:7690   */\n      tag_448\n        /* \"#utility.yul\":7683:7689   */\n      dup5\n        /* \"#utility.yul\":7678:7681   */\n      dup3\n        /* \"#utility.yul\":7673:7676   */\n      dup6\n        /* \"#utility.yul\":7636:7690   */\n      tag_310\n      jump\t// in\n    tag_448:\n        /* \"#utility.yul\":7355:7696   */\n      pop\n        /* \"#utility.yul\":7271:7696   */\n      swap4\n      swap3\n      pop\n      pop\n      pop\n      jump\t// out\n        /* \"#utility.yul\":7716:8056   */\n    tag_312:\n        /* \"#utility.yul\":7772:7777   */\n      0x00\n        /* \"#utility.yul\":7821:7824   */\n      dup3\n        /* \"#utility.yul\":7814:7818   */\n      0x1f\n        /* \"#utility.yul\":7806:7812   */\n      dup4\n        /* \"#utility.yul\":7802:7819   */\n      add\n        /* \"#utility.yul\":7798:7825   */\n      slt\n        /* \"#utility.yul\":7788:7910   */\n      tag_450\n      jumpi\n        /* \"#utility.yul\":7829:7908   */\n      tag_451\n      tag_304\n      jump\t// in\n    tag_451:\n        /* \"#utility.yul\":7788:7910   */\n    tag_450:\n        /* \"#utility.yul\":7946:7952   */\n      dup2\n        /* \"#utility.yul\":7933:7953   */\n      calldataload\n        /* \"#utility.yul\":7971:8050   */\n      tag_452\n        /* \"#utility.yul\":8046:8049   */\n      dup5\n        /* \"#utility.yul\":8038:8044   */\n      dup3\n        /* \"#utility.yul\":8031:8035   */\n      0x20\n        /* \"#utility.yul\":8023:8029   */\n      dup7\n        /* \"#utility.yul\":8019:8036   */\n      add\n        /* \"#utility.yul\":7971:8050   */\n      tag_311\n      jump\t// in\n    tag_452:\n        /* \"#utility.yul\":7962:8050   */\n      swap2\n      pop\n        /* \"#utility.yul\":7778:8056   */\n      pop\n        /* \"#utility.yul\":7716:8056   */\n      swap3\n      swap2\n      pop\n      pop\n      jump\t// out\n        /* \"#utility.yul\":8062:8716   */\n    tag_92:\n        /* \"#utility.yul\":8140:8146   */\n      0x00\n        /* \"#utility.yul\":8148:8154   */\n      dup1\n        /* \"#utility.yul\":8197:8199   */\n      0x40\n        /* \"#utility.yul\":8185:8194   */\n      dup4\n        /* \"#utility.yul\":8176:8183   */\n      dup6\n        /* \"#utility.yul\":8172:8195   */\n      sub\n        /* \"#utility.yul\":8168:8200   */\n      slt\n        /* \"#utility.yul\":8165:8284   */\n      iszero\n      tag_454\n      jumpi\n        /* \"#utility.yul\":8203:8282   */\n      tag_455\n      tag_282\n      jump\t// in\n    tag_455:\n        /* \"#utility.yul\":8165:8284   */\n    tag_454:\n        /* \"#utility.yul\":8351:8352   */\n      0x00\n        /* \"#utility.yul\":8340:8349   */\n      dup4\n        /* \"#utility.yul\":8336:8353   */\n      add\n        /* \"#utility.yul\":8323:8354   */\n      calldataload\n        /* \"#utility.yul\":8381:8399   */\n      0xffffffffffffffff\n        /* \"#utility.yul\":8373:8379   */\n      dup2\n        /* \"#utility.yul\":8370:8400   */\n      gt\n        /* \"#utility.yul\":8367:8484   */\n      iszero\n      tag_456\n      jumpi\n        /* \"#utility.yul\":8403:8482   */\n      tag_457\n      tag_283\n      jump\t// in\n    tag_457:\n        /* \"#utility.yul\":8367:8484   */\n    tag_456:\n        /* \"#utility.yul\":8508:8571   */\n      tag_458\n        /* \"#utility.yul\":8563:8570   */\n      dup6\n        /* \"#utility.yul\":8554:8560   */\n      dup3\n        /* \"#utility.yul\":8543:8552   */\n      dup7\n        /* \"#utility.yul\":8539:8561   */\n      add\n        /* \"#utility.yul\":8508:8571   */\n      tag_312\n      jump\t// in\n    tag_458:\n        /* \"#utility.yul\":8498:8571   */\n      swap3\n      pop\n        /* \"#utility.yul\":8294:8581   */\n      pop\n        /* \"#utility.yul\":8620:8622   */\n      0x20\n        /* \"#utility.yul\":8646:8699   */\n      tag_459\n        /* \"#utility.yul\":8691:8698   */\n      dup6\n        /* \"#utility.yul\":8682:8688   */\n      dup3\n        /* \"#utility.yul\":8671:8680   */\n      dup7\n        /* \"#utility.yul\":8667:8689   */\n      add\n        /* \"#utility.yul\":8646:8699   */\n      tag_286\n      jump\t// in\n    tag_459:\n        /* \"#utility.yul\":8636:8699   */\n      swap2\n      pop\n        /* \"#utility.yul\":8591:8709   */\n      pop\n        /* \"#utility.yul\":8062:8716   */\n      swap3\n      pop\n      swap3\n      swap1\n      pop\n      jump\t// out\n        /* \"#utility.yul\":8722:9051   */\n    tag_97:\n        /* \"#utility.yul\":8781:8787   */\n      0x00\n        /* \"#utility.yul\":8830:8832   */\n      0x20\n        /* \"#utility.yul\":8818:8827   */\n      dup3\n        /* \"#utility.yul\":8809:8816   */\n      dup5\n        /* \"#utility.yul\":8805:8828   */\n      sub\n        /* \"#utility.yul\":8801:8833   */\n      slt\n        /* \"#utility.yul\":8798:8917   */\n      iszero\n      tag_461\n      jumpi\n        /* \"#utility.yul\":8836:8915   */\n      tag_462\n      tag_282\n      jump\t// in\n    tag_462:\n        /* \"#utility.yul\":8798:8917   */\n    tag_461:\n        /* \"#utility.yul\":8956:8957   */\n      0x00\n        /* \"#utility.yul\":8981:9034   */\n      tag_463\n        /* \"#utility.yul\":9026:9033   */\n      dup5\n        /* \"#utility.yul\":9017:9023   */\n      dup3\n        /* \"#utility.yul\":9006:9015   */\n      dup6\n        /* \"#utility.yul\":9002:9024   */\n      add\n        /* \"#utility.yul\":8981:9034   */\n      tag_302\n      jump\t// in\n    tag_463:\n        /* \"#utility.yul\":8971:9034   */\n      swap2\n      pop\n        /* \"#utility.yul\":8927:9044   */\n      pop\n        /* \"#utility.yul\":8722:9051   */\n      swap3\n      swap2\n      pop\n      pop\n      jump\t// out\n        /* \"#utility.yul\":9057:9191   */\n    tag_313:\n        /* \"#utility.yul\":9144:9150   */\n      0x00\n        /* \"#utility.yul\":9178:9183   */\n      dup2\n        /* \"#utility.yul\":9172:9184   */\n      mload\n        /* \"#utility.yul\":9162:9184   */\n      swap1\n      pop\n        /* \"#utility.yul\":9057:9191   */\n      swap2\n      swap1\n      pop\n      jump\t// out\n        /* \"#utility.yul\":9197:9401   */\n    tag_314:\n        /* \"#utility.yul\":9316:9327   */\n      0x00\n        /* \"#utility.yul\":9350:9356   */\n      dup3\n        /* \"#utility.yul\":9345:9348   */\n      dup3\n        /* \"#utility.yul\":9338:9357   */\n      mstore\n        /* \"#utility.yul\":9390:9394   */\n      0x20\n        /* \"#utility.yul\":9385:9388   */\n      dup3\n        /* \"#utility.yul\":9381:9395   */\n      add\n        /* \"#utility.yul\":9366:9395   */\n      swap1\n      pop\n        /* \"#utility.yul\":9197:9401   */\n      swap3\n      swap2\n      pop\n      pop\n      jump\t// out\n        /* \"#utility.yul\":9407:9559   */\n    tag_315:\n        /* \"#utility.yul\":9494:9498   */\n      0x00\n        /* \"#utility.yul\":9517:9520   */\n      dup2\n        /* \"#utility.yul\":9509:9520   */\n      swap1\n      pop\n        /* \"#utility.yul\":9547:9551   */\n      0x20\n        /* \"#utility.yul\":9542:9545   */\n      dup3\n        /* \"#utility.yul\":9538:9552   */\n      add\n        /* \"#utility.yul\":9530:9552   */\n      swap1\n      pop\n        /* \"#utility.yul\":9407:9559   */\n      swap2\n      swap1\n      pop\n      jump\t// out\n        /* \"#utility.yul\":9565:9724   */\n    tag_316:\n        /* \"#utility.yul\":9639:9650   */\n      0x00\n        /* \"#utility.yul\":9673:9679   */\n      dup3\n        /* \"#utility.yul\":9668:9671   */\n      dup3\n        /* \"#utility.yul\":9661:9680   */\n      mstore\n        /* \"#utility.yul\":9713:9717   */\n      0x20\n        /* \"#utility.yul\":9708:9711   */\n      dup3\n        /* \"#utility.yul\":9704:9718   */\n      add\n        /* \"#utility.yul\":9689:9718   */\n      swap1\n      pop\n        /* \"#utility.yul\":9565:9724   */\n      swap3\n      swap2\n      pop\n      pop\n      jump\t// out\n        /* \"#utility.yul\":9730:10087   */\n    tag_317:\n        /* \"#utility.yul\":9808:9811   */\n      0x00\n        /* \"#utility.yul\":9836:9875   */\n      tag_469\n        /* \"#utility.yul\":9869:9874   */\n      dup3\n        /* \"#utility.yul\":9836:9875   */\n      tag_287\n      jump\t// in\n    tag_469:\n        /* \"#utility.yul\":9891:9952   */\n      tag_470\n        /* \"#utility.yul\":9945:9951   */\n      dup2\n        /* \"#utility.yul\":9940:9943   */\n      dup6\n        /* \"#utility.yul\":9891:9952   */\n      tag_316\n      jump\t// in\n    tag_470:\n        /* \"#utility.yul\":9884:9952   */\n      swap4\n      pop\n        /* \"#utility.yul\":9961:10026   */\n      tag_471\n        /* \"#utility.yul\":10019:10025   */\n      dup2\n        /* \"#utility.yul\":10014:10017   */\n      dup6\n        /* \"#utility.yul\":10007:10011   */\n      0x20\n        /* \"#utility.yul\":10000:10005   */\n      dup7\n        /* \"#utility.yul\":9996:10012   */\n      add\n        /* \"#utility.yul\":9961:10026   */\n      tag_289\n      jump\t// in\n    tag_471:\n        /* \"#utility.yul\":10051:10080   */\n      tag_472\n        /* \"#utility.yul\":10073:10079   */\n      dup2\n        /* \"#utility.yul\":10051:10080   */\n      tag_290\n      jump\t// in\n    tag_472:\n        /* \"#utility.yul\":10046:10049   */\n      dup5\n        /* \"#utility.yul\":10042:10081   */\n      add\n        /* \"#utility.yul\":10035:10081   */\n      swap2\n      pop\n        /* \"#utility.yul\":9812:10087   */\n      pop\n        /* \"#utility.yul\":9730:10087   */\n      swap3\n      swap2\n      pop\n      pop\n      jump\t// out\n        /* \"#utility.yul\":10093:10201   */\n    tag_318:\n        /* \"#utility.yul\":10170:10194   */\n      tag_474\n        /* \"#utility.yul\":10188:10193   */\n      dup2\n        /* \"#utility.yul\":10170:10194   */\n      tag_284\n      jump\t// in\n    tag_474:\n        /* \"#utility.yul\":10165:10168   */\n      dup3\n        /* \"#utility.yul\":10158:10195   */\n      mstore\n        /* \"#utility.yul\":10093:10201   */\n      pop\n      pop\n      jump\t// out\n        /* \"#utility.yul\":10267:11032   */\n    tag_319:\n        /* \"#utility.yul\":10366:10369   */\n      0x00\n        /* \"#utility.yul\":10402:10406   */\n      0x60\n        /* \"#utility.yul\":10397:10400   */\n      dup4\n        /* \"#utility.yul\":10393:10407   */\n      add\n        /* \"#utility.yul\":10489:10493   */\n      0x00\n        /* \"#utility.yul\":10482:10487   */\n      dup4\n        /* \"#utility.yul\":10478:10494   */\n      add\n        /* \"#utility.yul\":10472:10495   */\n      mload\n        /* \"#utility.yul\":10542:10545   */\n      dup5\n        /* \"#utility.yul\":10536:10540   */\n      dup3\n        /* \"#utility.yul\":10532:10546   */\n      sub\n        /* \"#utility.yul\":10525:10529   */\n      0x00\n        /* \"#utility.yul\":10520:10523   */\n      dup7\n        /* \"#utility.yul\":10516:10530   */\n      add\n        /* \"#utility.yul\":10509:10547   */\n      mstore\n        /* \"#utility.yul\":10568:10641   */\n      tag_476\n        /* \"#utility.yul\":10636:10640   */\n      dup3\n        /* \"#utility.yul\":10622:10634   */\n      dup3\n        /* \"#utility.yul\":10568:10641   */\n      tag_317\n      jump\t// in\n    tag_476:\n        /* \"#utility.yul\":10560:10641   */\n      swap2\n      pop\n        /* \"#utility.yul\":10417:10652   */\n      pop\n        /* \"#utility.yul\":10736:10740   */\n      0x20\n        /* \"#utility.yul\":10729:10734   */\n      dup4\n        /* \"#utility.yul\":10725:10741   */\n      add\n        /* \"#utility.yul\":10719:10742   */\n      mload\n        /* \"#utility.yul\":10755:10818   */\n      tag_477\n        /* \"#utility.yul\":10812:10816   */\n      0x20\n        /* \"#utility.yul\":10807:10810   */\n      dup7\n        /* \"#utility.yul\":10803:10817   */\n      add\n        /* \"#utility.yul\":10789:10801   */\n      dup3\n        /* \"#utility.yul\":10755:10818   */\n      tag_318\n      jump\t// in\n    tag_477:\n        /* \"#utility.yul\":10662:10828   */\n      pop\n        /* \"#utility.yul\":10913:10917   */\n      0x40\n        /* \"#utility.yul\":10906:10911   */\n      dup4\n        /* \"#utility.yul\":10902:10918   */\n      add\n        /* \"#utility.yul\":10896:10919   */\n      mload\n        /* \"#utility.yul\":10932:10995   */\n      tag_478\n        /* \"#utility.yul\":10989:10993   */\n      0x40\n        /* \"#utility.yul\":10984:10987   */\n      dup7\n        /* \"#utility.yul\":10980:10994   */\n      add\n        /* \"#utility.yul\":10966:10978   */\n      dup3\n        /* \"#utility.yul\":10932:10995   */\n      tag_318\n      jump\t// in\n    tag_478:\n        /* \"#utility.yul\":10838:11005   */\n      pop\n        /* \"#utility.yul\":11022:11026   */\n      dup1\n        /* \"#utility.yul\":11015:11026   */\n      swap2\n      pop\n        /* \"#utility.yul\":10371:11032   */\n      pop\n        /* \"#utility.yul\":10267:11032   */\n      swap3\n      swap2\n      pop\n      pop\n      jump\t// out\n        /* \"#utility.yul\":11038:11274   */\n    tag_320:\n        /* \"#utility.yul\":11147:11157   */\n      0x00\n        /* \"#utility.yul\":11182:11268   */\n      tag_480\n        /* \"#utility.yul\":11264:11267   */\n      dup4\n        /* \"#utility.yul\":11256:11262   */\n      dup4\n        /* \"#utility.yul\":11182:11268   */\n      tag_319\n      jump\t// in\n    tag_480:\n        /* \"#utility.yul\":11168:11268   */\n      swap1\n      pop\n        /* \"#utility.yul\":11038:11274   */\n      swap3\n      swap2\n      pop\n      pop\n      jump\t// out\n        /* \"#utility.yul\":11280:11413   */\n    tag_321:\n        /* \"#utility.yul\":11370:11374   */\n      0x00\n        /* \"#utility.yul\":11402:11406   */\n      0x20\n        /* \"#utility.yul\":11397:11400   */\n      dup3\n        /* \"#utility.yul\":11393:11407   */\n      add\n        /* \"#utility.yul\":11385:11407   */\n      swap1\n      pop\n        /* \"#utility.yul\":11280:11413   */\n      swap2\n      swap1\n      pop\n      jump\t// out\n        /* \"#utility.yul\":11483:12554   */\n    tag_322:\n        /* \"#utility.yul\":11642:11645   */\n      0x00\n        /* \"#utility.yul\":11671:11745   */\n      tag_483\n        /* \"#utility.yul\":11739:11744   */\n      dup3\n        /* \"#utility.yul\":11671:11745   */\n      tag_313\n      jump\t// in\n    tag_483:\n        /* \"#utility.yul\":11761:11867   */\n      tag_484\n        /* \"#utility.yul\":11860:11866   */\n      dup2\n        /* \"#utility.yul\":11855:11858   */\n      dup6\n        /* \"#utility.yul\":11761:11867   */\n      tag_314\n      jump\t// in\n    tag_484:\n        /* \"#utility.yul\":11754:11867   */\n      swap4\n      pop\n        /* \"#utility.yul\":11893:11896   */\n      dup4\n        /* \"#utility.yul\":11938:11942   */\n      0x20\n        /* \"#utility.yul\":11930:11936   */\n      dup3\n        /* \"#utility.yul\":11926:11943   */\n      mul\n        /* \"#utility.yul\":11921:11924   */\n      dup6\n        /* \"#utility.yul\":11917:11944   */\n      add\n        /* \"#utility.yul\":11968:12044   */\n      tag_485\n        /* \"#utility.yul\":12038:12043   */\n      dup6\n        /* \"#utility.yul\":11968:12044   */\n      tag_315\n      jump\t// in\n    tag_485:\n        /* \"#utility.yul\":12067:12074   */\n      dup1\n        /* \"#utility.yul\":12098:12099   */\n      0x00\n        /* \"#utility.yul\":12083:12509   */\n    tag_486:\n        /* \"#utility.yul\":12108:12114   */\n      dup6\n        /* \"#utility.yul\":12105:12106   */\n      dup2\n        /* \"#utility.yul\":12102:12115   */\n      lt\n        /* \"#utility.yul\":12083:12509   */\n      iszero\n      tag_488\n      jumpi\n        /* \"#utility.yul\":12179:12188   */\n      dup5\n        /* \"#utility.yul\":12173:12177   */\n      dup5\n        /* \"#utility.yul\":12169:12189   */\n      sub\n        /* \"#utility.yul\":12164:12167   */\n      dup10\n        /* \"#utility.yul\":12157:12190   */\n      mstore\n        /* \"#utility.yul\":12230:12236   */\n      dup2\n        /* \"#utility.yul\":12224:12237   */\n      mload\n        /* \"#utility.yul\":12258:12362   */\n      tag_489\n        /* \"#utility.yul\":12357:12361   */\n      dup6\n        /* \"#utility.yul\":12342:12355   */\n      dup3\n        /* \"#utility.yul\":12258:12362   */\n      tag_320\n      jump\t// in\n    tag_489:\n        /* \"#utility.yul\":12250:12362   */\n      swap5\n      pop\n        /* \"#utility.yul\":12385:12465   */\n      tag_490\n        /* \"#utility.yul\":12458:12464   */\n      dup4\n        /* \"#utility.yul\":12385:12465   */\n      tag_321\n      jump\t// in\n    tag_490:\n        /* \"#utility.yul\":12375:12465   */\n      swap3\n      pop\n        /* \"#utility.yul\":12494:12498   */\n      0x20\n        /* \"#utility.yul\":12489:12492   */\n      dup11\n        /* \"#utility.yul\":12485:12499   */\n      add\n        /* \"#utility.yul\":12478:12499   */\n      swap10\n      pop\n        /* \"#utility.yul\":12143:12509   */\n      pop\n        /* \"#utility.yul\":12130:12131   */\n      0x01\n        /* \"#utility.yul\":12127:12128   */\n      dup2\n        /* \"#utility.yul\":12123:12132   */\n      add\n        /* \"#utility.yul\":12118:12132   */\n      swap1\n      pop\n        /* \"#utility.yul\":12083:12509   */\n      jump(tag_486)\n    tag_488:\n        /* \"#utility.yul\":12087:12101   */\n      pop\n        /* \"#utility.yul\":12525:12529   */\n      dup3\n        /* \"#utility.yul\":12518:12529   */\n      swap8\n      pop\n        /* \"#utility.yul\":12545:12548   */\n      dup8\n        /* \"#utility.yul\":12538:12548   */\n      swap6\n      pop\n        /* \"#utility.yul\":11647:12554   */\n      pop\n      pop\n      pop\n      pop\n      pop\n        /* \"#utility.yul\":11483:12554   */\n      swap3\n      swap2\n      pop\n      pop\n      jump\t// out\n        /* \"#utility.yul\":12560:13013   */\n    tag_114:\n        /* \"#utility.yul\":12743:12747   */\n      0x00\n        /* \"#utility.yul\":12781:12783   */\n      0x20\n        /* \"#utility.yul\":12770:12779   */\n      dup3\n        /* \"#utility.yul\":12766:12784   */\n      add\n        /* \"#utility.yul\":12758:12784   */\n      swap1\n      pop\n        /* \"#utility.yul\":12830:12839   */\n      dup2\n        /* \"#utility.yul\":12824:12828   */\n      dup2\n        /* \"#utility.yul\":12820:12840   */\n      sub\n        /* \"#utility.yul\":12816:12817   */\n      0x00\n        /* \"#utility.yul\":12805:12814   */\n      dup4\n        /* \"#utility.yul\":12801:12818   */\n      add\n        /* \"#utility.yul\":12794:12841   */\n      mstore\n        /* \"#utility.yul\":12858:13006   */\n      tag_492\n        /* \"#utility.yul\":13001:13005   */\n      dup2\n        /* \"#utility.yul\":12992:12998   */\n      dup5\n        /* \"#utility.yul\":12858:13006   */\n      tag_322\n      jump\t// in\n    tag_492:\n        /* \"#utility.yul\":12850:13006   */\n      swap1\n      pop\n        /* \"#utility.yul\":12560:13013   */\n      swap3\n      swap2\n      pop\n      pop\n      jump\t// out\n        /* \"#utility.yul\":13019:13199   */\n    tag_323:\n        /* \"#utility.yul\":13067:13144   */\n      0x4e487b7100000000000000000000000000000000000000000000000000000000\n        /* \"#utility.yul\":13064:13065   */\n      0x00\n        /* \"#utility.yul\":13057:13145   */\n      mstore\n        /* \"#utility.yul\":13164:13168   */\n      0x22\n        /* \"#utility.yul\":13161:13162   */\n      0x04\n        /* \"#utility.yul\":13154:13169   */\n      mstore\n        /* \"#utility.yul\":13188:13192   */\n      0x24\n        /* \"#utility.yul\":13185:13186   */\n      0x00\n        /* \"#utility.yul\":13178:13193   */\n      revert\n        /* \"#utility.yul\":13205:13525   */\n    tag_118:\n        /* \"#utility.yul\":13249:13255   */\n      0x00\n        /* \"#utility.yul\":13286:13287   */\n      0x02\n        /* \"#utility.yul\":13280:13284   */\n      dup3\n        /* \"#utility.yul\":13276:13288   */\n      div\n        /* \"#utility.yul\":13266:13288   */\n      swap1\n      pop\n        /* \"#utility.yul\":13333:13334   */\n      0x01\n        /* \"#utility.yul\":13327:13331   */\n      dup3\n        /* \"#utility.yul\":13323:13335   */\n      and\n        /* \"#utility.yul\":13354:13372   */\n      dup1\n        /* \"#utility.yul\":13344:13425   */\n      tag_495\n      jumpi\n        /* \"#utility.yul\":13410:13414   */\n      0x7f\n        /* \"#utility.yul\":13402:13408   */\n      dup3\n        /* \"#utility.yul\":13398:13415   */\n      and\n        /* \"#utility.yul\":13388:13415   */\n      swap2\n      pop\n        /* \"#utility.yul\":13344:13425   */\n    tag_495:\n        /* \"#utility.yul\":13472:13474   */\n      0x20\n        /* \"#utility.yul\":13464:13470   */\n      dup3\n        /* \"#utility.yul\":13461:13475   */\n      lt\n        /* \"#utility.yul\":13441:13459   */\n      dup2\n        /* \"#utility.yul\":13438:13476   */\n      sub\n        /* \"#utility.yul\":13435:13519   */\n      tag_496\n      jumpi\n        /* \"#utility.yul\":13491:13509   */\n      tag_497\n      tag_323\n      jump\t// in\n    tag_497:\n        /* \"#utility.yul\":13435:13519   */\n    tag_496:\n        /* \"#utility.yul\":13256:13525   */\n      pop\n        /* \"#utility.yul\":13205:13525   */\n      swap2\n      swap1\n      pop\n      jump\t// out\n        /* \"#utility.yul\":13531:13694   */\n    tag_324:\n        /* \"#utility.yul\":13671:13686   */\n      0x4e6f7420746865204f776e657200000000000000000000000000000000000000\n        /* \"#utility.yul\":13667:13668   */\n      0x00\n        /* \"#utility.yul\":13659:13665   */\n      dup3\n        /* \"#utility.yul\":13655:13669   */\n      add\n        /* \"#utility.yul\":13648:13687   */\n      mstore\n        /* \"#utility.yul\":13531:13694   */\n      pop\n      jump\t// out\n        /* \"#utility.yul\":13700:14066   */\n    tag_325:\n        /* \"#utility.yul\":13842:13845   */\n      0x00\n        /* \"#utility.yul\":13863:13930   */\n      tag_500\n        /* \"#utility.yul\":13927:13929   */\n      0x0d\n        /* \"#utility.yul\":13922:13925   */\n      dup4\n        /* \"#utility.yul\":13863:13930   */\n      tag_288\n      jump\t// in\n    tag_500:\n        /* \"#utility.yul\":13856:13930   */\n      swap2\n      pop\n        /* \"#utility.yul\":13939:14032   */\n      tag_501\n        /* \"#utility.yul\":14028:14031   */\n      dup3\n        /* \"#utility.yul\":13939:14032   */\n      tag_324\n      jump\t// in\n    tag_501:\n        /* \"#utility.yul\":14057:14059   */\n      0x20\n        /* \"#utility.yul\":14052:14055   */\n      dup3\n        /* \"#utility.yul\":14048:14060   */\n      add\n        /* \"#utility.yul\":14041:14060   */\n      swap1\n      pop\n        /* \"#utility.yul\":13700:14066   */\n      swap2\n      swap1\n      pop\n      jump\t// out\n        /* \"#utility.yul\":14072:14491   */\n    tag_142:\n        /* \"#utility.yul\":14238:14242   */\n      0x00\n        /* \"#utility.yul\":14276:14278   */\n      0x20\n        /* \"#utility.yul\":14265:14274   */\n      dup3\n        /* \"#utility.yul\":14261:14279   */\n      add\n        /* \"#utility.yul\":14253:14279   */\n      swap1\n      pop\n        /* \"#utility.yul\":14325:14334   */\n      dup2\n        /* \"#utility.yul\":14319:14323   */\n      dup2\n        /* \"#utility.yul\":14315:14335   */\n      sub\n        /* \"#utility.yul\":14311:14312   */\n      0x00\n        /* \"#utility.yul\":14300:14309   */\n      dup4\n        /* \"#utility.yul\":14296:14313   */\n      add\n        /* \"#utility.yul\":14289:14336   */\n      mstore\n        /* \"#utility.yul\":14353:14484   */\n      tag_503\n        /* \"#utility.yul\":14479:14483   */\n      dup2\n        /* \"#utility.yul\":14353:14484   */\n      tag_325\n      jump\t// in\n    tag_503:\n        /* \"#utility.yul\":14345:14484   */\n      swap1\n      pop\n        /* \"#utility.yul\":14072:14491   */\n      swap2\n      swap1\n      pop\n      jump\t// out\n        /* \"#utility.yul\":14497:14668   */\n    tag_326:\n        /* \"#utility.yul\":14637:14660   */\n      0x43616d7061696e206973204e6f74204163746976650000000000000000000000\n        /* \"#utility.yul\":14633:14634   */\n      0x00\n        /* \"#utility.yul\":14625:14631   */\n      dup3\n        /* \"#utility.yul\":14621:14635   */\n      add\n        /* \"#utility.yul\":14614:14661   */\n      mstore\n        /* \"#utility.yul\":14497:14668   */\n      pop\n      jump\t// out\n        /* \"#utility.yul\":14674:15040   */\n    tag_327:\n        /* \"#utility.yul\":14816:14819   */\n      0x00\n        /* \"#utility.yul\":14837:14904   */\n      tag_506\n        /* \"#utility.yul\":14901:14903   */\n      0x15\n        /* \"#utility.yul\":14896:14899   */\n      dup4\n        /* \"#utility.yul\":14837:14904   */\n      tag_288\n      jump\t// in\n    tag_506:\n        /* \"#utility.yul\":14830:14904   */\n      swap2\n      pop\n        /* \"#utility.yul\":14913:15006   */\n      tag_507\n        /* \"#utility.yul\":15002:15005   */\n      dup3\n        /* \"#utility.yul\":14913:15006   */\n      tag_326\n      jump\t// in\n    tag_507:\n        /* \"#utility.yul\":15031:15033   */\n      0x20\n        /* \"#utility.yul\":15026:15029   */\n      dup3\n        /* \"#utility.yul\":15022:15034   */\n      add\n        /* \"#utility.yul\":15015:15034   */\n      swap1\n      pop\n        /* \"#utility.yul\":14674:15040   */\n      swap2\n      swap1\n      pop\n      jump\t// out\n        /* \"#utility.yul\":15046:15465   */\n    tag_150:\n        /* \"#utility.yul\":15212:15216   */\n      0x00\n        /* \"#utility.yul\":15250:15252   */\n      0x20\n        /* \"#utility.yul\":15239:15248   */\n      dup3\n        /* \"#utility.yul\":15235:15253   */\n      add\n        /* \"#utility.yul\":15227:15253   */\n      swap1\n      pop\n        /* \"#utility.yul\":15299:15308   */\n      dup2\n        /* \"#utility.yul\":15293:15297   */\n      dup2\n        /* \"#utility.yul\":15289:15309   */\n      sub\n        /* \"#utility.yul\":15285:15286   */\n      0x00\n        /* \"#utility.yul\":15274:15283   */\n      dup4\n        /* \"#utility.yul\":15270:15287   */\n      add\n        /* \"#utility.yul\":15263:15310   */\n      mstore\n        /* \"#utility.yul\":15327:15458   */\n      tag_509\n        /* \"#utility.yul\":15453:15457   */\n      dup2\n        /* \"#utility.yul\":15327:15458   */\n      tag_327\n      jump\t// in\n    tag_509:\n        /* \"#utility.yul\":15319:15458   */\n      swap1\n      pop\n        /* \"#utility.yul\":15046:15465   */\n      swap2\n      swap1\n      pop\n      jump\t// out\n        /* \"#utility.yul\":15471:15651   */\n    tag_328:\n        /* \"#utility.yul\":15519:15596   */\n      0x4e487b7100000000000000000000000000000000000000000000000000000000\n        /* \"#utility.yul\":15516:15517   */\n      0x00\n        /* \"#utility.yul\":15509:15597   */\n      mstore\n        /* \"#utility.yul\":15616:15620   */\n      0x11\n        /* \"#utility.yul\":15613:15614   */\n      0x04\n        /* \"#utility.yul\":15606:15621   */\n      mstore\n        /* \"#utility.yul\":15640:15644   */\n      0x24\n        /* \"#utility.yul\":15637:15638   */\n      0x00\n        /* \"#utility.yul\":15630:15645   */\n      revert\n        /* \"#utility.yul\":15657:15848   */\n    tag_153:\n        /* \"#utility.yul\":15697:15700   */\n      0x00\n        /* \"#utility.yul\":15716:15736   */\n      tag_512\n        /* \"#utility.yul\":15734:15735   */\n      dup3\n        /* \"#utility.yul\":15716:15736   */\n      tag_284\n      jump\t// in\n    tag_512:\n        /* \"#utility.yul\":15711:15736   */\n      swap2\n      pop\n        /* \"#utility.yul\":15750:15770   */\n      tag_513\n        /* \"#utility.yul\":15768:15769   */\n      dup4\n        /* \"#utility.yul\":15750:15770   */\n      tag_284\n      jump\t// in\n    tag_513:\n        /* \"#utility.yul\":15745:15770   */\n      swap3\n      pop\n        /* \"#utility.yul\":15793:15794   */\n      dup3\n        /* \"#utility.yul\":15790:15791   */\n      dup3\n        /* \"#utility.yul\":15786:15795   */\n      add\n        /* \"#utility.yul\":15779:15795   */\n      swap1\n      pop\n        /* \"#utility.yul\":15814:15817   */\n      dup1\n        /* \"#utility.yul\":15811:15812   */\n      dup3\n        /* \"#utility.yul\":15808:15818   */\n      gt\n        /* \"#utility.yul\":15805:15841   */\n      iszero\n      tag_514\n      jumpi\n        /* \"#utility.yul\":15821:15839   */\n      tag_515\n      tag_328\n      jump\t// in\n    tag_515:\n        /* \"#utility.yul\":15805:15841   */\n    tag_514:\n        /* \"#utility.yul\":15657:15848   */\n      swap3\n      swap2\n      pop\n      pop\n      jump\t// out\n        /* \"#utility.yul\":15854:16025   */\n    tag_329:\n        /* \"#utility.yul\":15994:16017   */\n      0x43616d7061696e206e6f742073756365737366756c0000000000000000000000\n        /* \"#utility.yul\":15990:15991   */\n      0x00\n        /* \"#utility.yul\":15982:15988   */\n      dup3\n        /* \"#utility.yul\":15978:15992   */\n      add\n        /* \"#utility.yul\":15971:16018   */\n      mstore\n        /* \"#utility.yul\":15854:16025   */\n      pop\n      jump\t// out\n        /* \"#utility.yul\":16031:16397   */\n    tag_330:\n        /* \"#utility.yul\":16173:16176   */\n      0x00\n        /* \"#utility.yul\":16194:16261   */\n      tag_518\n        /* \"#utility.yul\":16258:16260   */\n      0x15\n        /* \"#utility.yul\":16253:16256   */\n      dup4\n        /* \"#utility.yul\":16194:16261   */\n      tag_288\n      jump\t// in\n    tag_518:\n        /* \"#utility.yul\":16187:16261   */\n      swap2\n      pop\n        /* \"#utility.yul\":16270:16363   */\n      tag_519\n        /* \"#utility.yul\":16359:16362   */\n      dup3\n        /* \"#utility.yul\":16270:16363   */\n      tag_329\n      jump\t// in\n    tag_519:\n        /* \"#utility.yul\":16388:16390   */\n      0x20\n        /* \"#utility.yul\":16383:16386   */\n      dup3\n        /* \"#utility.yul\":16379:16391   */\n      add\n        /* \"#utility.yul\":16372:16391   */\n      swap1\n      pop\n        /* \"#utility.yul\":16031:16397   */\n      swap2\n      swap1\n      pop\n      jump\t// out\n        /* \"#utility.yul\":16403:16822   */\n    tag_167:\n        /* \"#utility.yul\":16569:16573   */\n      0x00\n        /* \"#utility.yul\":16607:16609   */\n      0x20\n        /* \"#utility.yul\":16596:16605   */\n      dup3\n        /* \"#utility.yul\":16592:16610   */\n      add\n        /* \"#utility.yul\":16584:16610   */\n      swap1\n      pop\n        /* \"#utility.yul\":16656:16665   */\n      dup2\n        /* \"#utility.yul\":16650:16654   */\n      dup2\n        /* \"#utility.yul\":16646:16666   */\n      sub\n        /* \"#utility.yul\":16642:16643   */\n      0x00\n        /* \"#utility.yul\":16631:16640   */\n      dup4\n        /* \"#utility.yul\":16627:16644   */\n      add\n        /* \"#utility.yul\":16620:16667   */\n      mstore\n        /* \"#utility.yul\":16684:16815   */\n      tag_521\n        /* \"#utility.yul\":16810:16814   */\n      dup2\n        /* \"#utility.yul\":16684:16815   */\n      tag_330\n      jump\t// in\n    tag_521:\n        /* \"#utility.yul\":16676:16815   */\n      swap1\n      pop\n        /* \"#utility.yul\":16403:16822   */\n      swap2\n      swap1\n      pop\n      jump\t// out\n        /* \"#utility.yul\":16828:17000   */\n    tag_331:\n        /* \"#utility.yul\":16968:16992   */\n      0x4e6f2062616c616e636520746f20776974686472617700000000000000000000\n        /* \"#utility.yul\":16964:16965   */\n      0x00\n        /* \"#utility.yul\":16956:16962   */\n      dup3\n        /* \"#utility.yul\":16952:16966   */\n      add\n        /* \"#utility.yul\":16945:16993   */\n      mstore\n        /* \"#utility.yul\":16828:17000   */\n      pop\n      jump\t// out\n        /* \"#utility.yul\":17006:17372   */\n    tag_332:\n        /* \"#utility.yul\":17148:17151   */\n      0x00\n        /* \"#utility.yul\":17169:17236   */\n      tag_524\n        /* \"#utility.yul\":17233:17235   */\n      0x16\n        /* \"#utility.yul\":17228:17231   */\n      dup4\n        /* \"#utility.yul\":17169:17236   */\n      tag_288\n      jump\t// in\n    tag_524:\n        /* \"#utility.yul\":17162:17236   */\n      swap2\n      pop\n        /* \"#utility.yul\":17245:17338   */\n      tag_525\n        /* \"#utility.yul\":17334:17337   */\n      dup3\n        /* \"#utility.yul\":17245:17338   */\n      tag_331\n      jump\t// in\n    tag_525:\n        /* \"#utility.yul\":17363:17365   */\n      0x20\n        /* \"#utility.yul\":17358:17361   */\n      dup3\n        /* \"#utility.yul\":17354:17366   */\n      add\n        /* \"#utility.yul\":17347:17366   */\n      swap1\n      pop\n        /* \"#utility.yul\":17006:17372   */\n      swap2\n      swap1\n      pop\n      jump\t// out\n        /* \"#utility.yul\":17378:17797   */\n    tag_170:\n        /* \"#utility.yul\":17544:17548   */\n      0x00\n        /* \"#utility.yul\":17582:17584   */\n      0x20\n        /* \"#utility.yul\":17571:17580   */\n      dup3\n        /* \"#utility.yul\":17567:17585   */\n      add\n        /* \"#utility.yul\":17559:17585   */\n      swap1\n      pop\n        /* \"#utility.yul\":17631:17640   */\n      dup2\n        /* \"#utility.yul\":17625:17629   */\n      dup2\n        /* \"#utility.yul\":17621:17641   */\n      sub\n        /* \"#utility.yul\":17617:17618   */\n      0x00\n        /* \"#utility.yul\":17606:17615   */\n      dup4\n        /* \"#utility.yul\":17602:17619   */\n      add\n        /* \"#utility.yul\":17595:17642   */\n      mstore\n        /* \"#utility.yul\":17659:17790   */\n      tag_527\n        /* \"#utility.yul\":17785:17789   */\n      dup2\n        /* \"#utility.yul\":17659:17790   */\n      tag_332\n      jump\t// in\n    tag_527:\n        /* \"#utility.yul\":17651:17790   */\n      swap1\n      pop\n        /* \"#utility.yul\":17378:17797   */\n      swap2\n      swap1\n      pop\n      jump\t// out\n        /* \"#utility.yul\":17803:18026   */\n    tag_333:\n        /* \"#utility.yul\":17943:17977   */\n      0x596f7520616c7265616479204361696d656420796f757220636f6e7472696275\n        /* \"#utility.yul\":17939:17940   */\n      0x00\n        /* \"#utility.yul\":17931:17937   */\n      dup3\n        /* \"#utility.yul\":17927:17941   */\n      add\n        /* \"#utility.yul\":17920:17978   */\n      mstore\n        /* \"#utility.yul\":18012:18018   */\n      0x74696f6e00000000000000000000000000000000000000000000000000000000\n        /* \"#utility.yul\":18007:18009   */\n      0x20\n        /* \"#utility.yul\":17999:18005   */\n      dup3\n        /* \"#utility.yul\":17995:18010   */\n      add\n        /* \"#utility.yul\":17988:18019   */\n      mstore\n        /* \"#utility.yul\":17803:18026   */\n      pop\n      jump\t// out\n        /* \"#utility.yul\":18032:18398   */\n    tag_334:\n        /* \"#utility.yul\":18174:18177   */\n      0x00\n        /* \"#utility.yul\":18195:18262   */\n      tag_530\n        /* \"#utility.yul\":18259:18261   */\n      0x24\n        /* \"#utility.yul\":18254:18257   */\n      dup4\n        /* \"#utility.yul\":18195:18262   */\n      tag_288\n      jump\t// in\n    tag_530:\n        /* \"#utility.yul\":18188:18262   */\n      swap2\n      pop\n        /* \"#utility.yul\":18271:18364   */\n      tag_531\n        /* \"#utility.yul\":18360:18363   */\n      dup3\n        /* \"#utility.yul\":18271:18364   */\n      tag_333\n      jump\t// in\n    tag_531:\n        /* \"#utility.yul\":18389:18391   */\n      0x40\n        /* \"#utility.yul\":18384:18387   */\n      dup3\n        /* \"#utility.yul\":18380:18392   */\n      add\n        /* \"#utility.yul\":18373:18392   */\n      swap1\n      pop\n        /* \"#utility.yul\":18032:18398   */\n      swap2\n      swap1\n      pop\n      jump\t// out\n        /* \"#utility.yul\":18404:18823   */\n    tag_177:\n        /* \"#utility.yul\":18570:18574   */\n      0x00\n        /* \"#utility.yul\":18608:18610   */\n      0x20\n        /* \"#utility.yul\":18597:18606   */\n      dup3\n        /* \"#utility.yul\":18593:18611   */\n      add\n        /* \"#utility.yul\":18585:18611   */\n      swap1\n      pop\n        /* \"#utility.yul\":18657:18666   */\n      dup2\n        /* \"#utility.yul\":18651:18655   */\n      dup2\n        /* \"#utility.yul\":18647:18667   */\n      sub\n        /* \"#utility.yul\":18643:18644   */\n      0x00\n        /* \"#utility.yul\":18632:18641   */\n      dup4\n        /* \"#utility.yul\":18628:18645   */\n      add\n        /* \"#utility.yul\":18621:18668   */\n      mstore\n        /* \"#utility.yul\":18685:18816   */\n      tag_533\n        /* \"#utility.yul\":18811:18815   */\n      dup2\n        /* \"#utility.yul\":18685:18816   */\n      tag_334\n      jump\t// in\n    tag_533:\n        /* \"#utility.yul\":18677:18816   */\n      swap1\n      pop\n        /* \"#utility.yul\":18404:18823   */\n      swap2\n      swap1\n      pop\n      jump\t// out\n        /* \"#utility.yul\":18829:18997   */\n    tag_335:\n        /* \"#utility.yul\":18969:18989   */\n      0x5469657220646f65736e27742065786973740000000000000000000000000000\n        /* \"#utility.yul\":18965:18966   */\n      0x00\n        /* \"#utility.yul\":18957:18963   */\n      dup3\n        /* \"#utility.yul\":18953:18967   */\n      add\n        /* \"#utility.yul\":18946:18990   */\n      mstore\n        /* \"#utility.yul\":18829:18997   */\n      pop\n      jump\t// out\n        /* \"#utility.yul\":19003:19369   */\n    tag_336:\n        /* \"#utility.yul\":19145:19148   */\n      0x00\n        /* \"#utility.yul\":19166:19233   */\n      tag_536\n        /* \"#utility.yul\":19230:19232   */\n      0x12\n        /* \"#utility.yul\":19225:19228   */\n      dup4\n        /* \"#utility.yul\":19166:19233   */\n      tag_288\n      jump\t// in\n    tag_536:\n        /* \"#utility.yul\":19159:19233   */\n      swap2\n      pop\n        /* \"#utility.yul\":19242:19335   */\n      tag_537\n        /* \"#utility.yul\":19331:19334   */\n      dup3\n        /* \"#utility.yul\":19242:19335   */\n      tag_335\n      jump\t// in\n    tag_537:\n        /* \"#utility.yul\":19360:19362   */\n      0x20\n        /* \"#utility.yul\":19355:19358   */\n      dup3\n        /* \"#utility.yul\":19351:19363   */\n      add\n        /* \"#utility.yul\":19344:19363   */\n      swap1\n      pop\n        /* \"#utility.yul\":19003:19369   */\n      swap2\n      swap1\n      pop\n      jump\t// out\n        /* \"#utility.yul\":19375:19794   */\n    tag_188:\n        /* \"#utility.yul\":19541:19545   */\n      0x00\n        /* \"#utility.yul\":19579:19581   */\n      0x20\n        /* \"#utility.yul\":19568:19577   */\n      dup3\n        /* \"#utility.yul\":19564:19582   */\n      add\n        /* \"#utility.yul\":19556:19582   */\n      swap1\n      pop\n        /* \"#utility.yul\":19628:19637   */\n      dup2\n        /* \"#utility.yul\":19622:19626   */\n      dup2\n        /* \"#utility.yul\":19618:19638   */\n      sub\n        /* \"#utility.yul\":19614:19615   */\n      0x00\n        /* \"#utility.yul\":19603:19612   */\n      dup4\n        /* \"#utility.yul\":19599:19616   */\n      add\n        /* \"#utility.yul\":19592:19639   */\n      mstore\n        /* \"#utility.yul\":19656:19787   */\n      tag_539\n        /* \"#utility.yul\":19782:19786   */\n      dup2\n        /* \"#utility.yul\":19656:19787   */\n      tag_336\n      jump\t// in\n    tag_539:\n        /* \"#utility.yul\":19648:19787   */\n      swap1\n      pop\n        /* \"#utility.yul\":19375:19794   */\n      swap2\n      swap1\n      pop\n      jump\t// out\n        /* \"#utility.yul\":19800:19994   */\n    tag_190:\n        /* \"#utility.yul\":19840:19844   */\n      0x00\n        /* \"#utility.yul\":19860:19880   */\n      tag_541\n        /* \"#utility.yul\":19878:19879   */\n      dup3\n        /* \"#utility.yul\":19860:19880   */\n      tag_284\n      jump\t// in\n    tag_541:\n        /* \"#utility.yul\":19855:19880   */\n      swap2\n      pop\n        /* \"#utility.yul\":19894:19914   */\n      tag_542\n        /* \"#utility.yul\":19912:19913   */\n      dup4\n        /* \"#utility.yul\":19894:19914   */\n      tag_284\n      jump\t// in\n    tag_542:\n        /* \"#utility.yul\":19889:19914   */\n      swap3\n      pop\n        /* \"#utility.yul\":19938:19939   */\n      dup3\n        /* \"#utility.yul\":19935:19936   */\n      dup3\n        /* \"#utility.yul\":19931:19940   */\n      sub\n        /* \"#utility.yul\":19923:19940   */\n      swap1\n      pop\n        /* \"#utility.yul\":19962:19963   */\n      dup2\n        /* \"#utility.yul\":19956:19960   */\n      dup2\n        /* \"#utility.yul\":19953:19964   */\n      gt\n        /* \"#utility.yul\":19950:19987   */\n      iszero\n      tag_543\n      jumpi\n        /* \"#utility.yul\":19967:19985   */\n      tag_544\n      tag_328\n      jump\t// in\n    tag_544:\n        /* \"#utility.yul\":19950:19987   */\n    tag_543:\n        /* \"#utility.yul\":19800:19994   */\n      swap3\n      swap2\n      pop\n      pop\n      jump\t// out\n        /* \"#utility.yul\":20000:20180   */\n    tag_193:\n        /* \"#utility.yul\":20048:20125   */\n      0x4e487b7100000000000000000000000000000000000000000000000000000000\n        /* \"#utility.yul\":20045:20046   */\n      0x00\n        /* \"#utility.yul\":20038:20126   */\n      mstore\n        /* \"#utility.yul\":20145:20149   */\n      0x32\n        /* \"#utility.yul\":20142:20143   */\n      0x04\n        /* \"#utility.yul\":20135:20150   */\n      mstore\n        /* \"#utility.yul\":20169:20173   */\n      0x24\n        /* \"#utility.yul\":20166:20167   */\n      0x00\n        /* \"#utility.yul\":20159:20174   */\n      revert\n        /* \"#utility.yul\":20186:20335   */\n    tag_337:\n        /* \"#utility.yul\":20235:20241   */\n      0x00\n        /* \"#utility.yul\":20269:20274   */\n      dup2\n        /* \"#utility.yul\":20263:20275   */\n      sload\n        /* \"#utility.yul\":20253:20275   */\n      swap1\n      pop\n        /* \"#utility.yul\":20295:20328   */\n      tag_547\n        /* \"#utility.yul\":20321:20327   */\n      dup2\n        /* \"#utility.yul\":20295:20328   */\n      tag_118\n      jump\t// in\n    tag_547:\n        /* \"#utility.yul\":20285:20328   */\n      swap1\n      pop\n        /* \"#utility.yul\":20186:20335   */\n      swap2\n      swap1\n      pop\n      jump\t// out\n        /* \"#utility.yul\":20341:20482   */\n    tag_338:\n        /* \"#utility.yul\":20390:20394   */\n      0x00\n        /* \"#utility.yul\":20413:20416   */\n      dup2\n        /* \"#utility.yul\":20405:20416   */\n      swap1\n      pop\n        /* \"#utility.yul\":20436:20439   */\n      dup2\n        /* \"#utility.yul\":20433:20434   */\n      0x00\n        /* \"#utility.yul\":20426:20440   */\n      mstore\n        /* \"#utility.yul\":20470:20474   */\n      0x20\n        /* \"#utility.yul\":20467:20468   */\n      0x00\n        /* \"#utility.yul\":20457:20475   */\n      keccak256\n        /* \"#utility.yul\":20449:20475   */\n      swap1\n      pop\n        /* \"#utility.yul\":20341:20482   */\n      swap2\n      swap1\n      pop\n      jump\t// out\n        /* \"#utility.yul\":20488:20581   */\n    tag_339:\n        /* \"#utility.yul\":20525:20531   */\n      0x00\n        /* \"#utility.yul\":20572:20574   */\n      0x20\n        /* \"#utility.yul\":20567:20569   */\n      0x1f\n        /* \"#utility.yul\":20560:20565   */\n      dup4\n        /* \"#utility.yul\":20556:20570   */\n      add\n        /* \"#utility.yul\":20552:20575   */\n      div\n        /* \"#utility.yul\":20542:20575   */\n      swap1\n      pop\n        /* \"#utility.yul\":20488:20581   */\n      swap2\n      swap1\n      pop\n      jump\t// out\n        /* \"#utility.yul\":20587:20694   */\n    tag_340:\n        /* \"#utility.yul\":20631:20639   */\n      0x00\n        /* \"#utility.yul\":20681:20686   */\n      dup3\n        /* \"#utility.yul\":20675:20679   */\n      dup3\n        /* \"#utility.yul\":20671:20687   */\n      shl\n        /* \"#utility.yul\":20650:20687   */\n      swap1\n      pop\n        /* \"#utility.yul\":20587:20694   */\n      swap3\n      swap2\n      pop\n      pop\n      jump\t// out\n        /* \"#utility.yul\":20700:21093   */\n    tag_341:\n        /* \"#utility.yul\":20769:20775   */\n      0x00\n        /* \"#utility.yul\":20819:20820   */\n      0x08\n        /* \"#utility.yul\":20807:20817   */\n      dup4\n        /* \"#utility.yul\":20803:20821   */\n      mul\n        /* \"#utility.yul\":20842:20939   */\n      tag_552\n        /* \"#utility.yul\":20872:20938   */\n      0xffffffffffffffffffffffffffffffffffffffffffffffffffffffffffffffff\n        /* \"#utility.yul\":20861:20870   */\n      dup3\n        /* \"#utility.yul\":20842:20939   */\n      tag_340\n      jump\t// in\n    tag_552:\n        /* \"#utility.yul\":20960:20999   */\n      tag_553\n        /* \"#utility.yul\":20990:20998   */\n      dup7\n        /* \"#utility.yul\":20979:20988   */\n      dup4\n        /* \"#utility.yul\":20960:20999   */\n      tag_340\n      jump\t// in\n    tag_553:\n        /* \"#utility.yul\":20948:20999   */\n      swap6\n      pop\n        /* \"#utility.yul\":21032:21036   */\n      dup1\n        /* \"#utility.yul\":21028:21037   */\n      not\n        /* \"#utility.yul\":21021:21026   */\n      dup5\n        /* \"#utility.yul\":21017:21038   */\n      and\n        /* \"#utility.yul\":21008:21038   */\n      swap4\n      pop\n        /* \"#utility.yul\":21081:21085   */\n      dup1\n        /* \"#utility.yul\":21071:21079   */\n      dup7\n        /* \"#utility.yul\":21067:21086   */\n      and\n        /* \"#utility.yul\":21060:21065   */\n      dup5\n        /* \"#utility.yul\":21057:21087   */\n      or\n        /* \"#utility.yul\":21047:21087   */\n      swap3\n      pop\n        /* \"#utility.yul\":20776:21093   */\n      pop\n      pop\n        /* \"#utility.yul\":20700:21093   */\n      swap4\n      swap3\n      pop\n      pop\n      pop\n      jump\t// out\n        /* \"#utility.yul\":21099:21159   */\n    tag_342:\n        /* \"#utility.yul\":21127:21130   */\n      0x00\n        /* \"#utility.yul\":21148:21153   */\n      dup2\n        /* \"#utility.yul\":21141:21153   */\n      swap1\n      pop\n        /* \"#utility.yul\":21099:21159   */\n      swap2\n      swap1\n      pop\n      jump\t// out\n        /* \"#utility.yul\":21165:21307   */\n    tag_343:\n        /* \"#utility.yul\":21215:21224   */\n      0x00\n        /* \"#utility.yul\":21248:21301   */\n      tag_556\n        /* \"#utility.yul\":21266:21300   */\n      tag_557\n        /* \"#utility.yul\":21275:21299   */\n      tag_558\n        /* \"#utility.yul\":21293:21298   */\n      dup5\n        /* \"#utility.yul\":21275:21299   */\n      tag_284\n      jump\t// in\n    tag_558:\n        /* \"#utility.yul\":21266:21300   */\n      tag_342\n      jump\t// in\n    tag_557:\n        /* \"#utility.yul\":21248:21301   */\n      tag_284\n      jump\t// in\n    tag_556:\n        /* \"#utility.yul\":21235:21301   */\n      swap1\n      pop\n        /* \"#utility.yul\":21165:21307   */\n      swap2\n      swap1\n      pop\n      jump\t// out\n        /* \"#utility.yul\":21313:21388   */\n    tag_344:\n        /* \"#utility.yul\":21356:21359   */\n      0x00\n        /* \"#utility.yul\":21377:21382   */\n      dup2\n        /* \"#utility.yul\":21370:21382   */\n      swap1\n      pop\n        /* \"#utility.yul\":21313:21388   */\n      swap2\n      swap1\n      pop\n      jump\t// out\n        /* \"#utility.yul\":21394:21663   */\n    tag_345:\n        /* \"#utility.yul\":21504:21543   */\n      tag_561\n        /* \"#utility.yul\":21535:21542   */\n      dup4\n        /* \"#utility.yul\":21504:21543   */\n      tag_343\n      jump\t// in\n    tag_561:\n        /* \"#utility.yul\":21565:21656   */\n      tag_562\n        /* \"#utility.yul\":21614:21655   */\n      tag_563\n        /* \"#utility.yul\":21638:21654   */\n      dup3\n        /* \"#utility.yul\":21614:21655   */\n      tag_344\n      jump\t// in\n    tag_563:\n        /* \"#utility.yul\":21606:21612   */\n      dup5\n        /* \"#utility.yul\":21599:21603   */\n      dup5\n        /* \"#utility.yul\":21593:21604   */\n      sload\n        /* \"#utility.yul\":21565:21656   */\n      tag_341\n      jump\t// in\n    tag_562:\n        /* \"#utility.yul\":21559:21563   */\n      dup3\n        /* \"#utility.yul\":21552:21657   */\n      sstore\n        /* \"#utility.yul\":21470:21663   */\n      pop\n        /* \"#utility.yul\":21394:21663   */\n      pop\n      pop\n      pop\n      jump\t// out\n        /* \"#utility.yul\":21669:21742   */\n    tag_346:\n        /* \"#utility.yul\":21714:21717   */\n      0x00\n        /* \"#utility.yul\":21669:21742   */\n      swap1\n      jump\t// out\n        /* \"#utility.yul\":21748:21937   */\n    tag_347:\n        /* \"#utility.yul\":21825:21857   */\n      tag_566\n      tag_346\n      jump\t// in\n    tag_566:\n        /* \"#utility.yul\":21866:21931   */\n      tag_567\n        /* \"#utility.yul\":21924:21930   */\n      dup2\n        /* \"#utility.yul\":21916:21922   */\n      dup5\n        /* \"#utility.yul\":21910:21914   */\n      dup5\n        /* \"#utility.yul\":21866:21931   */\n      tag_345\n      jump\t// in\n    tag_567:\n        /* \"#utility.yul\":21801:21937   */\n      pop\n        /* \"#utility.yul\":21748:21937   */\n      pop\n      pop\n      jump\t// out\n        /* \"#utility.yul\":21943:22129   */\n    tag_348:\n        /* \"#utility.yul\":22003:22123   */\n    tag_569:\n        /* \"#utility.yul\":22020:22023   */\n      dup2\n        /* \"#utility.yul\":22013:22018   */\n      dup2\n        /* \"#utility.yul\":22010:22024   */\n      lt\n        /* \"#utility.yul\":22003:22123   */\n      iszero\n      tag_571\n      jumpi\n        /* \"#utility.yul\":22074:22113   */\n      tag_572\n        /* \"#utility.yul\":22111:22112   */\n      0x00\n        /* \"#utility.yul\":22104:22109   */\n      dup3\n        /* \"#utility.yul\":22074:22113   */\n      tag_347\n      jump\t// in\n    tag_572:\n        /* \"#utility.yul\":22047:22048   */\n      0x01\n        /* \"#utility.yul\":22040:22045   */\n      dup2\n        /* \"#utility.yul\":22036:22049   */\n      add\n        /* \"#utility.yul\":22027:22049   */\n      swap1\n      pop\n        /* \"#utility.yul\":22003:22123   */\n      jump(tag_569)\n    tag_571:\n        /* \"#utility.yul\":21943:22129   */\n      pop\n      pop\n      jump\t// out\n        /* \"#utility.yul\":22135:22678   */\n    tag_349:\n        /* \"#utility.yul\":22236:22238   */\n      0x1f\n        /* \"#utility.yul\":22231:22234   */\n      dup3\n        /* \"#utility.yul\":22228:22239   */\n      gt\n        /* \"#utility.yul\":22225:22671   */\n      iszero\n      tag_574\n      jumpi\n        /* \"#utility.yul\":22270:22308   */\n      tag_575\n        /* \"#utility.yul\":22302:22307   */\n      dup2\n        /* \"#utility.yul\":22270:22308   */\n      tag_338\n      jump\t// in\n    tag_575:\n        /* \"#utility.yul\":22354:22383   */\n      tag_576\n        /* \"#utility.yul\":22372:22382   */\n      dup5\n        /* \"#utility.yul\":22354:22383   */\n      tag_339\n      jump\t// in\n    tag_576:\n        /* \"#utility.yul\":22344:22352   */\n      dup2\n        /* \"#utility.yul\":22340:22384   */\n      add\n        /* \"#utility.yul\":22537:22539   */\n      0x20\n        /* \"#utility.yul\":22525:22535   */\n      dup6\n        /* \"#utility.yul\":22522:22540   */\n      lt\n        /* \"#utility.yul\":22519:22568   */\n      iszero\n      tag_577\n      jumpi\n        /* \"#utility.yul\":22558:22566   */\n      dup2\n        /* \"#utility.yul\":22543:22566   */\n      swap1\n      pop\n        /* \"#utility.yul\":22519:22568   */\n    tag_577:\n        /* \"#utility.yul\":22581:22661   */\n      tag_578\n        /* \"#utility.yul\":22637:22659   */\n      tag_579\n        /* \"#utility.yul\":22655:22658   */\n      dup6\n        /* \"#utility.yul\":22637:22659   */\n      tag_339\n      jump\t// in\n    tag_579:\n        /* \"#utility.yul\":22627:22635   */\n      dup4\n        /* \"#utility.yul\":22623:22660   */\n      add\n        /* \"#utility.yul\":22610:22621   */\n      dup3\n        /* \"#utility.yul\":22581:22661   */\n      tag_348\n      jump\t// in\n    tag_578:\n        /* \"#utility.yul\":22240:22671   */\n      pop\n      pop\n        /* \"#utility.yul\":22225:22671   */\n    tag_574:\n        /* \"#utility.yul\":22135:22678   */\n      pop\n      pop\n      pop\n      jump\t// out\n        /* \"#utility.yul\":22684:22801   */\n    tag_350:\n        /* \"#utility.yul\":22738:22746   */\n      0x00\n        /* \"#utility.yul\":22788:22793   */\n      dup3\n        /* \"#utility.yul\":22782:22786   */\n      dup3\n        /* \"#utility.yul\":22778:22794   */\n      shr\n        /* \"#utility.yul\":22757:22794   */\n      swap1\n      pop\n        /* \"#utility.yul\":22684:22801   */\n      swap3\n      swap2\n      pop\n      pop\n      jump\t// out\n        /* \"#utility.yul\":22807:22976   */\n    tag_351:\n        /* \"#utility.yul\":22851:22857   */\n      0x00\n        /* \"#utility.yul\":22884:22935   */\n      tag_582\n        /* \"#utility.yul\":22932:22933   */\n      0x00\n        /* \"#utility.yul\":22928:22934   */\n      not\n        /* \"#utility.yul\":22920:22925   */\n      dup5\n        /* \"#utility.yul\":22917:22918   */\n      0x08\n        /* \"#utility.yul\":22913:22926   */\n      mul\n        /* \"#utility.yul\":22884:22935   */\n      tag_350\n      jump\t// in\n    tag_582:\n        /* \"#utility.yul\":22880:22936   */\n      not\n        /* \"#utility.yul\":22965:22969   */\n      dup1\n        /* \"#utility.yul\":22959:22963   */\n      dup4\n        /* \"#utility.yul\":22955:22970   */\n      and\n        /* \"#utility.yul\":22945:22970   */\n      swap2\n      pop\n        /* \"#utility.yul\":22858:22976   */\n      pop\n        /* \"#utility.yul\":22807:22976   */\n      swap3\n      swap2\n      pop\n      pop\n      jump\t// out\n        /* \"#utility.yul\":22981:23276   */\n    tag_352:\n        /* \"#utility.yul\":23057:23061   */\n      0x00\n        /* \"#utility.yul\":23203:23232   */\n      tag_584\n        /* \"#utility.yul\":23228:23231   */\n      dup4\n        /* \"#utility.yul\":23222:23226   */\n      dup4\n        /* \"#utility.yul\":23203:23232   */\n      tag_351\n      jump\t// in\n    tag_584:\n        /* \"#utility.yul\":23195:23232   */\n      swap2\n      pop\n        /* \"#utility.yul\":23265:23268   */\n      dup3\n        /* \"#utility.yul\":23262:23263   */\n      0x02\n        /* \"#utility.yul\":23258:23269   */\n      mul\n        /* \"#utility.yul\":23252:23256   */\n      dup3\n        /* \"#utility.yul\":23249:23270   */\n      or\n        /* \"#utility.yul\":23241:23270   */\n      swap1\n      pop\n        /* \"#utility.yul\":22981:23276   */\n      swap3\n      swap2\n      pop\n      pop\n      jump\t// out\n        /* \"#utility.yul\":23281:24732   */\n    tag_199:\n        /* \"#utility.yul\":23392:23395   */\n      dup2\n        /* \"#utility.yul\":23386:23390   */\n      dup2\n        /* \"#utility.yul\":23383:23396   */\n      sub\n        /* \"#utility.yul\":23380:23406   */\n      tag_586\n      jumpi\n        /* \"#utility.yul\":23399:23404   */\n      pop\n      pop\n      jump(tag_585)\n        /* \"#utility.yul\":23380:23406   */\n    tag_586:\n        /* \"#utility.yul\":23430:23464   */\n      tag_587\n        /* \"#utility.yul\":23460:23463   */\n      dup3\n        /* \"#utility.yul\":23430:23464   */\n      tag_337\n      jump\t// in\n    tag_587:\n        /* \"#utility.yul\":23529:23547   */\n      0xffffffffffffffff\n        /* \"#utility.yul\":23521:23527   */\n      dup2\n        /* \"#utility.yul\":23518:23548   */\n      gt\n        /* \"#utility.yul\":23515:23571   */\n      iszero\n      tag_588\n      jumpi\n        /* \"#utility.yul\":23551:23569   */\n      tag_589\n      tag_306\n      jump\t// in\n    tag_589:\n        /* \"#utility.yul\":23515:23571   */\n    tag_588:\n        /* \"#utility.yul\":23595:23633   */\n      tag_590\n        /* \"#utility.yul\":23627:23631   */\n      dup3\n        /* \"#utility.yul\":23621:23632   */\n      sload\n        /* \"#utility.yul\":23595:23633   */\n      tag_118\n      jump\t// in\n    tag_590:\n        /* \"#utility.yul\":23680:23747   */\n      tag_591\n        /* \"#utility.yul\":23740:23746   */\n      dup3\n        /* \"#utility.yul\":23732:23738   */\n      dup3\n        /* \"#utility.yul\":23726:23730   */\n      dup6\n        /* \"#utility.yul\":23680:23747   */\n      tag_349\n      jump\t// in\n    tag_591:\n        /* \"#utility.yul\":23774:23775   */\n      0x00\n        /* \"#utility.yul\":23803:23805   */\n      0x1f\n        /* \"#utility.yul\":23795:23801   */\n      dup4\n        /* \"#utility.yul\":23792:23806   */\n      gt\n        /* \"#utility.yul\":23820:23821   */\n      0x01\n        /* \"#utility.yul\":23815:24487   */\n      dup2\n      eq\n      tag_593\n      jumpi\n        /* \"#utility.yul\":24531:24532   */\n      0x00\n        /* \"#utility.yul\":24548:24554   */\n      dup5\n        /* \"#utility.yul\":24545:24622   */\n      iszero\n      tag_594\n      jumpi\n        /* \"#utility.yul\":24597:24606   */\n      dup3\n        /* \"#utility.yul\":24592:24595   */\n      dup8\n        /* \"#utility.yul\":24588:24607   */\n      add\n        /* \"#utility.yul\":24582:24608   */\n      sload\n        /* \"#utility.yul\":24573:24608   */\n      swap1\n      pop\n        /* \"#utility.yul\":24545:24622   */\n    tag_594:\n        /* \"#utility.yul\":24648:24715   */\n      tag_595\n        /* \"#utility.yul\":24708:24714   */\n      dup6\n        /* \"#utility.yul\":24701:24706   */\n      dup3\n        /* \"#utility.yul\":24648:24715   */\n      tag_352\n      jump\t// in\n    tag_595:\n        /* \"#utility.yul\":24642:24646   */\n      dup7\n        /* \"#utility.yul\":24635:24716   */\n      sstore\n        /* \"#utility.yul\":24504:24726   */\n      pop\n        /* \"#utility.yul\":23785:24726   */\n      jump(tag_592)\n        /* \"#utility.yul\":23815:24487   */\n    tag_593:\n        /* \"#utility.yul\":23867:23871   */\n      0x1f\n        /* \"#utility.yul\":23863:23872   */\n      not\n        /* \"#utility.yul\":23855:23861   */\n      dup5\n        /* \"#utility.yul\":23851:23873   */\n      and\n        /* \"#utility.yul\":23893:23929   */\n      tag_596\n        /* \"#utility.yul\":23925:23928   */\n      dup8\n        /* \"#utility.yul\":23893:23929   */\n      tag_338\n      jump\t// in\n    tag_596:\n        /* \"#utility.yul\":23886:23929   */\n      swap7\n      pop\n        /* \"#utility.yul\":23956:23993   */\n      tag_597\n        /* \"#utility.yul\":23988:23992   */\n      dup7\n        /* \"#utility.yul\":23956:23993   */\n      tag_338\n      jump\t// in\n    tag_597:\n        /* \"#utility.yul\":24015:24016   */\n      0x00\n        /* \"#utility.yul\":24029:24236   */\n    tag_598:\n        /* \"#utility.yul\":24043:24050   */\n      dup3\n        /* \"#utility.yul\":24040:24041   */\n      dup2\n        /* \"#utility.yul\":24037:24051   */\n      lt\n        /* \"#utility.yul\":24029:24236   */\n      iszero\n      tag_600\n      jumpi\n        /* \"#utility.yul\":24122:24131   */\n      dup5\n        /* \"#utility.yul\":24117:24120   */\n      dup10\n        /* \"#utility.yul\":24113:24132   */\n      add\n        /* \"#utility.yul\":24107:24133   */\n      sload\n        /* \"#utility.yul\":24099:24105   */\n      dup3\n        /* \"#utility.yul\":24092:24134   */\n      sstore\n        /* \"#utility.yul\":24173:24174   */\n      0x01\n        /* \"#utility.yul\":24165:24171   */\n      dup3\n        /* \"#utility.yul\":24161:24175   */\n      add\n        /* \"#utility.yul\":24151:24175   */\n      swap2\n      pop\n        /* \"#utility.yul\":24220:24221   */\n      0x01\n        /* \"#utility.yul\":24209:24218   */\n      dup6\n        /* \"#utility.yul\":24205:24222   */\n      add\n        /* \"#utility.yul\":24192:24222   */\n      swap5\n      pop\n        /* \"#utility.yul\":24066:24070   */\n      0x20\n        /* \"#utility.yul\":24063:24064   */\n      dup2\n        /* \"#utility.yul\":24059:24071   */\n      add\n        /* \"#utility.yul\":24054:24071   */\n      swap1\n      pop\n        /* \"#utility.yul\":24029:24236   */\n      jump(tag_598)\n    tag_600:\n        /* \"#utility.yul\":24264:24270   */\n      dup7\n        /* \"#utility.yul\":24255:24262   */\n      dup4\n        /* \"#utility.yul\":24252:24271   */\n      lt\n        /* \"#utility.yul\":24249:24428   */\n      iszero\n      tag_601\n      jumpi\n        /* \"#utility.yul\":24322:24331   */\n      dup5\n        /* \"#utility.yul\":24317:24320   */\n      dup10\n        /* \"#utility.yul\":24313:24332   */\n      add\n        /* \"#utility.yul\":24307:24333   */\n      sload\n        /* \"#utility.yul\":24365:24413   */\n      tag_602\n        /* \"#utility.yul\":24407:24411   */\n      0x1f\n        /* \"#utility.yul\":24399:24405   */\n      dup10\n        /* \"#utility.yul\":24395:24412   */\n      and\n        /* \"#utility.yul\":24384:24393   */\n      dup3\n        /* \"#utility.yul\":24365:24413   */\n      tag_351\n      jump\t// in\n    tag_602:\n        /* \"#utility.yul\":24357:24363   */\n      dup4\n        /* \"#utility.yul\":24350:24414   */\n      sstore\n        /* \"#utility.yul\":24272:24428   */\n      pop\n        /* \"#utility.yul\":24249:24428   */\n    tag_601:\n        /* \"#utility.yul\":24474:24475   */\n      0x01\n        /* \"#utility.yul\":24470:24471   */\n      0x02\n        /* \"#utility.yul\":24462:24468   */\n      dup9\n        /* \"#utility.yul\":24458:24472   */\n      mul\n        /* \"#utility.yul\":24454:24476   */\n      add\n        /* \"#utility.yul\":24448:24452   */\n      dup9\n        /* \"#utility.yul\":24441:24477   */\n      sstore\n        /* \"#utility.yul\":23822:24487   */\n      pop\n      pop\n      pop\n        /* \"#utility.yul\":23785:24726   */\n    tag_592:\n      pop\n        /* \"#utility.yul\":23370:24732   */\n      pop\n      pop\n      pop\n        /* \"#utility.yul\":23281:24732   */\n      pop\n      pop\n    tag_585:\n      jump\t// out\n        /* \"#utility.yul\":24738:24918   */\n    tag_202:\n        /* \"#utility.yul\":24786:24863   */\n      0x4e487b7100000000000000000000000000000000000000000000000000000000\n        /* \"#utility.yul\":24783:24784   */\n      0x00\n        /* \"#utility.yul\":24776:24864   */\n      mstore\n        /* \"#utility.yul\":24883:24887   */\n      0x31\n        /* \"#utility.yul\":24880:24881   */\n      0x04\n        /* \"#utility.yul\":24873:24888   */\n      mstore\n        /* \"#utility.yul\":24907:24911   */\n      0x24\n        /* \"#utility.yul\":24904:24905   */\n      0x00\n        /* \"#utility.yul\":24897:24912   */\n      revert\n        /* \"#utility.yul\":24924:25144   */\n    tag_353:\n        /* \"#utility.yul\":25064:25098   */\n      0x416d6f756e742073686f756c6420626520686967686572207468616e207a6572\n        /* \"#utility.yul\":25060:25061   */\n      0x00\n        /* \"#utility.yul\":25052:25058   */\n      dup3\n        /* \"#utility.yul\":25048:25062   */\n      add\n        /* \"#utility.yul\":25041:25099   */\n      mstore\n        /* \"#utility.yul\":25133:25136   */\n      0x6f00000000000000000000000000000000000000000000000000000000000000\n        /* \"#utility.yul\":25128:25130   */\n      0x20\n        /* \"#utility.yul\":25120:25126   */\n      dup3\n        /* \"#utility.yul\":25116:25131   */\n      add\n        /* \"#utility.yul\":25109:25137   */\n      mstore\n        /* \"#utility.yul\":24924:25144   */\n      pop\n      jump\t// out\n        /* \"#utility.yul\":25150:25516   */\n    tag_354:\n        /* \"#utility.yul\":25292:25295   */\n      0x00\n        /* \"#utility.yul\":25313:25380   */\n      tag_606\n        /* \"#utility.yul\":25377:25379   */\n      0x21\n        /* \"#utility.yul\":25372:25375   */\n      dup4\n        /* \"#utility.yul\":25313:25380   */\n      tag_288\n      jump\t// in\n    tag_606:\n        /* \"#utility.yul\":25306:25380   */\n      swap2\n      pop\n        /* \"#utility.yul\":25389:25482   */\n      tag_607\n        /* \"#utility.yul\":25478:25481   */\n      dup3\n        /* \"#utility.yul\":25389:25482   */\n      tag_353\n      jump\t// in\n    tag_607:\n        /* \"#utility.yul\":25507:25509   */\n      0x40\n        /* \"#utility.yul\":25502:25505   */\n      dup3\n        /* \"#utility.yul\":25498:25510   */\n      add\n        /* \"#utility.yul\":25491:25510   */\n      swap1\n      pop\n        /* \"#utility.yul\":25150:25516   */\n      swap2\n      swap1\n      pop\n      jump\t// out\n        /* \"#utility.yul\":25522:25941   */\n    tag_213:\n        /* \"#utility.yul\":25688:25692   */\n      0x00\n        /* \"#utility.yul\":25726:25728   */\n      0x20\n        /* \"#utility.yul\":25715:25724   */\n      dup3\n        /* \"#utility.yul\":25711:25729   */\n      add\n        /* \"#utility.yul\":25703:25729   */\n      swap1\n      pop\n        /* \"#utility.yul\":25775:25784   */\n      dup2\n        /* \"#utility.yul\":25769:25773   */\n      dup2\n        /* \"#utility.yul\":25765:25785   */\n      sub\n        /* \"#utility.yul\":25761:25762   */\n      0x00\n        /* \"#utility.yul\":25750:25759   */\n      dup4\n        /* \"#utility.yul\":25746:25763   */\n      add\n        /* \"#utility.yul\":25739:25786   */\n      mstore\n        /* \"#utility.yul\":25803:25934   */\n      tag_609\n        /* \"#utility.yul\":25929:25933   */\n      dup2\n        /* \"#utility.yul\":25803:25934   */\n      tag_354\n      jump\t// in\n    tag_609:\n        /* \"#utility.yul\":25795:25934   */\n      swap1\n      pop\n        /* \"#utility.yul\":25522:25941   */\n      swap2\n      swap1\n      pop\n      jump\t// out\n        /* \"#utility.yul\":25947:27342   */\n    tag_216:\n        /* \"#utility.yul\":26064:26101   */\n      tag_611\n        /* \"#utility.yul\":26097:26100   */\n      dup3\n        /* \"#utility.yul\":26064:26101   */\n      tag_287\n      jump\t// in\n    tag_611:\n        /* \"#utility.yul\":26166:26184   */\n      0xffffffffffffffff\n        /* \"#utility.yul\":26158:26164   */\n      dup2\n        /* \"#utility.yul\":26155:26185   */\n      gt\n        /* \"#utility.yul\":26152:26208   */\n      iszero\n      tag_612\n      jumpi\n        /* \"#utility.yul\":26188:26206   */\n      tag_613\n      tag_306\n      jump\t// in\n    tag_613:\n        /* \"#utility.yul\":26152:26208   */\n    tag_612:\n        /* \"#utility.yul\":26232:26270   */\n      tag_614\n        /* \"#utility.yul\":26264:26268   */\n      dup3\n        /* \"#utility.yul\":26258:26269   */\n      sload\n        /* \"#utility.yul\":26232:26270   */\n      tag_118\n      jump\t// in\n    tag_614:\n        /* \"#utility.yul\":26317:26384   */\n      tag_615\n        /* \"#utility.yul\":26377:26383   */\n      dup3\n        /* \"#utility.yul\":26369:26375   */\n      dup3\n        /* \"#utility.yul\":26363:26367   */\n      dup6\n        /* \"#utility.yul\":26317:26384   */\n      tag_349\n      jump\t// in\n    tag_615:\n        /* \"#utility.yul\":26411:26412   */\n      0x00\n        /* \"#utility.yul\":26435:26439   */\n      0x20\n        /* \"#utility.yul\":26422:26439   */\n      swap1\n      pop\n        /* \"#utility.yul\":26467:26469   */\n      0x1f\n        /* \"#utility.yul\":26459:26465   */\n      dup4\n        /* \"#utility.yul\":26456:26470   */\n      gt\n        /* \"#utility.yul\":26484:26485   */\n      0x01\n        /* \"#utility.yul\":26479:27097   */\n      dup2\n      eq\n      tag_617\n      jumpi\n        /* \"#utility.yul\":27141:27142   */\n      0x00\n        /* \"#utility.yul\":27158:27164   */\n      dup5\n        /* \"#utility.yul\":27155:27232   */\n      iszero\n      tag_618\n      jumpi\n        /* \"#utility.yul\":27207:27216   */\n      dup3\n        /* \"#utility.yul\":27202:27205   */\n      dup8\n        /* \"#utility.yul\":27198:27217   */\n      add\n        /* \"#utility.yul\":27192:27218   */\n      mload\n        /* \"#utility.yul\":27183:27218   */\n      swap1\n      pop\n        /* \"#utility.yul\":27155:27232   */\n    tag_618:\n        /* \"#utility.yul\":27258:27325   */\n      tag_619\n        /* \"#utility.yul\":27318:27324   */\n      dup6\n        /* \"#utility.yul\":27311:27316   */\n      dup3\n        /* \"#utility.yul\":27258:27325   */\n      tag_352\n      jump\t// in\n    tag_619:\n        /* \"#utility.yul\":27252:27256   */\n      dup7\n        /* \"#utility.yul\":27245:27326   */\n      sstore\n        /* \"#utility.yul\":27114:27336   */\n      pop\n        /* \"#utility.yul\":26449:27336   */\n      jump(tag_616)\n        /* \"#utility.yul\":26479:27097   */\n    tag_617:\n        /* \"#utility.yul\":26531:26535   */\n      0x1f\n        /* \"#utility.yul\":26527:26536   */\n      not\n        /* \"#utility.yul\":26519:26525   */\n      dup5\n        /* \"#utility.yul\":26515:26537   */\n      and\n        /* \"#utility.yul\":26565:26602   */\n      tag_620\n        /* \"#utility.yul\":26597:26601   */\n      dup7\n        /* \"#utility.yul\":26565:26602   */\n      tag_338\n      jump\t// in\n    tag_620:\n        /* \"#utility.yul\":26624:26625   */\n      0x00\n        /* \"#utility.yul\":26638:26846   */\n    tag_621:\n        /* \"#utility.yul\":26652:26659   */\n      dup3\n        /* \"#utility.yul\":26649:26650   */\n      dup2\n        /* \"#utility.yul\":26646:26660   */\n      lt\n        /* \"#utility.yul\":26638:26846   */\n      iszero\n      tag_623\n      jumpi\n        /* \"#utility.yul\":26731:26740   */\n      dup5\n        /* \"#utility.yul\":26726:26729   */\n      dup10\n        /* \"#utility.yul\":26722:26741   */\n      add\n        /* \"#utility.yul\":26716:26742   */\n      mload\n        /* \"#utility.yul\":26708:26714   */\n      dup3\n        /* \"#utility.yul\":26701:26743   */\n      sstore\n        /* \"#utility.yul\":26782:26783   */\n      0x01\n        /* \"#utility.yul\":26774:26780   */\n      dup3\n        /* \"#utility.yul\":26770:26784   */\n      add\n        /* \"#utility.yul\":26760:26784   */\n      swap2\n      pop\n        /* \"#utility.yul\":26829:26831   */\n      0x20\n        /* \"#utility.yul\":26818:26827   */\n      dup6\n        /* \"#utility.yul\":26814:26832   */\n      add\n        /* \"#utility.yul\":26801:26832   */\n      swap5\n      pop\n        /* \"#utility.yul\":26675:26679   */\n      0x20\n        /* \"#utility.yul\":26672:26673   */\n      dup2\n        /* \"#utility.yul\":26668:26680   */\n      add\n        /* \"#utility.yul\":26663:26680   */\n      swap1\n      pop\n        /* \"#utility.yul\":26638:26846   */\n      jump(tag_621)\n    tag_623:\n        /* \"#utility.yul\":26874:26880   */\n      dup7\n        /* \"#utility.yul\":26865:26872   */\n      dup4\n        /* \"#utility.yul\":26862:26881   */\n      lt\n        /* \"#utility.yul\":26859:27038   */\n      iszero\n      tag_624\n      jumpi\n        /* \"#utility.yul\":26932:26941   */\n      dup5\n        /* \"#utility.yul\":26927:26930   */\n      dup10\n        /* \"#utility.yul\":26923:26942   */\n      add\n        /* \"#utility.yul\":26917:26943   */\n      mload\n        /* \"#utility.yul\":26975:27023   */\n      tag_625\n        /* \"#utility.yul\":27017:27021   */\n      0x1f\n        /* \"#utility.yul\":27009:27015   */\n      dup10\n        /* \"#utility.yul\":27005:27022   */\n      and\n        /* \"#utility.yul\":26994:27003   */\n      dup3\n        /* \"#utility.yul\":26975:27023   */\n      tag_351\n      jump\t// in\n    tag_625:\n        /* \"#utility.yul\":26967:26973   */\n      dup4\n        /* \"#utility.yul\":26960:27024   */\n      sstore\n        /* \"#utility.yul\":26882:27038   */\n      pop\n        /* \"#utility.yul\":26859:27038   */\n    tag_624:\n        /* \"#utility.yul\":27084:27085   */\n      0x01\n        /* \"#utility.yul\":27080:27081   */\n      0x02\n        /* \"#utility.yul\":27072:27078   */\n      dup9\n        /* \"#utility.yul\":27068:27082   */\n      mul\n        /* \"#utility.yul\":27064:27086   */\n      add\n        /* \"#utility.yul\":27058:27062   */\n      dup9\n        /* \"#utility.yul\":27051:27087   */\n      sstore\n        /* \"#utility.yul\":26486:27097   */\n      pop\n      pop\n      pop\n        /* \"#utility.yul\":26449:27336   */\n    tag_616:\n      pop\n        /* \"#utility.yul\":26039:27342   */\n      pop\n      pop\n      pop\n        /* \"#utility.yul\":25947:27342   */\n      pop\n      pop\n      jump\t// out\n        /* \"#utility.yul\":27348:27521   */\n    tag_355:\n        /* \"#utility.yul\":27488:27513   */\n      0x5468652043616d706169676e2069732070617573656421000000000000000000\n        /* \"#utility.yul\":27484:27485   */\n      0x00\n        /* \"#utility.yul\":27476:27482   */\n      dup3\n        /* \"#utility.yul\":27472:27486   */\n      add\n        /* \"#utility.yul\":27465:27514   */\n      mstore\n        /* \"#utility.yul\":27348:27521   */\n      pop\n      jump\t// out\n        /* \"#utility.yul\":27527:27893   */\n    tag_356:\n        /* \"#utility.yul\":27669:27672   */\n      0x00\n        /* \"#utility.yul\":27690:27757   */\n      tag_628\n        /* \"#utility.yul\":27754:27756   */\n      0x17\n        /* \"#utility.yul\":27749:27752   */\n      dup4\n        /* \"#utility.yul\":27690:27757   */\n      tag_288\n      jump\t// in\n    tag_628:\n        /* \"#utility.yul\":27683:27757   */\n      swap2\n      pop\n        /* \"#utility.yul\":27766:27859   */\n      tag_629\n        /* \"#utility.yul\":27855:27858   */\n      dup3\n        /* \"#utility.yul\":27766:27859   */\n      tag_355\n      jump\t// in\n    tag_629:\n        /* \"#utility.yul\":27884:27886   */\n      0x20\n        /* \"#utility.yul\":27879:27882   */\n      dup3\n        /* \"#utility.yul\":27875:27887   */\n      add\n        /* \"#utility.yul\":27868:27887   */\n      swap1\n      pop\n        /* \"#utility.yul\":27527:27893   */\n      swap2\n      swap1\n      pop\n      jump\t// out\n        /* \"#utility.yul\":27899:28318   */\n    tag_231:\n        /* \"#utility.yul\":28065:28069   */\n      0x00\n        /* \"#utility.yul\":28103:28105   */\n      0x20\n        /* \"#utility.yul\":28092:28101   */\n      dup3\n        /* \"#utility.yul\":28088:28106   */\n      add\n        /* \"#utility.yul\":28080:28106   */\n      swap1\n      pop\n        /* \"#utility.yul\":28152:28161   */\n      dup2\n        /* \"#utility.yul\":28146:28150   */\n      dup2\n        /* \"#utility.yul\":28142:28162   */\n      sub\n        /* \"#utility.yul\":28138:28139   */\n      0x00\n        /* \"#utility.yul\":28127:28136   */\n      dup4\n        /* \"#utility.yul\":28123:28140   */\n      add\n        /* \"#utility.yul\":28116:28163   */\n      mstore\n        /* \"#utility.yul\":28180:28311   */\n      tag_631\n        /* \"#utility.yul\":28306:28310   */\n      dup2\n        /* \"#utility.yul\":28180:28311   */\n      tag_356\n      jump\t// in\n    tag_631:\n        /* \"#utility.yul\":28172:28311   */\n      swap1\n      pop\n        /* \"#utility.yul\":27899:28318   */\n      swap2\n      swap1\n      pop\n      jump\t// out\n        /* \"#utility.yul\":28324:28486   */\n    tag_357:\n        /* \"#utility.yul\":28464:28478   */\n      0x496e76616c696420746965720000000000000000000000000000000000000000\n        /* \"#utility.yul\":28460:28461   */\n      0x00\n        /* \"#utility.yul\":28452:28458   */\n      dup3\n        /* \"#utility.yul\":28448:28462   */\n      add\n        /* \"#utility.yul\":28441:28479   */\n      mstore\n        /* \"#utility.yul\":28324:28486   */\n      pop\n      jump\t// out\n        /* \"#utility.yul\":28492:28858   */\n    tag_358:\n        /* \"#utility.yul\":28634:28637   */\n      0x00\n        /* \"#utility.yul\":28655:28722   */\n      tag_634\n        /* \"#utility.yul\":28719:28721   */\n      0x0c\n        /* \"#utility.yul\":28714:28717   */\n      dup4\n        /* \"#utility.yul\":28655:28722   */\n      tag_288\n      jump\t// in\n    tag_634:\n        /* \"#utility.yul\":28648:28722   */\n      swap2\n      pop\n        /* \"#utility.yul\":28731:28824   */\n      tag_635\n        /* \"#utility.yul\":28820:28823   */\n      dup3\n        /* \"#utility.yul\":28731:28824   */\n      tag_357\n      jump\t// in\n    tag_635:\n        /* \"#utility.yul\":28849:28851   */\n      0x20\n        /* \"#utility.yul\":28844:28847   */\n      dup3\n        /* \"#utility.yul\":28840:28852   */\n      add\n        /* \"#utility.yul\":28833:28852   */\n      swap1\n      pop\n        /* \"#utility.yul\":28492:28858   */\n      swap2\n      swap1\n      pop\n      jump\t// out\n        /* \"#utility.yul\":28864:29283   */\n    tag_235:\n        /* \"#utility.yul\":29030:29034   */\n      0x00\n        /* \"#utility.yul\":29068:29070   */\n      0x20\n        /* \"#utility.yul\":29057:29066   */\n      dup3\n        /* \"#utility.yul\":29053:29071   */\n      add\n        /* \"#utility.yul\":29045:29071   */\n      swap1\n      pop\n        /* \"#utility.yul\":29117:29126   */\n      dup2\n        /* \"#utility.yul\":29111:29115   */\n      dup2\n        /* \"#utility.yul\":29107:29127   */\n      sub\n        /* \"#utility.yul\":29103:29104   */\n      0x00\n        /* \"#utility.yul\":29092:29101   */\n      dup4\n        /* \"#utility.yul\":29088:29105   */\n      add\n        /* \"#utility.yul\":29081:29128   */\n      mstore\n        /* \"#utility.yul\":29145:29276   */\n      tag_637\n        /* \"#utility.yul\":29271:29275   */\n      dup2\n        /* \"#utility.yul\":29145:29276   */\n      tag_358\n      jump\t// in\n    tag_637:\n        /* \"#utility.yul\":29137:29276   */\n      swap1\n      pop\n        /* \"#utility.yul\":28864:29283   */\n      swap2\n      swap1\n      pop\n      jump\t// out\n        /* \"#utility.yul\":29289:29455   */\n    tag_359:\n        /* \"#utility.yul\":29429:29447   */\n      0x496e636f727265637420416d6f756e7400000000000000000000000000000000\n        /* \"#utility.yul\":29425:29426   */\n      0x00\n        /* \"#utility.yul\":29417:29423   */\n      dup3\n        /* \"#utility.yul\":29413:29427   */\n      add\n        /* \"#utility.yul\":29406:29448   */\n      mstore\n        /* \"#utility.yul\":29289:29455   */\n      pop\n      jump\t// out\n        /* \"#utility.yul\":29461:29827   */\n    tag_360:\n        /* \"#utility.yul\":29603:29606   */\n      0x00\n        /* \"#utility.yul\":29624:29691   */\n      tag_640\n        /* \"#utility.yul\":29688:29690   */\n      0x10\n        /* \"#utility.yul\":29683:29686   */\n      dup4\n        /* \"#utility.yul\":29624:29691   */\n      tag_288\n      jump\t// in\n    tag_640:\n        /* \"#utility.yul\":29617:29691   */\n      swap2\n      pop\n        /* \"#utility.yul\":29700:29793   */\n      tag_641\n        /* \"#utility.yul\":29789:29792   */\n      dup3\n        /* \"#utility.yul\":29700:29793   */\n      tag_359\n      jump\t// in\n    tag_641:\n        /* \"#utility.yul\":29818:29820   */\n      0x20\n        /* \"#utility.yul\":29813:29816   */\n      dup3\n        /* \"#utility.yul\":29809:29821   */\n      add\n        /* \"#utility.yul\":29802:29821   */\n      swap1\n      pop\n        /* \"#utility.yul\":29461:29827   */\n      swap2\n      swap1\n      pop\n      jump\t// out\n        /* \"#utility.yul\":29833:30252   */\n    tag_241:\n        /* \"#utility.yul\":29999:30003   */\n      0x00\n        /* \"#utility.yul\":30037:30039   */\n      0x20\n        /* \"#utility.yul\":30026:30035   */\n      dup3\n        /* \"#utility.yul\":30022:30040   */\n      add\n        /* \"#utility.yul\":30014:30040   */\n      swap1\n      pop\n        /* \"#utility.yul\":30086:30095   */\n      dup2\n        /* \"#utility.yul\":30080:30084   */\n      dup2\n        /* \"#utility.yul\":30076:30096   */\n      sub\n        /* \"#utility.yul\":30072:30073   */\n      0x00\n        /* \"#utility.yul\":30061:30070   */\n      dup4\n        /* \"#utility.yul\":30057:30074   */\n      add\n        /* \"#utility.yul\":30050:30097   */\n      mstore\n        /* \"#utility.yul\":30114:30245   */\n      tag_643\n        /* \"#utility.yul\":30240:30244   */\n      dup2\n        /* \"#utility.yul\":30114:30245   */\n      tag_360\n      jump\t// in\n    tag_643:\n        /* \"#utility.yul\":30106:30245   */\n      swap1\n      pop\n        /* \"#utility.yul\":29833:30252   */\n      swap2\n      swap1\n      pop\n      jump\t// out\n        /* \"#utility.yul\":30258:30491   */\n    tag_246:\n        /* \"#utility.yul\":30297:30300   */\n      0x00\n        /* \"#utility.yul\":30320:30344   */\n      tag_645\n        /* \"#utility.yul\":30338:30343   */\n      dup3\n        /* \"#utility.yul\":30320:30344   */\n      tag_284\n      jump\t// in\n    tag_645:\n        /* \"#utility.yul\":30311:30344   */\n      swap2\n      pop\n        /* \"#utility.yul\":30366:30432   */\n      0xffffffffffffffffffffffffffffffffffffffffffffffffffffffffffffffff\n        /* \"#utility.yul\":30359:30364   */\n      dup3\n        /* \"#utility.yul\":30356:30433   */\n      sub\n        /* \"#utility.yul\":30353:30456   */\n      tag_646\n      jumpi\n        /* \"#utility.yul\":30436:30454   */\n      tag_647\n      tag_328\n      jump\t// in\n    tag_647:\n        /* \"#utility.yul\":30353:30456   */\n    tag_646:\n        /* \"#utility.yul\":30483:30484   */\n      0x01\n        /* \"#utility.yul\":30476:30481   */\n      dup3\n        /* \"#utility.yul\":30472:30485   */\n      add\n        /* \"#utility.yul\":30465:30485   */\n      swap1\n      pop\n        /* \"#utility.yul\":30258:30491   */\n      swap2\n      swap1\n      pop\n      jump\t// out\n\n    auxdata: 0xa2646970667358221220ef02c3ad9c0cd0828f740718de7cb0234ee88661ed29d308a11978365637ea4c64736f6c634300081a0033\n}\n",
				"bytecode": {
					"linkReferences": {},
					"object": "608060405234801561000f575f80fd5b506040516129503803806129508339818101604052810190610031919061026a565b835f908161003f919061050a565b50826001908161004f919061050a565b508160028190555062015180816100669190610606565b426100719190610647565b6003819055503360045f6101000a81548173ffffffffffffffffffffffffffffffffffffffff021916908373ffffffffffffffffffffffffffffffffffffffff1602179055505f600460156101000a81548160ff021916908360028111156100dc576100db61067a565b5b0217905550505050506106a7565b5f604051905090565b5f80fd5b5f80fd5b5f80fd5b5f80fd5b5f601f19601f8301169050919050565b7f4e487b71000000000000000000000000000000000000000000000000000000005f52604160045260245ffd5b61014982610103565b810181811067ffffffffffffffff8211171561016857610167610113565b5b80604052505050565b5f61017a6100ea565b90506101868282610140565b919050565b5f67ffffffffffffffff8211156101a5576101a4610113565b5b6101ae82610103565b9050602081019050919050565b8281835e5f83830152505050565b5f6101db6101d68461018b565b610171565b9050828152602081018484840111156101f7576101f66100ff565b5b6102028482856101bb565b509392505050565b5f82601f83011261021e5761021d6100fb565b5b815161022e8482602086016101c9565b91505092915050565b5f819050919050565b61024981610237565b8114610253575f80fd5b50565b5f8151905061026481610240565b92915050565b5f805f8060808587031215610282576102816100f3565b5b5f85015167ffffffffffffffff81111561029f5761029e6100f7565b5b6102ab8782880161020a565b945050602085015167ffffffffffffffff8111156102cc576102cb6100f7565b5b6102d88782880161020a565b93505060406102e987828801610256565b92505060606102fa87828801610256565b91505092959194509250565b5f81519050919050565b7f4e487b71000000000000000000000000000000000000000000000000000000005f52602260045260245ffd5b5f600282049050600182168061035457607f821691505b60208210810361036757610366610310565b5b50919050565b5f819050815f5260205f209050919050565b5f6020601f8301049050919050565b5f82821b905092915050565b5f600883026103c97fffffffffffffffffffffffffffffffffffffffffffffffffffffffffffffffff8261038e565b6103d3868361038e565b95508019841693508086168417925050509392505050565b5f819050919050565b5f61040e61040961040484610237565b6103eb565b610237565b9050919050565b5f819050919050565b610427836103f4565b61043b61043382610415565b84845461039a565b825550505050565b5f90565b61044f610443565b61045a81848461041e565b505050565b5b8181101561047d576104725f82610447565b600181019050610460565b5050565b601f8211156104c2576104938161036d565b61049c8461037f565b810160208510156104ab578190505b6104bf6104b78561037f565b83018261045f565b50505b505050565b5f82821c905092915050565b5f6104e25f19846008026104c7565b1980831691505092915050565b5f6104fa83836104d3565b9150826002028217905092915050565b61051382610306565b67ffffffffffffffff81111561052c5761052b610113565b5b610536825461033d565b610541828285610481565b5f60209050601f831160018114610572575f8415610560578287015190505b61056a85826104ef565b8655506105d1565b601f1984166105808661036d565b5f5b828110156105a757848901518255600182019150602085019450602081019050610582565b868310156105c457848901516105c0601f8916826104d3565b8355505b6001600288020188555050505b505050505050565b7f4e487b71000000000000000000000000000000000000000000000000000000005f52601160045260245ffd5b5f61061082610237565b915061061b83610237565b925082820261062981610237565b915082820484148315176106405761063f6105d9565b5b5092915050565b5f61065182610237565b915061065c83610237565b9250828201905080821115610674576106736105d9565b5b92915050565b7f4e487b71000000000000000000000000000000000000000000000000000000005f52602160045260245ffd5b61229c806106b45f395ff3fe60806040526004361061011e575f3560e01c80637284e4161161009f578063b85dfb8011610063578063b85dfb8014610390578063c19d93fb146103cc578063c4ae3168146103f6578063ca1d209d1461040c578063de170570146104285761011e565b80637284e416146102b05780637497211b146102da5780637adba527146103025780638da5cb5b1461033e5780638ece7b91146103685761011e565b8063389b7533116100e6578063389b7533146102085780633ccfd60b146102305780634019388314610246578063590e1ae3146102705780635c975abb146102865761011e565b8063039af9eb1461012257806306fdde0314610160578063105505151461018a57806312065fe0146101b457806329dcb0cf146101de575b5f80fd5b34801561012d575f80fd5b5061014860048036038101906101439190611345565b610452565b604051610157939291906113ef565b60405180910390f35b34801561016b575f80fd5b5061017461050d565b604051610181919061142b565b60405180910390f35b348015610195575f80fd5b5061019e610598565b6040516101ab91906114be565b60405180910390f35b3480156101bf575f80fd5b506101c8610612565b6040516101d591906114d7565b60405180910390f35b3480156101e9575f80fd5b506101f2610619565b6040516101ff91906114d7565b60405180910390f35b348015610213575f80fd5b5061022e60048036038101906102299190611345565b61061f565b005b34801561023b575f80fd5b5061024461074c565b005b348015610251575f80fd5b5061025a610907565b60405161026791906114d7565b60405180910390f35b34801561027b575f80fd5b5061028461090d565b005b348015610291575f80fd5b5061029a610a25565b6040516102a7919061150a565b60405180910390f35b3480156102bb575f80fd5b506102c4610a38565b6040516102d1919061142b565b60405180910390f35b3480156102e5575f80fd5b5061030060048036038101906102fb9190611345565b610ac4565b005b34801561030d575f80fd5b506103286004803603810190610323919061157d565b610bce565b604051610335919061150a565b60405180910390f35b348015610349575f80fd5b50610352610c33565b60405161035f91906115ca565b60405180910390f35b348015610373575f80fd5b5061038e6004803603810190610389919061170f565b610c58565b005b34801561039b575f80fd5b506103b660048036038101906103b19190611769565b610d9a565b6040516103c391906114d7565b60405180910390f35b3480156103d7575f80fd5b506103e0610db4565b6040516103ed91906114be565b60405180910390f35b348015610401575f80fd5b5061040a610dc7565b005b61042660048036038101906104219190611345565b610e82565b005b348015610433575f80fd5b5061043c6110e5565b60405161044991906118f3565b60405180910390f35b60058181548110610461575f80fd5b905f5260205f2090600302015f91509050805f01805461048090611940565b80601f01602080910402602001604051908101604052809291908181526020018280546104ac90611940565b80156104f75780601f106104ce576101008083540402835291602001916104f7565b820191905f5260205f20905b8154815290600101906020018083116104da57829003601f168201915b5050505050908060010154908060020154905083565b5f805461051990611940565b80601f016020809104026020016040519081016040528092919081815260200182805461054590611940565b80156105905780601f1061056757610100808354040283529160200191610590565b820191905f5260205f20905b81548152906001019060200180831161057357829003601f168201915b505050505081565b5f8060028111156105ac576105ab61144b565b5b600460159054906101000a900460ff1660028111156105ce576105cd61144b565b5b1480156105dc575060035442115b156105fc576002544710156105f25760026105f5565b60015b905061060f565b600460159054906101000a900460ff1690505b90565b5f47905090565b60035481565b60045f9054906101000a900473ffffffffffffffffffffffffffffffffffffffff1673ffffffffffffffffffffffffffffffffffffffff163373ffffffffffffffffffffffffffffffffffffffff16146106ae576040517f08c379a00000000000000000000000000000000000000000000000000000000081526004016106a5906119ba565b60405180910390fd5b5f60028111156106c1576106c061144b565b5b600460159054906101000a900460ff1660028111156106e3576106e261144b565b5b14610723576040517f08c379a000000000000000000000000000000000000000000000000000000000815260040161071a90611a22565b60405180910390fd5b62015180816107329190611a6d565b60035f8282546107429190611a6d565b9250508190555050565b60045f9054906101000a900473ffffffffffffffffffffffffffffffffffffffff1673ffffffffffffffffffffffffffffffffffffffff163373ffffffffffffffffffffffffffffffffffffffff16146107db576040517f08c379a00000000000000000000000000000000000000000000000000000000081526004016107d2906119ba565b60405180910390fd5b6107e36111e4565b600160028111156107f7576107f661144b565b5b600460159054906101000a900460ff1660028111156108195761081861144b565b5b14610859576040517f08c379a000000000000000000000000000000000000000000000000000000000815260040161085090611aea565b60405180910390fd5b5f4790505f811161089f576040517f08c379a000000000000000000000000000000000000000000000000000000000815260040161089690611b52565b60405180910390fd5b60045f9054906101000a900473ffffffffffffffffffffffffffffffffffffffff1673ffffffffffffffffffffffffffffffffffffffff166108fc8290811502906040515f60405180830381858888f19350505050158015610903573d5f803e3d5ffd5b5050565b60025481565b6109156111e4565b5f60065f3373ffffffffffffffffffffffffffffffffffffffff1673ffffffffffffffffffffffffffffffffffffffff1681526020019081526020015f205f015490505f811161099a576040517f08c379a000000000000000000000000000000000000000000000000000000000815260040161099190611be0565b60405180910390fd5b5f60065f3373ffffffffffffffffffffffffffffffffffffffff1673ffffffffffffffffffffffffffffffffffffffff1681526020019081526020015f205f01819055503373ffffffffffffffffffffffffffffffffffffffff166108fc8290811502906040515f60405180830381858888f19350505050158015610a21573d5f803e3d5ffd5b5050565b600460149054906101000a900460ff1681565b60018054610a4590611940565b80601f0160208091040260200160405190810160405280929190818152602001828054610a7190611940565b8015610abc5780601f10610a9357610100808354040283529160200191610abc565b820191905f5260205f20905b815481529060010190602001808311610a9f57829003601f168201915b505050505081565b6005805490508110610b0b576040517f08c379a0000000000000000000000000000000000000000000000000000000008152600401610b0290611c48565b60405180910390fd5b60056001600580549050610b1f9190611c66565b81548110610b3057610b2f611c99565b5b905f5260205f20906003020160058281548110610b5057610b4f611c99565b5b905f5260205f2090600302015f8201815f019081610b6e9190611e78565b5060018201548160010155600282015481600201559050506005805480610b9857610b97611f5d565b5b600190038181905f5260205f2090600302015f8082015f610bb991906112a9565b600182015f9055600282015f90555050905550565b5f60065f8473ffffffffffffffffffffffffffffffffffffffff1673ffffffffffffffffffffffffffffffffffffffff1681526020019081526020015f206001015f8381526020019081526020015f205f9054906101000a900460ff16905092915050565b60045f9054906101000a900473ffffffffffffffffffffffffffffffffffffffff1681565b60045f9054906101000a900473ffffffffffffffffffffffffffffffffffffffff1673ffffffffffffffffffffffffffffffffffffffff163373ffffffffffffffffffffffffffffffffffffffff1614610ce7576040517f08c379a0000000000000000000000000000000000000000000000000000000008152600401610cde906119ba565b60405180910390fd5b5f8111610d29576040517f08c379a0000000000000000000000000000000000000000000000000000000008152600401610d2090611ffa565b60405180910390fd5b600560405180606001604052808481526020018381526020015f815250908060018154018082558091505060019003905f5260205f2090600302015f909190919091505f820151815f019081610d7f9190612018565b50602082015181600101556040820151816002015550505050565b6006602052805f5260405f205f91509050805f0154905081565b600460159054906101000a900460ff1681565b60045f9054906101000a900473ffffffffffffffffffffffffffffffffffffffff1673ffffffffffffffffffffffffffffffffffffffff163373ffffffffffffffffffffffffffffffffffffffff1614610e56576040517f08c379a0000000000000000000000000000000000000000000000000000000008152600401610e4d906119ba565b60405180910390fd5b600460149054906101000a900460ff1615600460146101000a81548160ff021916908315150217905550565b5f6002811115610e9557610e9461144b565b5b600460159054906101000a900460ff166002811115610eb757610eb661144b565b5b14610ef7576040517f08c379a0000000000000000000000000000000000000000000000000000000008152600401610eee90611a22565b60405180910390fd5b600460149054906101000a900460ff1615610f47576040517f08c379a0000000000000000000000000000000000000000000000000000000008152600401610f3e90612131565b60405180910390fd5b6005805490508110610f8e576040517f08c379a0000000000000000000000000000000000000000000000000000000008152600401610f8590612199565b60405180910390fd5b60058181548110610fa257610fa1611c99565b5b905f5260205f209060030201600101543414610ff3576040517f08c379a0000000000000000000000000000000000000000000000000000000008152600401610fea90612201565b60405180910390fd5b6005818154811061100757611006611c99565b5b905f5260205f2090600302016002015f8154809291906110269061221f565b91905055503460065f3373ffffffffffffffffffffffffffffffffffffffff1673ffffffffffffffffffffffffffffffffffffffff1681526020019081526020015f205f015f8282546110799190611a6d565b9250508190555060065f3373ffffffffffffffffffffffffffffffffffffffff1673ffffffffffffffffffffffffffffffffffffffff1681526020019081526020015f206001015f8281526020019081526020015f205f9054906101000a9050506110e26111e4565b50565b60606005805480602002602001604051908101604052809291908181526020015f905b828210156111db578382905f5260205f2090600302016040518060600160405290815f8201805461113890611940565b80601f016020809104026020016040519081016040528092919081815260200182805461116490611940565b80156111af5780601f10611186576101008083540402835291602001916111af565b820191905f5260205f20905b81548152906001019060200180831161119257829003601f168201915b505050505081526020016001820154815260200160028201548152505081526020019060010190611108565b50505050905090565b5f60028111156111f7576111f661144b565b5b600460159054906101000a900460ff1660028111156112195761121861144b565b5b036112a75760035442106112695760025447101561123857600261123b565b60015b600460156101000a81548160ff0219169083600281111561125f5761125e61144b565b5b02179055506112a6565b600254471015611279575f61127c565b60015b600460156101000a81548160ff021916908360028111156112a05761129f61144b565b5b02179055505b5b565b5080546112b590611940565b5f825580601f106112c657506112e3565b601f0160209004905f5260205f20908101906112e291906112e6565b5b50565b5b808211156112fd575f815f9055506001016112e7565b5090565b5f604051905090565b5f80fd5b5f80fd5b5f819050919050565b61132481611312565b811461132e575f80fd5b50565b5f8135905061133f8161131b565b92915050565b5f6020828403121561135a5761135961130a565b5b5f61136784828501611331565b91505092915050565b5f81519050919050565b5f82825260208201905092915050565b8281835e5f83830152505050565b5f601f19601f8301169050919050565b5f6113b282611370565b6113bc818561137a565b93506113cc81856020860161138a565b6113d581611398565b840191505092915050565b6113e981611312565b82525050565b5f6060820190508181035f83015261140781866113a8565b905061141660208301856113e0565b61142360408301846113e0565b949350505050565b5f6020820190508181035f83015261144381846113a8565b905092915050565b7f4e487b71000000000000000000000000000000000000000000000000000000005f52602160045260245ffd5b600381106114895761148861144b565b5b50565b5f81905061149982611478565b919050565b5f6114a88261148c565b9050919050565b6114b88161149e565b82525050565b5f6020820190506114d15f8301846114af565b92915050565b5f6020820190506114ea5f8301846113e0565b92915050565b5f8115159050919050565b611504816114f0565b82525050565b5f60208201905061151d5f8301846114fb565b92915050565b5f73ffffffffffffffffffffffffffffffffffffffff82169050919050565b5f61154c82611523565b9050919050565b61155c81611542565b8114611566575f80fd5b50565b5f8135905061157781611553565b92915050565b5f80604083850312156115935761159261130a565b5b5f6115a085828601611569565b92505060206115b185828601611331565b9150509250929050565b6115c481611542565b82525050565b5f6020820190506115dd5f8301846115bb565b92915050565b5f80fd5b5f80fd5b7f4e487b71000000000000000000000000000000000000000000000000000000005f52604160045260245ffd5b61162182611398565b810181811067ffffffffffffffff821117156116405761163f6115eb565b5b80604052505050565b5f611652611301565b905061165e8282611618565b919050565b5f67ffffffffffffffff82111561167d5761167c6115eb565b5b61168682611398565b9050602081019050919050565b828183375f83830152505050565b5f6116b36116ae84611663565b611649565b9050828152602081018484840111156116cf576116ce6115e7565b5b6116da848285611693565b509392505050565b5f82601f8301126116f6576116f56115e3565b5b81356117068482602086016116a1565b91505092915050565b5f80604083850312156117255761172461130a565b5b5f83013567ffffffffffffffff8111156117425761174161130e565b5b61174e858286016116e2565b925050602061175f85828601611331565b9150509250929050565b5f6020828403121561177e5761177d61130a565b5b5f61178b84828501611569565b91505092915050565b5f81519050919050565b5f82825260208201905092915050565b5f819050602082019050919050565b5f82825260208201905092915050565b5f6117d782611370565b6117e181856117bd565b93506117f181856020860161138a565b6117fa81611398565b840191505092915050565b61180e81611312565b82525050565b5f606083015f8301518482035f86015261182e82826117cd565b91505060208301516118436020860182611805565b5060408301516118566040860182611805565b508091505092915050565b5f61186c8383611814565b905092915050565b5f602082019050919050565b5f61188a82611794565b611894818561179e565b9350836020820285016118a6856117ae565b805f5b858110156118e157848403895281516118c28582611861565b94506118cd83611874565b925060208a019950506001810190506118a9565b50829750879550505050505092915050565b5f6020820190508181035f83015261190b8184611880565b905092915050565b7f4e487b71000000000000000000000000000000000000000000000000000000005f52602260045260245ffd5b5f600282049050600182168061195757607f821691505b60208210810361196a57611969611913565b5b50919050565b7f4e6f7420746865204f776e6572000000000000000000000000000000000000005f82015250565b5f6119a4600d8361137a565b91506119af82611970565b602082019050919050565b5f6020820190508181035f8301526119d181611998565b9050919050565b7f43616d7061696e206973204e6f742041637469766500000000000000000000005f82015250565b5f611a0c60158361137a565b9150611a17826119d8565b602082019050919050565b5f6020820190508181035f830152611a3981611a00565b9050919050565b7f4e487b71000000000000000000000000000000000000000000000000000000005f52601160045260245ffd5b5f611a7782611312565b9150611a8283611312565b9250828201905080821115611a9a57611a99611a40565b5b92915050565b7f43616d7061696e206e6f742073756365737366756c00000000000000000000005f82015250565b5f611ad460158361137a565b9150611adf82611aa0565b602082019050919050565b5f6020820190508181035f830152611b0181611ac8565b9050919050565b7f4e6f2062616c616e636520746f207769746864726177000000000000000000005f82015250565b5f611b3c60168361137a565b9150611b4782611b08565b602082019050919050565b5f6020820190508181035f830152611b6981611b30565b9050919050565b7f596f7520616c7265616479204361696d656420796f757220636f6e74726962755f8201527f74696f6e00000000000000000000000000000000000000000000000000000000602082015250565b5f611bca60248361137a565b9150611bd582611b70565b604082019050919050565b5f6020820190508181035f830152611bf781611bbe565b9050919050565b7f5469657220646f65736e277420657869737400000000000000000000000000005f82015250565b5f611c3260128361137a565b9150611c3d82611bfe565b602082019050919050565b5f6020820190508181035f830152611c5f81611c26565b9050919050565b5f611c7082611312565b9150611c7b83611312565b9250828203905081811115611c9357611c92611a40565b5b92915050565b7f4e487b71000000000000000000000000000000000000000000000000000000005f52603260045260245ffd5b5f81549050611cd481611940565b9050919050565b5f819050815f5260205f209050919050565b5f6020601f8301049050919050565b5f82821b905092915050565b5f60088302611d377fffffffffffffffffffffffffffffffffffffffffffffffffffffffffffffffff82611cfc565b611d418683611cfc565b95508019841693508086168417925050509392505050565b5f819050919050565b5f611d7c611d77611d7284611312565b611d59565b611312565b9050919050565b5f819050919050565b611d9583611d62565b611da9611da182611d83565b848454611d08565b825550505050565b5f90565b611dbd611db1565b611dc8818484611d8c565b505050565b5b81811015611deb57611de05f82611db5565b600181019050611dce565b5050565b601f821115611e3057611e0181611cdb565b611e0a84611ced565b81016020851015611e19578190505b611e2d611e2585611ced565b830182611dcd565b50505b505050565b5f82821c905092915050565b5f611e505f1984600802611e35565b1980831691505092915050565b5f611e688383611e41565b9150826002028217905092915050565b818103611e86575050611f5b565b611e8f82611cc6565b67ffffffffffffffff811115611ea857611ea76115eb565b5b611eb28254611940565b611ebd828285611def565b5f601f831160018114611eea575f8415611ed8578287015490505b611ee28582611e5d565b865550611f54565b601f198416611ef887611cdb565b9650611f0386611cdb565b5f5b82811015611f2a57848901548255600182019150600185019450602081019050611f05565b86831015611f475784890154611f43601f891682611e41565b8355505b6001600288020188555050505b5050505050505b565b7f4e487b71000000000000000000000000000000000000000000000000000000005f52603160045260245ffd5b7f416d6f756e742073686f756c6420626520686967686572207468616e207a65725f8201527f6f00000000000000000000000000000000000000000000000000000000000000602082015250565b5f611fe460218361137a565b9150611fef82611f8a565b604082019050919050565b5f6020820190508181035f83015261201181611fd8565b9050919050565b61202182611370565b67ffffffffffffffff81111561203a576120396115eb565b5b6120448254611940565b61204f828285611def565b5f60209050601f831160018114612080575f841561206e578287015190505b6120788582611e5d565b8655506120df565b601f19841661208e86611cdb565b5f5b828110156120b557848901518255600182019150602085019450602081019050612090565b868310156120d257848901516120ce601f891682611e41565b8355505b6001600288020188555050505b505050505050565b7f5468652043616d706169676e20697320706175736564210000000000000000005f82015250565b5f61211b60178361137a565b9150612126826120e7565b602082019050919050565b5f6020820190508181035f8301526121488161210f565b9050919050565b7f496e76616c6964207469657200000000000000000000000000000000000000005f82015250565b5f612183600c8361137a565b915061218e8261214f565b602082019050919050565b5f6020820190508181035f8301526121b081612177565b9050919050565b7f496e636f727265637420416d6f756e74000000000000000000000000000000005f82015250565b5f6121eb60108361137a565b91506121f6826121b7565b602082019050919050565b5f6020820190508181035f830152612218816121df565b9050919050565b5f61222982611312565b91507fffffffffffffffffffffffffffffffffffffffffffffffffffffffffffffffff820361225b5761225a611a40565b5b60018201905091905056fea2646970667358221220ef02c3ad9c0cd0828f740718de7cb0234ee88661ed29d308a11978365637ea4c64736f6c634300081a0033",
					"opcodes": "PUSH1 0x80 PUSH1 0x40 MSTORE CALLVALUE DUP1 ISZERO PUSH2 0xF JUMPI PUSH0 DUP1 REVERT JUMPDEST POP PUSH1 0x40 MLOAD PUSH2 0x2950 CODESIZE SUB DUP1 PUSH2 0x2950 DUP4 CODECOPY DUP2 DUP2 ADD PUSH1 0x40 MSTORE DUP2 ADD SWAP1 PUSH2 0x31 SWAP2 SWAP1 PUSH2 0x26A JUMP JUMPDEST DUP4 PUSH0 SWAP1 DUP2 PUSH2 0x3F SWAP2 SWAP1 PUSH2 0x50A JUMP JUMPDEST POP DUP3 PUSH1 0x1 SWAP1 DUP2 PUSH2 0x4F SWAP2 SWAP1 PUSH2 0x50A JUMP JUMPDEST POP DUP2 PUSH1 0x2 DUP2 SWAP1 SSTORE POP PUSH3 0x15180 DUP2 PUSH2 0x66 SWAP2 SWAP1 PUSH2 0x606 JUMP JUMPDEST TIMESTAMP PUSH2 0x71 SWAP2 SWAP1 PUSH2 0x647 JUMP JUMPDEST PUSH1 0x3 DUP2 SWAP1 SSTORE POP CALLER PUSH1 0x4 PUSH0 PUSH2 0x100 EXP DUP2 SLOAD DUP2 PUSH20 0xFFFFFFFFFFFFFFFFFFFFFFFFFFFFFFFFFFFFFFFF MUL NOT AND SWAP1 DUP4 PUSH20 0xFFFFFFFFFFFFFFFFFFFFFFFFFFFFFFFFFFFFFFFF AND MUL OR SWAP1 SSTORE POP PUSH0 PUSH1 0x4 PUSH1 0x15 PUSH2 0x100 EXP DUP2 SLOAD DUP2 PUSH1 0xFF MUL NOT AND SWAP1 DUP4 PUSH1 0x2 DUP2 GT ISZERO PUSH2 0xDC JUMPI PUSH2 0xDB PUSH2 0x67A JUMP JUMPDEST JUMPDEST MUL OR SWAP1 SSTORE POP POP POP POP POP PUSH2 0x6A7 JUMP JUMPDEST PUSH0 PUSH1 0x40 MLOAD SWAP1 POP SWAP1 JUMP JUMPDEST PUSH0 DUP1 REVERT JUMPDEST PUSH0 DUP1 REVERT JUMPDEST PUSH0 DUP1 REVERT JUMPDEST PUSH0 DUP1 REVERT JUMPDEST PUSH0 PUSH1 0x1F NOT PUSH1 0x1F DUP4 ADD AND SWAP1 POP SWAP2 SWAP1 POP JUMP JUMPDEST PUSH32 0x4E487B7100000000000000000000000000000000000000000000000000000000 PUSH0 MSTORE PUSH1 0x41 PUSH1 0x4 MSTORE PUSH1 0x24 PUSH0 REVERT JUMPDEST PUSH2 0x149 DUP3 PUSH2 0x103 JUMP JUMPDEST DUP2 ADD DUP2 DUP2 LT PUSH8 0xFFFFFFFFFFFFFFFF DUP3 GT OR ISZERO PUSH2 0x168 JUMPI PUSH2 0x167 PUSH2 0x113 JUMP JUMPDEST JUMPDEST DUP1 PUSH1 0x40 MSTORE POP POP POP JUMP JUMPDEST PUSH0 PUSH2 0x17A PUSH2 0xEA JUMP JUMPDEST SWAP1 POP PUSH2 0x186 DUP3 DUP3 PUSH2 0x140 JUMP JUMPDEST SWAP2 SWAP1 POP JUMP JUMPDEST PUSH0 PUSH8 0xFFFFFFFFFFFFFFFF DUP3 GT ISZERO PUSH2 0x1A5 JUMPI PUSH2 0x1A4 PUSH2 0x113 JUMP JUMPDEST JUMPDEST PUSH2 0x1AE DUP3 PUSH2 0x103 JUMP JUMPDEST SWAP1 POP PUSH1 0x20 DUP2 ADD SWAP1 POP SWAP2 SWAP1 POP JUMP JUMPDEST DUP3 DUP2 DUP4 MCOPY PUSH0 DUP4 DUP4 ADD MSTORE POP POP POP JUMP JUMPDEST PUSH0 PUSH2 0x1DB PUSH2 0x1D6 DUP5 PUSH2 0x18B JUMP JUMPDEST PUSH2 0x171 JUMP JUMPDEST SWAP1 POP DUP3 DUP2 MSTORE PUSH1 0x20 DUP2 ADD DUP5 DUP5 DUP5 ADD GT ISZERO PUSH2 0x1F7 JUMPI PUSH2 0x1F6 PUSH2 0xFF JUMP JUMPDEST JUMPDEST PUSH2 0x202 DUP5 DUP3 DUP6 PUSH2 0x1BB JUMP JUMPDEST POP SWAP4 SWAP3 POP POP POP JUMP JUMPDEST PUSH0 DUP3 PUSH1 0x1F DUP4 ADD SLT PUSH2 0x21E JUMPI PUSH2 0x21D PUSH2 0xFB JUMP JUMPDEST JUMPDEST DUP2 MLOAD PUSH2 0x22E DUP5 DUP3 PUSH1 0x20 DUP7 ADD PUSH2 0x1C9 JUMP JUMPDEST SWAP2 POP POP SWAP3 SWAP2 POP POP JUMP JUMPDEST PUSH0 DUP2 SWAP1 POP SWAP2 SWAP1 POP JUMP JUMPDEST PUSH2 0x249 DUP2 PUSH2 0x237 JUMP JUMPDEST DUP2 EQ PUSH2 0x253 JUMPI PUSH0 DUP1 REVERT JUMPDEST POP JUMP JUMPDEST PUSH0 DUP2 MLOAD SWAP1 POP PUSH2 0x264 DUP2 PUSH2 0x240 JUMP JUMPDEST SWAP3 SWAP2 POP POP JUMP JUMPDEST PUSH0 DUP1 PUSH0 DUP1 PUSH1 0x80 DUP6 DUP8 SUB SLT ISZERO PUSH2 0x282 JUMPI PUSH2 0x281 PUSH2 0xF3 JUMP JUMPDEST JUMPDEST PUSH0 DUP6 ADD MLOAD PUSH8 0xFFFFFFFFFFFFFFFF DUP2 GT ISZERO PUSH2 0x29F JUMPI PUSH2 0x29E PUSH2 0xF7 JUMP JUMPDEST JUMPDEST PUSH2 0x2AB DUP8 DUP3 DUP9 ADD PUSH2 0x20A JUMP JUMPDEST SWAP5 POP POP PUSH1 0x20 DUP6 ADD MLOAD PUSH8 0xFFFFFFFFFFFFFFFF DUP2 GT ISZERO PUSH2 0x2CC JUMPI PUSH2 0x2CB PUSH2 0xF7 JUMP JUMPDEST JUMPDEST PUSH2 0x2D8 DUP8 DUP3 DUP9 ADD PUSH2 0x20A JUMP JUMPDEST SWAP4 POP POP PUSH1 0x40 PUSH2 0x2E9 DUP8 DUP3 DUP9 ADD PUSH2 0x256 JUMP JUMPDEST SWAP3 POP POP PUSH1 0x60 PUSH2 0x2FA DUP8 DUP3 DUP9 ADD PUSH2 0x256 JUMP JUMPDEST SWAP2 POP POP SWAP3 SWAP6 SWAP2 SWAP5 POP SWAP3 POP JUMP JUMPDEST PUSH0 DUP2 MLOAD SWAP1 POP SWAP2 SWAP1 POP JUMP JUMPDEST PUSH32 0x4E487B7100000000000000000000000000000000000000000000000000000000 PUSH0 MSTORE PUSH1 0x22 PUSH1 0x4 MSTORE PUSH1 0x24 PUSH0 REVERT JUMPDEST PUSH0 PUSH1 0x2 DUP3 DIV SWAP1 POP PUSH1 0x1 DUP3 AND DUP1 PUSH2 0x354 JUMPI PUSH1 0x7F DUP3 AND SWAP2 POP JUMPDEST PUSH1 0x20 DUP3 LT DUP2 SUB PUSH2 0x367 JUMPI PUSH2 0x366 PUSH2 0x310 JUMP JUMPDEST JUMPDEST POP SWAP2 SWAP1 POP JUMP JUMPDEST PUSH0 DUP2 SWAP1 POP DUP2 PUSH0 MSTORE PUSH1 0x20 PUSH0 KECCAK256 SWAP1 POP SWAP2 SWAP1 POP JUMP JUMPDEST PUSH0 PUSH1 0x20 PUSH1 0x1F DUP4 ADD DIV SWAP1 POP SWAP2 SWAP1 POP JUMP JUMPDEST PUSH0 DUP3 DUP3 SHL SWAP1 POP SWAP3 SWAP2 POP POP JUMP JUMPDEST PUSH0 PUSH1 0x8 DUP4 MUL PUSH2 0x3C9 PUSH32 0xFFFFFFFFFFFFFFFFFFFFFFFFFFFFFFFFFFFFFFFFFFFFFFFFFFFFFFFFFFFFFFFF DUP3 PUSH2 0x38E JUMP JUMPDEST PUSH2 0x3D3 DUP7 DUP4 PUSH2 0x38E JUMP JUMPDEST SWAP6 POP DUP1 NOT DUP5 AND SWAP4 POP DUP1 DUP7 AND DUP5 OR SWAP3 POP POP POP SWAP4 SWAP3 POP POP POP JUMP JUMPDEST PUSH0 DUP2 SWAP1 POP SWAP2 SWAP1 POP JUMP JUMPDEST PUSH0 PUSH2 0x40E PUSH2 0x409 PUSH2 0x404 DUP5 PUSH2 0x237 JUMP JUMPDEST PUSH2 0x3EB JUMP JUMPDEST PUSH2 0x237 JUMP JUMPDEST SWAP1 POP SWAP2 SWAP1 POP JUMP JUMPDEST PUSH0 DUP2 SWAP1 POP SWAP2 SWAP1 POP JUMP JUMPDEST PUSH2 0x427 DUP4 PUSH2 0x3F4 JUMP JUMPDEST PUSH2 0x43B PUSH2 0x433 DUP3 PUSH2 0x415 JUMP JUMPDEST DUP5 DUP5 SLOAD PUSH2 0x39A JUMP JUMPDEST DUP3 SSTORE POP POP POP POP JUMP JUMPDEST PUSH0 SWAP1 JUMP JUMPDEST PUSH2 0x44F PUSH2 0x443 JUMP JUMPDEST PUSH2 0x45A DUP2 DUP5 DUP5 PUSH2 0x41E JUMP JUMPDEST POP POP POP JUMP JUMPDEST JUMPDEST DUP2 DUP2 LT ISZERO PUSH2 0x47D JUMPI PUSH2 0x472 PUSH0 DUP3 PUSH2 0x447 JUMP JUMPDEST PUSH1 0x1 DUP2 ADD SWAP1 POP PUSH2 0x460 JUMP JUMPDEST POP POP JUMP JUMPDEST PUSH1 0x1F DUP3 GT ISZERO PUSH2 0x4C2 JUMPI PUSH2 0x493 DUP2 PUSH2 0x36D JUMP JUMPDEST PUSH2 0x49C DUP5 PUSH2 0x37F JUMP JUMPDEST DUP2 ADD PUSH1 0x20 DUP6 LT ISZERO PUSH2 0x4AB JUMPI DUP2 SWAP1 POP JUMPDEST PUSH2 0x4BF PUSH2 0x4B7 DUP6 PUSH2 0x37F JUMP JUMPDEST DUP4 ADD DUP3 PUSH2 0x45F JUMP JUMPDEST POP POP JUMPDEST POP POP POP JUMP JUMPDEST PUSH0 DUP3 DUP3 SHR SWAP1 POP SWAP3 SWAP2 POP POP JUMP JUMPDEST PUSH0 PUSH2 0x4E2 PUSH0 NOT DUP5 PUSH1 0x8 MUL PUSH2 0x4C7 JUMP JUMPDEST NOT DUP1 DUP4 AND SWAP2 POP POP SWAP3 SWAP2 POP POP JUMP JUMPDEST PUSH0 PUSH2 0x4FA DUP4 DUP4 PUSH2 0x4D3 JUMP JUMPDEST SWAP2 POP DUP3 PUSH1 0x2 MUL DUP3 OR SWAP1 POP SWAP3 SWAP2 POP POP JUMP JUMPDEST PUSH2 0x513 DUP3 PUSH2 0x306 JUMP JUMPDEST PUSH8 0xFFFFFFFFFFFFFFFF DUP2 GT ISZERO PUSH2 0x52C JUMPI PUSH2 0x52B PUSH2 0x113 JUMP JUMPDEST JUMPDEST PUSH2 0x536 DUP3 SLOAD PUSH2 0x33D JUMP JUMPDEST PUSH2 0x541 DUP3 DUP3 DUP6 PUSH2 0x481 JUMP JUMPDEST PUSH0 PUSH1 0x20 SWAP1 POP PUSH1 0x1F DUP4 GT PUSH1 0x1 DUP2 EQ PUSH2 0x572 JUMPI PUSH0 DUP5 ISZERO PUSH2 0x560 JUMPI DUP3 DUP8 ADD MLOAD SWAP1 POP JUMPDEST PUSH2 0x56A DUP6 DUP3 PUSH2 0x4EF JUMP JUMPDEST DUP7 SSTORE POP PUSH2 0x5D1 JUMP JUMPDEST PUSH1 0x1F NOT DUP5 AND PUSH2 0x580 DUP7 PUSH2 0x36D JUMP JUMPDEST PUSH0 JUMPDEST DUP3 DUP2 LT ISZERO PUSH2 0x5A7 JUMPI DUP5 DUP10 ADD MLOAD DUP3 SSTORE PUSH1 0x1 DUP3 ADD SWAP2 POP PUSH1 0x20 DUP6 ADD SWAP5 POP PUSH1 0x20 DUP2 ADD SWAP1 POP PUSH2 0x582 JUMP JUMPDEST DUP7 DUP4 LT ISZERO PUSH2 0x5C4 JUMPI DUP5 DUP10 ADD MLOAD PUSH2 0x5C0 PUSH1 0x1F DUP10 AND DUP3 PUSH2 0x4D3 JUMP JUMPDEST DUP4 SSTORE POP JUMPDEST PUSH1 0x1 PUSH1 0x2 DUP9 MUL ADD DUP9 SSTORE POP POP POP JUMPDEST POP POP POP POP POP POP JUMP JUMPDEST PUSH32 0x4E487B7100000000000000000000000000000000000000000000000000000000 PUSH0 MSTORE PUSH1 0x11 PUSH1 0x4 MSTORE PUSH1 0x24 PUSH0 REVERT JUMPDEST PUSH0 PUSH2 0x610 DUP3 PUSH2 0x237 JUMP JUMPDEST SWAP2 POP PUSH2 0x61B DUP4 PUSH2 0x237 JUMP JUMPDEST SWAP3 POP DUP3 DUP3 MUL PUSH2 0x629 DUP2 PUSH2 0x237 JUMP JUMPDEST SWAP2 POP DUP3 DUP3 DIV DUP5 EQ DUP4 ISZERO OR PUSH2 0x640 JUMPI PUSH2 0x63F PUSH2 0x5D9 JUMP JUMPDEST JUMPDEST POP SWAP3 SWAP2 POP POP JUMP JUMPDEST PUSH0 PUSH2 0x651 DUP3 PUSH2 0x237 JUMP JUMPDEST SWAP2 POP PUSH2 0x65C DUP4 PUSH2 0x237 JUMP JUMPDEST SWAP3 POP DUP3 DUP3 ADD SWAP1 POP DUP1 DUP3 GT ISZERO PUSH2 0x674 JUMPI PUSH2 0x673 PUSH2 0x5D9 JUMP JUMPDEST JUMPDEST SWAP3 SWAP2 POP POP JUMP JUMPDEST PUSH32 0x4E487B7100000000000000000000000000000000000000000000000000000000 PUSH0 MSTORE PUSH1 0x21 PUSH1 0x4 MSTORE PUSH1 0x24 PUSH0 REVERT JUMPDEST PUSH2 0x229C DUP1 PUSH2 0x6B4 PUSH0 CODECOPY PUSH0 RETURN INVALID PUSH1 0x80 PUSH1 0x40 MSTORE PUSH1 0x4 CALLDATASIZE LT PUSH2 0x11E JUMPI PUSH0 CALLDATALOAD PUSH1 0xE0 SHR DUP1 PUSH4 0x7284E416 GT PUSH2 0x9F JUMPI DUP1 PUSH4 0xB85DFB80 GT PUSH2 0x63 JUMPI DUP1 PUSH4 0xB85DFB80 EQ PUSH2 0x390 JUMPI DUP1 PUSH4 0xC19D93FB EQ PUSH2 0x3CC JUMPI DUP1 PUSH4 0xC4AE3168 EQ PUSH2 0x3F6 JUMPI DUP1 PUSH4 0xCA1D209D EQ PUSH2 0x40C JUMPI DUP1 PUSH4 0xDE170570 EQ PUSH2 0x428 JUMPI PUSH2 0x11E JUMP JUMPDEST DUP1 PUSH4 0x7284E416 EQ PUSH2 0x2B0 JUMPI DUP1 PUSH4 0x7497211B EQ PUSH2 0x2DA JUMPI DUP1 PUSH4 0x7ADBA527 EQ PUSH2 0x302 JUMPI DUP1 PUSH4 0x8DA5CB5B EQ PUSH2 0x33E JUMPI DUP1 PUSH4 0x8ECE7B91 EQ PUSH2 0x368 JUMPI PUSH2 0x11E JUMP JUMPDEST DUP1 PUSH4 0x389B7533 GT PUSH2 0xE6 JUMPI DUP1 PUSH4 0x389B7533 EQ PUSH2 0x208 JUMPI DUP1 PUSH4 0x3CCFD60B EQ PUSH2 0x230 JUMPI DUP1 PUSH4 0x40193883 EQ PUSH2 0x246 JUMPI DUP1 PUSH4 0x590E1AE3 EQ PUSH2 0x270 JUMPI DUP1 PUSH4 0x5C975ABB EQ PUSH2 0x286 JUMPI PUSH2 0x11E JUMP JUMPDEST DUP1 PUSH4 0x39AF9EB EQ PUSH2 0x122 JUMPI DUP1 PUSH4 0x6FDDE03 EQ PUSH2 0x160 JUMPI DUP1 PUSH4 0x10550515 EQ PUSH2 0x18A JUMPI DUP1 PUSH4 0x12065FE0 EQ PUSH2 0x1B4 JUMPI DUP1 PUSH4 0x29DCB0CF EQ PUSH2 0x1DE JUMPI JUMPDEST PUSH0 DUP1 REVERT JUMPDEST CALLVALUE DUP1 ISZERO PUSH2 0x12D JUMPI PUSH0 DUP1 REVERT JUMPDEST POP PUSH2 0x148 PUSH1 0x4 DUP1 CALLDATASIZE SUB DUP2 ADD SWAP1 PUSH2 0x143 SWAP2 SWAP1 PUSH2 0x1345 JUMP JUMPDEST PUSH2 0x452 JUMP JUMPDEST PUSH1 0x40 MLOAD PUSH2 0x157 SWAP4 SWAP3 SWAP2 SWAP1 PUSH2 0x13EF JUMP JUMPDEST PUSH1 0x40 MLOAD DUP1 SWAP2 SUB SWAP1 RETURN JUMPDEST CALLVALUE DUP1 ISZERO PUSH2 0x16B JUMPI PUSH0 DUP1 REVERT JUMPDEST POP PUSH2 0x174 PUSH2 0x50D JUMP JUMPDEST PUSH1 0x40 MLOAD PUSH2 0x181 SWAP2 SWAP1 PUSH2 0x142B JUMP JUMPDEST PUSH1 0x40 MLOAD DUP1 SWAP2 SUB SWAP1 RETURN JUMPDEST CALLVALUE DUP1 ISZERO PUSH2 0x195 JUMPI PUSH0 DUP1 REVERT JUMPDEST POP PUSH2 0x19E PUSH2 0x598 JUMP JUMPDEST PUSH1 0x40 MLOAD PUSH2 0x1AB SWAP2 SWAP1 PUSH2 0x14BE JUMP JUMPDEST PUSH1 0x40 MLOAD DUP1 SWAP2 SUB SWAP1 RETURN JUMPDEST CALLVALUE DUP1 ISZERO PUSH2 0x1BF JUMPI PUSH0 DUP1 REVERT JUMPDEST POP PUSH2 0x1C8 PUSH2 0x612 JUMP JUMPDEST PUSH1 0x40 MLOAD PUSH2 0x1D5 SWAP2 SWAP1 PUSH2 0x14D7 JUMP JUMPDEST PUSH1 0x40 MLOAD DUP1 SWAP2 SUB SWAP1 RETURN JUMPDEST CALLVALUE DUP1 ISZERO PUSH2 0x1E9 JUMPI PUSH0 DUP1 REVERT JUMPDEST POP PUSH2 0x1F2 PUSH2 0x619 JUMP JUMPDEST PUSH1 0x40 MLOAD PUSH2 0x1FF SWAP2 SWAP1 PUSH2 0x14D7 JUMP JUMPDEST PUSH1 0x40 MLOAD DUP1 SWAP2 SUB SWAP1 RETURN JUMPDEST CALLVALUE DUP1 ISZERO PUSH2 0x213 JUMPI PUSH0 DUP1 REVERT JUMPDEST POP PUSH2 0x22E PUSH1 0x4 DUP1 CALLDATASIZE SUB DUP2 ADD SWAP1 PUSH2 0x229 SWAP2 SWAP1 PUSH2 0x1345 JUMP JUMPDEST PUSH2 0x61F JUMP JUMPDEST STOP JUMPDEST CALLVALUE DUP1 ISZERO PUSH2 0x23B JUMPI PUSH0 DUP1 REVERT JUMPDEST POP PUSH2 0x244 PUSH2 0x74C JUMP JUMPDEST STOP JUMPDEST CALLVALUE DUP1 ISZERO PUSH2 0x251 JUMPI PUSH0 DUP1 REVERT JUMPDEST POP PUSH2 0x25A PUSH2 0x907 JUMP JUMPDEST PUSH1 0x40 MLOAD PUSH2 0x267 SWAP2 SWAP1 PUSH2 0x14D7 JUMP JUMPDEST PUSH1 0x40 MLOAD DUP1 SWAP2 SUB SWAP1 RETURN JUMPDEST CALLVALUE DUP1 ISZERO PUSH2 0x27B JUMPI PUSH0 DUP1 REVERT JUMPDEST POP PUSH2 0x284 PUSH2 0x90D JUMP JUMPDEST STOP JUMPDEST CALLVALUE DUP1 ISZERO PUSH2 0x291 JUMPI PUSH0 DUP1 REVERT JUMPDEST POP PUSH2 0x29A PUSH2 0xA25 JUMP JUMPDEST PUSH1 0x40 MLOAD PUSH2 0x2A7 SWAP2 SWAP1 PUSH2 0x150A JUMP JUMPDEST PUSH1 0x40 MLOAD DUP1 SWAP2 SUB SWAP1 RETURN JUMPDEST CALLVALUE DUP1 ISZERO PUSH2 0x2BB JUMPI PUSH0 DUP1 REVERT JUMPDEST POP PUSH2 0x2C4 PUSH2 0xA38 JUMP JUMPDEST PUSH1 0x40 MLOAD PUSH2 0x2D1 SWAP2 SWAP1 PUSH2 0x142B JUMP JUMPDEST PUSH1 0x40 MLOAD DUP1 SWAP2 SUB SWAP1 RETURN JUMPDEST CALLVALUE DUP1 ISZERO PUSH2 0x2E5 JUMPI PUSH0 DUP1 REVERT JUMPDEST POP PUSH2 0x300 PUSH1 0x4 DUP1 CALLDATASIZE SUB DUP2 ADD SWAP1 PUSH2 0x2FB SWAP2 SWAP1 PUSH2 0x1345 JUMP JUMPDEST PUSH2 0xAC4 JUMP JUMPDEST STOP JUMPDEST CALLVALUE DUP1 ISZERO PUSH2 0x30D JUMPI PUSH0 DUP1 REVERT JUMPDEST POP PUSH2 0x328 PUSH1 0x4 DUP1 CALLDATASIZE SUB DUP2 ADD SWAP1 PUSH2 0x323 SWAP2 SWAP1 PUSH2 0x157D JUMP JUMPDEST PUSH2 0xBCE JUMP JUMPDEST PUSH1 0x40 MLOAD PUSH2 0x335 SWAP2 SWAP1 PUSH2 0x150A JUMP JUMPDEST PUSH1 0x40 MLOAD DUP1 SWAP2 SUB SWAP1 RETURN JUMPDEST CALLVALUE DUP1 ISZERO PUSH2 0x349 JUMPI PUSH0 DUP1 REVERT JUMPDEST POP PUSH2 0x352 PUSH2 0xC33 JUMP JUMPDEST PUSH1 0x40 MLOAD PUSH2 0x35F SWAP2 SWAP1 PUSH2 0x15CA JUMP JUMPDEST PUSH1 0x40 MLOAD DUP1 SWAP2 SUB SWAP1 RETURN JUMPDEST CALLVALUE DUP1 ISZERO PUSH2 0x373 JUMPI PUSH0 DUP1 REVERT JUMPDEST POP PUSH2 0x38E PUSH1 0x4 DUP1 CALLDATASIZE SUB DUP2 ADD SWAP1 PUSH2 0x389 SWAP2 SWAP1 PUSH2 0x170F JUMP JUMPDEST PUSH2 0xC58 JUMP JUMPDEST STOP JUMPDEST CALLVALUE DUP1 ISZERO PUSH2 0x39B JUMPI PUSH0 DUP1 REVERT JUMPDEST POP PUSH2 0x3B6 PUSH1 0x4 DUP1 CALLDATASIZE SUB DUP2 ADD SWAP1 PUSH2 0x3B1 SWAP2 SWAP1 PUSH2 0x1769 JUMP JUMPDEST PUSH2 0xD9A JUMP JUMPDEST PUSH1 0x40 MLOAD PUSH2 0x3C3 SWAP2 SWAP1 PUSH2 0x14D7 JUMP JUMPDEST PUSH1 0x40 MLOAD DUP1 SWAP2 SUB SWAP1 RETURN JUMPDEST CALLVALUE DUP1 ISZERO PUSH2 0x3D7 JUMPI PUSH0 DUP1 REVERT JUMPDEST POP PUSH2 0x3E0 PUSH2 0xDB4 JUMP JUMPDEST PUSH1 0x40 MLOAD PUSH2 0x3ED SWAP2 SWAP1 PUSH2 0x14BE JUMP JUMPDEST PUSH1 0x40 MLOAD DUP1 SWAP2 SUB SWAP1 RETURN JUMPDEST CALLVALUE DUP1 ISZERO PUSH2 0x401 JUMPI PUSH0 DUP1 REVERT JUMPDEST POP PUSH2 0x40A PUSH2 0xDC7 JUMP JUMPDEST STOP JUMPDEST PUSH2 0x426 PUSH1 0x4 DUP1 CALLDATASIZE SUB DUP2 ADD SWAP1 PUSH2 0x421 SWAP2 SWAP1 PUSH2 0x1345 JUMP JUMPDEST PUSH2 0xE82 JUMP JUMPDEST STOP JUMPDEST CALLVALUE DUP1 ISZERO PUSH2 0x433 JUMPI PUSH0 DUP1 REVERT JUMPDEST POP PUSH2 0x43C PUSH2 0x10E5 JUMP JUMPDEST PUSH1 0x40 MLOAD PUSH2 0x449 SWAP2 SWAP1 PUSH2 0x18F3 JUMP JUMPDEST PUSH1 0x40 MLOAD DUP1 SWAP2 SUB SWAP1 RETURN JUMPDEST PUSH1 0x5 DUP2 DUP2 SLOAD DUP2 LT PUSH2 0x461 JUMPI PUSH0 DUP1 REVERT JUMPDEST SWAP1 PUSH0 MSTORE PUSH1 0x20 PUSH0 KECCAK256 SWAP1 PUSH1 0x3 MUL ADD PUSH0 SWAP2 POP SWAP1 POP DUP1 PUSH0 ADD DUP1 SLOAD PUSH2 0x480 SWAP1 PUSH2 0x1940 JUMP JUMPDEST DUP1 PUSH1 0x1F ADD PUSH1 0x20 DUP1 SWAP2 DIV MUL PUSH1 0x20 ADD PUSH1 0x40 MLOAD SWAP1 DUP2 ADD PUSH1 0x40 MSTORE DUP1 SWAP3 SWAP2 SWAP1 DUP2 DUP2 MSTORE PUSH1 0x20 ADD DUP3 DUP1 SLOAD PUSH2 0x4AC SWAP1 PUSH2 0x1940 JUMP JUMPDEST DUP1 ISZERO PUSH2 0x4F7 JUMPI DUP1 PUSH1 0x1F LT PUSH2 0x4CE JUMPI PUSH2 0x100 DUP1 DUP4 SLOAD DIV MUL DUP4 MSTORE SWAP2 PUSH1 0x20 ADD SWAP2 PUSH2 0x4F7 JUMP JUMPDEST DUP3 ADD SWAP2 SWAP1 PUSH0 MSTORE PUSH1 0x20 PUSH0 KECCAK256 SWAP1 JUMPDEST DUP2 SLOAD DUP2 MSTORE SWAP1 PUSH1 0x1 ADD SWAP1 PUSH1 0x20 ADD DUP1 DUP4 GT PUSH2 0x4DA JUMPI DUP3 SWAP1 SUB PUSH1 0x1F AND DUP3 ADD SWAP2 JUMPDEST POP POP POP POP POP SWAP1 DUP1 PUSH1 0x1 ADD SLOAD SWAP1 DUP1 PUSH1 0x2 ADD SLOAD SWAP1 POP DUP4 JUMP JUMPDEST PUSH0 DUP1 SLOAD PUSH2 0x519 SWAP1 PUSH2 0x1940 JUMP JUMPDEST DUP1 PUSH1 0x1F ADD PUSH1 0x20 DUP1 SWAP2 DIV MUL PUSH1 0x20 ADD PUSH1 0x40 MLOAD SWAP1 DUP2 ADD PUSH1 0x40 MSTORE DUP1 SWAP3 SWAP2 SWAP1 DUP2 DUP2 MSTORE PUSH1 0x20 ADD DUP3 DUP1 SLOAD PUSH2 0x545 SWAP1 PUSH2 0x1940 JUMP JUMPDEST DUP1 ISZERO PUSH2 0x590 JUMPI DUP1 PUSH1 0x1F LT PUSH2 0x567 JUMPI PUSH2 0x100 DUP1 DUP4 SLOAD DIV MUL DUP4 MSTORE SWAP2 PUSH1 0x20 ADD SWAP2 PUSH2 0x590 JUMP JUMPDEST DUP3 ADD SWAP2 SWAP1 PUSH0 MSTORE PUSH1 0x20 PUSH0 KECCAK256 SWAP1 JUMPDEST DUP2 SLOAD DUP2 MSTORE SWAP1 PUSH1 0x1 ADD SWAP1 PUSH1 0x20 ADD DUP1 DUP4 GT PUSH2 0x573 JUMPI DUP3 SWAP1 SUB PUSH1 0x1F AND DUP3 ADD SWAP2 JUMPDEST POP POP POP POP POP DUP2 JUMP JUMPDEST PUSH0 DUP1 PUSH1 0x2 DUP2 GT ISZERO PUSH2 0x5AC JUMPI PUSH2 0x5AB PUSH2 0x144B JUMP JUMPDEST JUMPDEST PUSH1 0x4 PUSH1 0x15 SWAP1 SLOAD SWAP1 PUSH2 0x100 EXP SWAP1 DIV PUSH1 0xFF AND PUSH1 0x2 DUP2 GT ISZERO PUSH2 0x5CE JUMPI PUSH2 0x5CD PUSH2 0x144B JUMP JUMPDEST JUMPDEST EQ DUP1 ISZERO PUSH2 0x5DC JUMPI POP PUSH1 0x3 SLOAD TIMESTAMP GT JUMPDEST ISZERO PUSH2 0x5FC JUMPI PUSH1 0x2 SLOAD SELFBALANCE LT ISZERO PUSH2 0x5F2 JUMPI PUSH1 0x2 PUSH2 0x5F5 JUMP JUMPDEST PUSH1 0x1 JUMPDEST SWAP1 POP PUSH2 0x60F JUMP JUMPDEST PUSH1 0x4 PUSH1 0x15 SWAP1 SLOAD SWAP1 PUSH2 0x100 EXP SWAP1 DIV PUSH1 0xFF AND SWAP1 POP JUMPDEST SWAP1 JUMP JUMPDEST PUSH0 SELFBALANCE SWAP1 POP SWAP1 JUMP JUMPDEST PUSH1 0x3 SLOAD DUP2 JUMP JUMPDEST PUSH1 0x4 PUSH0 SWAP1 SLOAD SWAP1 PUSH2 0x100 EXP SWAP1 DIV PUSH20 0xFFFFFFFFFFFFFFFFFFFFFFFFFFFFFFFFFFFFFFFF AND PUSH20 0xFFFFFFFFFFFFFFFFFFFFFFFFFFFFFFFFFFFFFFFF AND CALLER PUSH20 0xFFFFFFFFFFFFFFFFFFFFFFFFFFFFFFFFFFFFFFFF AND EQ PUSH2 0x6AE JUMPI PUSH1 0x40 MLOAD PUSH32 0x8C379A000000000000000000000000000000000000000000000000000000000 DUP2 MSTORE PUSH1 0x4 ADD PUSH2 0x6A5 SWAP1 PUSH2 0x19BA JUMP JUMPDEST PUSH1 0x40 MLOAD DUP1 SWAP2 SUB SWAP1 REVERT JUMPDEST PUSH0 PUSH1 0x2 DUP2 GT ISZERO PUSH2 0x6C1 JUMPI PUSH2 0x6C0 PUSH2 0x144B JUMP JUMPDEST JUMPDEST PUSH1 0x4 PUSH1 0x15 SWAP1 SLOAD SWAP1 PUSH2 0x100 EXP SWAP1 DIV PUSH1 0xFF AND PUSH1 0x2 DUP2 GT ISZERO PUSH2 0x6E3 JUMPI PUSH2 0x6E2 PUSH2 0x144B JUMP JUMPDEST JUMPDEST EQ PUSH2 0x723 JUMPI PUSH1 0x40 MLOAD PUSH32 0x8C379A000000000000000000000000000000000000000000000000000000000 DUP2 MSTORE PUSH1 0x4 ADD PUSH2 0x71A SWAP1 PUSH2 0x1A22 JUMP JUMPDEST PUSH1 0x40 MLOAD DUP1 SWAP2 SUB SWAP1 REVERT JUMPDEST PUSH3 0x15180 DUP2 PUSH2 0x732 SWAP2 SWAP1 PUSH2 0x1A6D JUMP JUMPDEST PUSH1 0x3 PUSH0 DUP3 DUP3 SLOAD PUSH2 0x742 SWAP2 SWAP1 PUSH2 0x1A6D JUMP JUMPDEST SWAP3 POP POP DUP2 SWAP1 SSTORE POP POP JUMP JUMPDEST PUSH1 0x4 PUSH0 SWAP1 SLOAD SWAP1 PUSH2 0x100 EXP SWAP1 DIV PUSH20 0xFFFFFFFFFFFFFFFFFFFFFFFFFFFFFFFFFFFFFFFF AND PUSH20 0xFFFFFFFFFFFFFFFFFFFFFFFFFFFFFFFFFFFFFFFF AND CALLER PUSH20 0xFFFFFFFFFFFFFFFFFFFFFFFFFFFFFFFFFFFFFFFF AND EQ PUSH2 0x7DB JUMPI PUSH1 0x40 MLOAD PUSH32 0x8C379A000000000000000000000000000000000000000000000000000000000 DUP2 MSTORE PUSH1 0x4 ADD PUSH2 0x7D2 SWAP1 PUSH2 0x19BA JUMP JUMPDEST PUSH1 0x40 MLOAD DUP1 SWAP2 SUB SWAP1 REVERT JUMPDEST PUSH2 0x7E3 PUSH2 0x11E4 JUMP JUMPDEST PUSH1 0x1 PUSH1 0x2 DUP2 GT ISZERO PUSH2 0x7F7 JUMPI PUSH2 0x7F6 PUSH2 0x144B JUMP JUMPDEST JUMPDEST PUSH1 0x4 PUSH1 0x15 SWAP1 SLOAD SWAP1 PUSH2 0x100 EXP SWAP1 DIV PUSH1 0xFF AND PUSH1 0x2 DUP2 GT ISZERO PUSH2 0x819 JUMPI PUSH2 0x818 PUSH2 0x144B JUMP JUMPDEST JUMPDEST EQ PUSH2 0x859 JUMPI PUSH1 0x40 MLOAD PUSH32 0x8C379A000000000000000000000000000000000000000000000000000000000 DUP2 MSTORE PUSH1 0x4 ADD PUSH2 0x850 SWAP1 PUSH2 0x1AEA JUMP JUMPDEST PUSH1 0x40 MLOAD DUP1 SWAP2 SUB SWAP1 REVERT JUMPDEST PUSH0 SELFBALANCE SWAP1 POP PUSH0 DUP2 GT PUSH2 0x89F JUMPI PUSH1 0x40 MLOAD PUSH32 0x8C379A000000000000000000000000000000000000000000000000000000000 DUP2 MSTORE PUSH1 0x4 ADD PUSH2 0x896 SWAP1 PUSH2 0x1B52 JUMP JUMPDEST PUSH1 0x40 MLOAD DUP1 SWAP2 SUB SWAP1 REVERT JUMPDEST PUSH1 0x4 PUSH0 SWAP1 SLOAD SWAP1 PUSH2 0x100 EXP SWAP1 DIV PUSH20 0xFFFFFFFFFFFFFFFFFFFFFFFFFFFFFFFFFFFFFFFF AND PUSH20 0xFFFFFFFFFFFFFFFFFFFFFFFFFFFFFFFFFFFFFFFF AND PUSH2 0x8FC DUP3 SWAP1 DUP2 ISZERO MUL SWAP1 PUSH1 0x40 MLOAD PUSH0 PUSH1 0x40 MLOAD DUP1 DUP4 SUB DUP2 DUP6 DUP9 DUP9 CALL SWAP4 POP POP POP POP ISZERO DUP1 ISZERO PUSH2 0x903 JUMPI RETURNDATASIZE PUSH0 DUP1 RETURNDATACOPY RETURNDATASIZE PUSH0 REVERT JUMPDEST POP POP JUMP JUMPDEST PUSH1 0x2 SLOAD DUP2 JUMP JUMPDEST PUSH2 0x915 PUSH2 0x11E4 JUMP JUMPDEST PUSH0 PUSH1 0x6 PUSH0 CALLER PUSH20 0xFFFFFFFFFFFFFFFFFFFFFFFFFFFFFFFFFFFFFFFF AND PUSH20 0xFFFFFFFFFFFFFFFFFFFFFFFFFFFFFFFFFFFFFFFF AND DUP2 MSTORE PUSH1 0x20 ADD SWAP1 DUP2 MSTORE PUSH1 0x20 ADD PUSH0 KECCAK256 PUSH0 ADD SLOAD SWAP1 POP PUSH0 DUP2 GT PUSH2 0x99A JUMPI PUSH1 0x40 MLOAD PUSH32 0x8C379A000000000000000000000000000000000000000000000000000000000 DUP2 MSTORE PUSH1 0x4 ADD PUSH2 0x991 SWAP1 PUSH2 0x1BE0 JUMP JUMPDEST PUSH1 0x40 MLOAD DUP1 SWAP2 SUB SWAP1 REVERT JUMPDEST PUSH0 PUSH1 0x6 PUSH0 CALLER PUSH20 0xFFFFFFFFFFFFFFFFFFFFFFFFFFFFFFFFFFFFFFFF AND PUSH20 0xFFFFFFFFFFFFFFFFFFFFFFFFFFFFFFFFFFFFFFFF AND DUP2 MSTORE PUSH1 0x20 ADD SWAP1 DUP2 MSTORE PUSH1 0x20 ADD PUSH0 KECCAK256 PUSH0 ADD DUP2 SWAP1 SSTORE POP CALLER PUSH20 0xFFFFFFFFFFFFFFFFFFFFFFFFFFFFFFFFFFFFFFFF AND PUSH2 0x8FC DUP3 SWAP1 DUP2 ISZERO MUL SWAP1 PUSH1 0x40 MLOAD PUSH0 PUSH1 0x40 MLOAD DUP1 DUP4 SUB DUP2 DUP6 DUP9 DUP9 CALL SWAP4 POP POP POP POP ISZERO DUP1 ISZERO PUSH2 0xA21 JUMPI RETURNDATASIZE PUSH0 DUP1 RETURNDATACOPY RETURNDATASIZE PUSH0 REVERT JUMPDEST POP POP JUMP JUMPDEST PUSH1 0x4 PUSH1 0x14 SWAP1 SLOAD SWAP1 PUSH2 0x100 EXP SWAP1 DIV PUSH1 0xFF AND DUP2 JUMP JUMPDEST PUSH1 0x1 DUP1 SLOAD PUSH2 0xA45 SWAP1 PUSH2 0x1940 JUMP JUMPDEST DUP1 PUSH1 0x1F ADD PUSH1 0x20 DUP1 SWAP2 DIV MUL PUSH1 0x20 ADD PUSH1 0x40 MLOAD SWAP1 DUP2 ADD PUSH1 0x40 MSTORE DUP1 SWAP3 SWAP2 SWAP1 DUP2 DUP2 MSTORE PUSH1 0x20 ADD DUP3 DUP1 SLOAD PUSH2 0xA71 SWAP1 PUSH2 0x1940 JUMP JUMPDEST DUP1 ISZERO PUSH2 0xABC JUMPI DUP1 PUSH1 0x1F LT PUSH2 0xA93 JUMPI PUSH2 0x100 DUP1 DUP4 SLOAD DIV MUL DUP4 MSTORE SWAP2 PUSH1 0x20 ADD SWAP2 PUSH2 0xABC JUMP JUMPDEST DUP3 ADD SWAP2 SWAP1 PUSH0 MSTORE PUSH1 0x20 PUSH0 KECCAK256 SWAP1 JUMPDEST DUP2 SLOAD DUP2 MSTORE SWAP1 PUSH1 0x1 ADD SWAP1 PUSH1 0x20 ADD DUP1 DUP4 GT PUSH2 0xA9F JUMPI DUP3 SWAP1 SUB PUSH1 0x1F AND DUP3 ADD SWAP2 JUMPDEST POP POP POP POP POP DUP2 JUMP JUMPDEST PUSH1 0x5 DUP1 SLOAD SWAP1 POP DUP2 LT PUSH2 0xB0B JUMPI PUSH1 0x40 MLOAD PUSH32 0x8C379A000000000000000000000000000000000000000000000000000000000 DUP2 MSTORE PUSH1 0x4 ADD PUSH2 0xB02 SWAP1 PUSH2 0x1C48 JUMP JUMPDEST PUSH1 0x40 MLOAD DUP1 SWAP2 SUB SWAP1 REVERT JUMPDEST PUSH1 0x5 PUSH1 0x1 PUSH1 0x5 DUP1 SLOAD SWAP1 POP PUSH2 0xB1F SWAP2 SWAP1 PUSH2 0x1C66 JUMP JUMPDEST DUP2 SLOAD DUP2 LT PUSH2 0xB30 JUMPI PUSH2 0xB2F PUSH2 0x1C99 JUMP JUMPDEST JUMPDEST SWAP1 PUSH0 MSTORE PUSH1 0x20 PUSH0 KECCAK256 SWAP1 PUSH1 0x3 MUL ADD PUSH1 0x5 DUP3 DUP2 SLOAD DUP2 LT PUSH2 0xB50 JUMPI PUSH2 0xB4F PUSH2 0x1C99 JUMP JUMPDEST JUMPDEST SWAP1 PUSH0 MSTORE PUSH1 0x20 PUSH0 KECCAK256 SWAP1 PUSH1 0x3 MUL ADD PUSH0 DUP3 ADD DUP2 PUSH0 ADD SWAP1 DUP2 PUSH2 0xB6E SWAP2 SWAP1 PUSH2 0x1E78 JUMP JUMPDEST POP PUSH1 0x1 DUP3 ADD SLOAD DUP2 PUSH1 0x1 ADD SSTORE PUSH1 0x2 DUP3 ADD SLOAD DUP2 PUSH1 0x2 ADD SSTORE SWAP1 POP POP PUSH1 0x5 DUP1 SLOAD DUP1 PUSH2 0xB98 JUMPI PUSH2 0xB97 PUSH2 0x1F5D JUMP JUMPDEST JUMPDEST PUSH1 0x1 SWAP1 SUB DUP2 DUP2 SWAP1 PUSH0 MSTORE PUSH1 0x20 PUSH0 KECCAK256 SWAP1 PUSH1 0x3 MUL ADD PUSH0 DUP1 DUP3 ADD PUSH0 PUSH2 0xBB9 SWAP2 SWAP1 PUSH2 0x12A9 JUMP JUMPDEST PUSH1 0x1 DUP3 ADD PUSH0 SWAP1 SSTORE PUSH1 0x2 DUP3 ADD PUSH0 SWAP1 SSTORE POP POP SWAP1 SSTORE POP JUMP JUMPDEST PUSH0 PUSH1 0x6 PUSH0 DUP5 PUSH20 0xFFFFFFFFFFFFFFFFFFFFFFFFFFFFFFFFFFFFFFFF AND PUSH20 0xFFFFFFFFFFFFFFFFFFFFFFFFFFFFFFFFFFFFFFFF AND DUP2 MSTORE PUSH1 0x20 ADD SWAP1 DUP2 MSTORE PUSH1 0x20 ADD PUSH0 KECCAK256 PUSH1 0x1 ADD PUSH0 DUP4 DUP2 MSTORE PUSH1 0x20 ADD SWAP1 DUP2 MSTORE PUSH1 0x20 ADD PUSH0 KECCAK256 PUSH0 SWAP1 SLOAD SWAP1 PUSH2 0x100 EXP SWAP1 DIV PUSH1 0xFF AND SWAP1 POP SWAP3 SWAP2 POP POP JUMP JUMPDEST PUSH1 0x4 PUSH0 SWAP1 SLOAD SWAP1 PUSH2 0x100 EXP SWAP1 DIV PUSH20 0xFFFFFFFFFFFFFFFFFFFFFFFFFFFFFFFFFFFFFFFF AND DUP2 JUMP JUMPDEST PUSH1 0x4 PUSH0 SWAP1 SLOAD SWAP1 PUSH2 0x100 EXP SWAP1 DIV PUSH20 0xFFFFFFFFFFFFFFFFFFFFFFFFFFFFFFFFFFFFFFFF AND PUSH20 0xFFFFFFFFFFFFFFFFFFFFFFFFFFFFFFFFFFFFFFFF AND CALLER PUSH20 0xFFFFFFFFFFFFFFFFFFFFFFFFFFFFFFFFFFFFFFFF AND EQ PUSH2 0xCE7 JUMPI PUSH1 0x40 MLOAD PUSH32 0x8C379A000000000000000000000000000000000000000000000000000000000 DUP2 MSTORE PUSH1 0x4 ADD PUSH2 0xCDE SWAP1 PUSH2 0x19BA JUMP JUMPDEST PUSH1 0x40 MLOAD DUP1 SWAP2 SUB SWAP1 REVERT JUMPDEST PUSH0 DUP2 GT PUSH2 0xD29 JUMPI PUSH1 0x40 MLOAD PUSH32 0x8C379A000000000000000000000000000000000000000000000000000000000 DUP2 MSTORE PUSH1 0x4 ADD PUSH2 0xD20 SWAP1 PUSH2 0x1FFA JUMP JUMPDEST PUSH1 0x40 MLOAD DUP1 SWAP2 SUB SWAP1 REVERT JUMPDEST PUSH1 0x5 PUSH1 0x40 MLOAD DUP1 PUSH1 0x60 ADD PUSH1 0x40 MSTORE DUP1 DUP5 DUP2 MSTORE PUSH1 0x20 ADD DUP4 DUP2 MSTORE PUSH1 0x20 ADD PUSH0 DUP2 MSTORE POP SWAP1 DUP1 PUSH1 0x1 DUP2 SLOAD ADD DUP1 DUP3 SSTORE DUP1 SWAP2 POP POP PUSH1 0x1 SWAP1 SUB SWAP1 PUSH0 MSTORE PUSH1 0x20 PUSH0 KECCAK256 SWAP1 PUSH1 0x3 MUL ADD PUSH0 SWAP1 SWAP2 SWAP1 SWAP2 SWAP1 SWAP2 POP PUSH0 DUP3 ADD MLOAD DUP2 PUSH0 ADD SWAP1 DUP2 PUSH2 0xD7F SWAP2 SWAP1 PUSH2 0x2018 JUMP JUMPDEST POP PUSH1 0x20 DUP3 ADD MLOAD DUP2 PUSH1 0x1 ADD SSTORE PUSH1 0x40 DUP3 ADD MLOAD DUP2 PUSH1 0x2 ADD SSTORE POP POP POP POP JUMP JUMPDEST PUSH1 0x6 PUSH1 0x20 MSTORE DUP1 PUSH0 MSTORE PUSH1 0x40 PUSH0 KECCAK256 PUSH0 SWAP2 POP SWAP1 POP DUP1 PUSH0 ADD SLOAD SWAP1 POP DUP2 JUMP JUMPDEST PUSH1 0x4 PUSH1 0x15 SWAP1 SLOAD SWAP1 PUSH2 0x100 EXP SWAP1 DIV PUSH1 0xFF AND DUP2 JUMP JUMPDEST PUSH1 0x4 PUSH0 SWAP1 SLOAD SWAP1 PUSH2 0x100 EXP SWAP1 DIV PUSH20 0xFFFFFFFFFFFFFFFFFFFFFFFFFFFFFFFFFFFFFFFF AND PUSH20 0xFFFFFFFFFFFFFFFFFFFFFFFFFFFFFFFFFFFFFFFF AND CALLER PUSH20 0xFFFFFFFFFFFFFFFFFFFFFFFFFFFFFFFFFFFFFFFF AND EQ PUSH2 0xE56 JUMPI PUSH1 0x40 MLOAD PUSH32 0x8C379A000000000000000000000000000000000000000000000000000000000 DUP2 MSTORE PUSH1 0x4 ADD PUSH2 0xE4D SWAP1 PUSH2 0x19BA JUMP JUMPDEST PUSH1 0x40 MLOAD DUP1 SWAP2 SUB SWAP1 REVERT JUMPDEST PUSH1 0x4 PUSH1 0x14 SWAP1 SLOAD SWAP1 PUSH2 0x100 EXP SWAP1 DIV PUSH1 0xFF AND ISZERO PUSH1 0x4 PUSH1 0x14 PUSH2 0x100 EXP DUP2 SLOAD DUP2 PUSH1 0xFF MUL NOT AND SWAP1 DUP4 ISZERO ISZERO MUL OR SWAP1 SSTORE POP JUMP JUMPDEST PUSH0 PUSH1 0x2 DUP2 GT ISZERO PUSH2 0xE95 JUMPI PUSH2 0xE94 PUSH2 0x144B JUMP JUMPDEST JUMPDEST PUSH1 0x4 PUSH1 0x15 SWAP1 SLOAD SWAP1 PUSH2 0x100 EXP SWAP1 DIV PUSH1 0xFF AND PUSH1 0x2 DUP2 GT ISZERO PUSH2 0xEB7 JUMPI PUSH2 0xEB6 PUSH2 0x144B JUMP JUMPDEST JUMPDEST EQ PUSH2 0xEF7 JUMPI PUSH1 0x40 MLOAD PUSH32 0x8C379A000000000000000000000000000000000000000000000000000000000 DUP2 MSTORE PUSH1 0x4 ADD PUSH2 0xEEE SWAP1 PUSH2 0x1A22 JUMP JUMPDEST PUSH1 0x40 MLOAD DUP1 SWAP2 SUB SWAP1 REVERT JUMPDEST PUSH1 0x4 PUSH1 0x14 SWAP1 SLOAD SWAP1 PUSH2 0x100 EXP SWAP1 DIV PUSH1 0xFF AND ISZERO PUSH2 0xF47 JUMPI PUSH1 0x40 MLOAD PUSH32 0x8C379A000000000000000000000000000000000000000000000000000000000 DUP2 MSTORE PUSH1 0x4 ADD PUSH2 0xF3E SWAP1 PUSH2 0x2131 JUMP JUMPDEST PUSH1 0x40 MLOAD DUP1 SWAP2 SUB SWAP1 REVERT JUMPDEST PUSH1 0x5 DUP1 SLOAD SWAP1 POP DUP2 LT PUSH2 0xF8E JUMPI PUSH1 0x40 MLOAD PUSH32 0x8C379A000000000000000000000000000000000000000000000000000000000 DUP2 MSTORE PUSH1 0x4 ADD PUSH2 0xF85 SWAP1 PUSH2 0x2199 JUMP JUMPDEST PUSH1 0x40 MLOAD DUP1 SWAP2 SUB SWAP1 REVERT JUMPDEST PUSH1 0x5 DUP2 DUP2 SLOAD DUP2 LT PUSH2 0xFA2 JUMPI PUSH2 0xFA1 PUSH2 0x1C99 JUMP JUMPDEST JUMPDEST SWAP1 PUSH0 MSTORE PUSH1 0x20 PUSH0 KECCAK256 SWAP1 PUSH1 0x3 MUL ADD PUSH1 0x1 ADD SLOAD CALLVALUE EQ PUSH2 0xFF3 JUMPI PUSH1 0x40 MLOAD PUSH32 0x8C379A000000000000000000000000000000000000000000000000000000000 DUP2 MSTORE PUSH1 0x4 ADD PUSH2 0xFEA SWAP1 PUSH2 0x2201 JUMP JUMPDEST PUSH1 0x40 MLOAD DUP1 SWAP2 SUB SWAP1 REVERT JUMPDEST PUSH1 0x5 DUP2 DUP2 SLOAD DUP2 LT PUSH2 0x1007 JUMPI PUSH2 0x1006 PUSH2 0x1C99 JUMP JUMPDEST JUMPDEST SWAP1 PUSH0 MSTORE PUSH1 0x20 PUSH0 KECCAK256 SWAP1 PUSH1 0x3 MUL ADD PUSH1 0x2 ADD PUSH0 DUP2 SLOAD DUP1 SWAP3 SWAP2 SWAP1 PUSH2 0x1026 SWAP1 PUSH2 0x221F JUMP JUMPDEST SWAP2 SWAP1 POP SSTORE POP CALLVALUE PUSH1 0x6 PUSH0 CALLER PUSH20 0xFFFFFFFFFFFFFFFFFFFFFFFFFFFFFFFFFFFFFFFF AND PUSH20 0xFFFFFFFFFFFFFFFFFFFFFFFFFFFFFFFFFFFFFFFF AND DUP2 MSTORE PUSH1 0x20 ADD SWAP1 DUP2 MSTORE PUSH1 0x20 ADD PUSH0 KECCAK256 PUSH0 ADD PUSH0 DUP3 DUP3 SLOAD PUSH2 0x1079 SWAP2 SWAP1 PUSH2 0x1A6D JUMP JUMPDEST SWAP3 POP POP DUP2 SWAP1 SSTORE POP PUSH1 0x6 PUSH0 CALLER PUSH20 0xFFFFFFFFFFFFFFFFFFFFFFFFFFFFFFFFFFFFFFFF AND PUSH20 0xFFFFFFFFFFFFFFFFFFFFFFFFFFFFFFFFFFFFFFFF AND DUP2 MSTORE PUSH1 0x20 ADD SWAP1 DUP2 MSTORE PUSH1 0x20 ADD PUSH0 KECCAK256 PUSH1 0x1 ADD PUSH0 DUP3 DUP2 MSTORE PUSH1 0x20 ADD SWAP1 DUP2 MSTORE PUSH1 0x20 ADD PUSH0 KECCAK256 PUSH0 SWAP1 SLOAD SWAP1 PUSH2 0x100 EXP SWAP1 POP POP PUSH2 0x10E2 PUSH2 0x11E4 JUMP JUMPDEST POP JUMP JUMPDEST PUSH1 0x60 PUSH1 0x5 DUP1 SLOAD DUP1 PUSH1 0x20 MUL PUSH1 0x20 ADD PUSH1 0x40 MLOAD SWAP1 DUP2 ADD PUSH1 0x40 MSTORE DUP1 SWAP3 SWAP2 SWAP1 DUP2 DUP2 MSTORE PUSH1 0x20 ADD PUSH0 SWAP1 JUMPDEST DUP3 DUP3 LT ISZERO PUSH2 0x11DB JUMPI DUP4 DUP3 SWAP1 PUSH0 MSTORE PUSH1 0x20 PUSH0 KECCAK256 SWAP1 PUSH1 0x3 MUL ADD PUSH1 0x40 MLOAD DUP1 PUSH1 0x60 ADD PUSH1 0x40 MSTORE SWAP1 DUP2 PUSH0 DUP3 ADD DUP1 SLOAD PUSH2 0x1138 SWAP1 PUSH2 0x1940 JUMP JUMPDEST DUP1 PUSH1 0x1F ADD PUSH1 0x20 DUP1 SWAP2 DIV MUL PUSH1 0x20 ADD PUSH1 0x40 MLOAD SWAP1 DUP2 ADD PUSH1 0x40 MSTORE DUP1 SWAP3 SWAP2 SWAP1 DUP2 DUP2 MSTORE PUSH1 0x20 ADD DUP3 DUP1 SLOAD PUSH2 0x1164 SWAP1 PUSH2 0x1940 JUMP JUMPDEST DUP1 ISZERO PUSH2 0x11AF JUMPI DUP1 PUSH1 0x1F LT PUSH2 0x1186 JUMPI PUSH2 0x100 DUP1 DUP4 SLOAD DIV MUL DUP4 MSTORE SWAP2 PUSH1 0x20 ADD SWAP2 PUSH2 0x11AF JUMP JUMPDEST DUP3 ADD SWAP2 SWAP1 PUSH0 MSTORE PUSH1 0x20 PUSH0 KECCAK256 SWAP1 JUMPDEST DUP2 SLOAD DUP2 MSTORE SWAP1 PUSH1 0x1 ADD SWAP1 PUSH1 0x20 ADD DUP1 DUP4 GT PUSH2 0x1192 JUMPI DUP3 SWAP1 SUB PUSH1 0x1F AND DUP3 ADD SWAP2 JUMPDEST POP POP POP POP POP DUP2 MSTORE PUSH1 0x20 ADD PUSH1 0x1 DUP3 ADD SLOAD DUP2 MSTORE PUSH1 0x20 ADD PUSH1 0x2 DUP3 ADD SLOAD DUP2 MSTORE POP POP DUP2 MSTORE PUSH1 0x20 ADD SWAP1 PUSH1 0x1 ADD SWAP1 PUSH2 0x1108 JUMP JUMPDEST POP POP POP POP SWAP1 POP SWAP1 JUMP JUMPDEST PUSH0 PUSH1 0x2 DUP2 GT ISZERO PUSH2 0x11F7 JUMPI PUSH2 0x11F6 PUSH2 0x144B JUMP JUMPDEST JUMPDEST PUSH1 0x4 PUSH1 0x15 SWAP1 SLOAD SWAP1 PUSH2 0x100 EXP SWAP1 DIV PUSH1 0xFF AND PUSH1 0x2 DUP2 GT ISZERO PUSH2 0x1219 JUMPI PUSH2 0x1218 PUSH2 0x144B JUMP JUMPDEST JUMPDEST SUB PUSH2 0x12A7 JUMPI PUSH1 0x3 SLOAD TIMESTAMP LT PUSH2 0x1269 JUMPI PUSH1 0x2 SLOAD SELFBALANCE LT ISZERO PUSH2 0x1238 JUMPI PUSH1 0x2 PUSH2 0x123B JUMP JUMPDEST PUSH1 0x1 JUMPDEST PUSH1 0x4 PUSH1 0x15 PUSH2 0x100 EXP DUP2 SLOAD DUP2 PUSH1 0xFF MUL NOT AND SWAP1 DUP4 PUSH1 0x2 DUP2 GT ISZERO PUSH2 0x125F JUMPI PUSH2 0x125E PUSH2 0x144B JUMP JUMPDEST JUMPDEST MUL OR SWAP1 SSTORE POP PUSH2 0x12A6 JUMP JUMPDEST PUSH1 0x2 SLOAD SELFBALANCE LT ISZERO PUSH2 0x1279 JUMPI PUSH0 PUSH2 0x127C JUMP JUMPDEST PUSH1 0x1 JUMPDEST PUSH1 0x4 PUSH1 0x15 PUSH2 0x100 EXP DUP2 SLOAD DUP2 PUSH1 0xFF MUL NOT AND SWAP1 DUP4 PUSH1 0x2 DUP2 GT ISZERO PUSH2 0x12A0 JUMPI PUSH2 0x129F PUSH2 0x144B JUMP JUMPDEST JUMPDEST MUL OR SWAP1 SSTORE POP JUMPDEST JUMPDEST JUMP JUMPDEST POP DUP1 SLOAD PUSH2 0x12B5 SWAP1 PUSH2 0x1940 JUMP JUMPDEST PUSH0 DUP3 SSTORE DUP1 PUSH1 0x1F LT PUSH2 0x12C6 JUMPI POP PUSH2 0x12E3 JUMP JUMPDEST PUSH1 0x1F ADD PUSH1 0x20 SWAP1 DIV SWAP1 PUSH0 MSTORE PUSH1 0x20 PUSH0 KECCAK256 SWAP1 DUP2 ADD SWAP1 PUSH2 0x12E2 SWAP2 SWAP1 PUSH2 0x12E6 JUMP JUMPDEST JUMPDEST POP JUMP JUMPDEST JUMPDEST DUP1 DUP3 GT ISZERO PUSH2 0x12FD JUMPI PUSH0 DUP2 PUSH0 SWAP1 SSTORE POP PUSH1 0x1 ADD PUSH2 0x12E7 JUMP JUMPDEST POP SWAP1 JUMP JUMPDEST PUSH0 PUSH1 0x40 MLOAD SWAP1 POP SWAP1 JUMP JUMPDEST PUSH0 DUP1 REVERT JUMPDEST PUSH0 DUP1 REVERT JUMPDEST PUSH0 DUP2 SWAP1 POP SWAP2 SWAP1 POP JUMP JUMPDEST PUSH2 0x1324 DUP2 PUSH2 0x1312 JUMP JUMPDEST DUP2 EQ PUSH2 0x132E JUMPI PUSH0 DUP1 REVERT JUMPDEST POP JUMP JUMPDEST PUSH0 DUP2 CALLDATALOAD SWAP1 POP PUSH2 0x133F DUP2 PUSH2 0x131B JUMP JUMPDEST SWAP3 SWAP2 POP POP JUMP JUMPDEST PUSH0 PUSH1 0x20 DUP3 DUP5 SUB SLT ISZERO PUSH2 0x135A JUMPI PUSH2 0x1359 PUSH2 0x130A JUMP JUMPDEST JUMPDEST PUSH0 PUSH2 0x1367 DUP5 DUP3 DUP6 ADD PUSH2 0x1331 JUMP JUMPDEST SWAP2 POP POP SWAP3 SWAP2 POP POP JUMP JUMPDEST PUSH0 DUP2 MLOAD SWAP1 POP SWAP2 SWAP1 POP JUMP JUMPDEST PUSH0 DUP3 DUP3 MSTORE PUSH1 0x20 DUP3 ADD SWAP1 POP SWAP3 SWAP2 POP POP JUMP JUMPDEST DUP3 DUP2 DUP4 MCOPY PUSH0 DUP4 DUP4 ADD MSTORE POP POP POP JUMP JUMPDEST PUSH0 PUSH1 0x1F NOT PUSH1 0x1F DUP4 ADD AND SWAP1 POP SWAP2 SWAP1 POP JUMP JUMPDEST PUSH0 PUSH2 0x13B2 DUP3 PUSH2 0x1370 JUMP JUMPDEST PUSH2 0x13BC DUP2 DUP6 PUSH2 0x137A JUMP JUMPDEST SWAP4 POP PUSH2 0x13CC DUP2 DUP6 PUSH1 0x20 DUP7 ADD PUSH2 0x138A JUMP JUMPDEST PUSH2 0x13D5 DUP2 PUSH2 0x1398 JUMP JUMPDEST DUP5 ADD SWAP2 POP POP SWAP3 SWAP2 POP POP JUMP JUMPDEST PUSH2 0x13E9 DUP2 PUSH2 0x1312 JUMP JUMPDEST DUP3 MSTORE POP POP JUMP JUMPDEST PUSH0 PUSH1 0x60 DUP3 ADD SWAP1 POP DUP2 DUP2 SUB PUSH0 DUP4 ADD MSTORE PUSH2 0x1407 DUP2 DUP7 PUSH2 0x13A8 JUMP JUMPDEST SWAP1 POP PUSH2 0x1416 PUSH1 0x20 DUP4 ADD DUP6 PUSH2 0x13E0 JUMP JUMPDEST PUSH2 0x1423 PUSH1 0x40 DUP4 ADD DUP5 PUSH2 0x13E0 JUMP JUMPDEST SWAP5 SWAP4 POP POP POP POP JUMP JUMPDEST PUSH0 PUSH1 0x20 DUP3 ADD SWAP1 POP DUP2 DUP2 SUB PUSH0 DUP4 ADD MSTORE PUSH2 0x1443 DUP2 DUP5 PUSH2 0x13A8 JUMP JUMPDEST SWAP1 POP SWAP3 SWAP2 POP POP JUMP JUMPDEST PUSH32 0x4E487B7100000000000000000000000000000000000000000000000000000000 PUSH0 MSTORE PUSH1 0x21 PUSH1 0x4 MSTORE PUSH1 0x24 PUSH0 REVERT JUMPDEST PUSH1 0x3 DUP2 LT PUSH2 0x1489 JUMPI PUSH2 0x1488 PUSH2 0x144B JUMP JUMPDEST JUMPDEST POP JUMP JUMPDEST PUSH0 DUP2 SWAP1 POP PUSH2 0x1499 DUP3 PUSH2 0x1478 JUMP JUMPDEST SWAP2 SWAP1 POP JUMP JUMPDEST PUSH0 PUSH2 0x14A8 DUP3 PUSH2 0x148C JUMP JUMPDEST SWAP1 POP SWAP2 SWAP1 POP JUMP JUMPDEST PUSH2 0x14B8 DUP2 PUSH2 0x149E JUMP JUMPDEST DUP3 MSTORE POP POP JUMP JUMPDEST PUSH0 PUSH1 0x20 DUP3 ADD SWAP1 POP PUSH2 0x14D1 PUSH0 DUP4 ADD DUP5 PUSH2 0x14AF JUMP JUMPDEST SWAP3 SWAP2 POP POP JUMP JUMPDEST PUSH0 PUSH1 0x20 DUP3 ADD SWAP1 POP PUSH2 0x14EA PUSH0 DUP4 ADD DUP5 PUSH2 0x13E0 JUMP JUMPDEST SWAP3 SWAP2 POP POP JUMP JUMPDEST PUSH0 DUP2 ISZERO ISZERO SWAP1 POP SWAP2 SWAP1 POP JUMP JUMPDEST PUSH2 0x1504 DUP2 PUSH2 0x14F0 JUMP JUMPDEST DUP3 MSTORE POP POP JUMP JUMPDEST PUSH0 PUSH1 0x20 DUP3 ADD SWAP1 POP PUSH2 0x151D PUSH0 DUP4 ADD DUP5 PUSH2 0x14FB JUMP JUMPDEST SWAP3 SWAP2 POP POP JUMP JUMPDEST PUSH0 PUSH20 0xFFFFFFFFFFFFFFFFFFFFFFFFFFFFFFFFFFFFFFFF DUP3 AND SWAP1 POP SWAP2 SWAP1 POP JUMP JUMPDEST PUSH0 PUSH2 0x154C DUP3 PUSH2 0x1523 JUMP JUMPDEST SWAP1 POP SWAP2 SWAP1 POP JUMP JUMPDEST PUSH2 0x155C DUP2 PUSH2 0x1542 JUMP JUMPDEST DUP2 EQ PUSH2 0x1566 JUMPI PUSH0 DUP1 REVERT JUMPDEST POP JUMP JUMPDEST PUSH0 DUP2 CALLDATALOAD SWAP1 POP PUSH2 0x1577 DUP2 PUSH2 0x1553 JUMP JUMPDEST SWAP3 SWAP2 POP POP JUMP JUMPDEST PUSH0 DUP1 PUSH1 0x40 DUP4 DUP6 SUB SLT ISZERO PUSH2 0x1593 JUMPI PUSH2 0x1592 PUSH2 0x130A JUMP JUMPDEST JUMPDEST PUSH0 PUSH2 0x15A0 DUP6 DUP3 DUP7 ADD PUSH2 0x1569 JUMP JUMPDEST SWAP3 POP POP PUSH1 0x20 PUSH2 0x15B1 DUP6 DUP3 DUP7 ADD PUSH2 0x1331 JUMP JUMPDEST SWAP2 POP POP SWAP3 POP SWAP3 SWAP1 POP JUMP JUMPDEST PUSH2 0x15C4 DUP2 PUSH2 0x1542 JUMP JUMPDEST DUP3 MSTORE POP POP JUMP JUMPDEST PUSH0 PUSH1 0x20 DUP3 ADD SWAP1 POP PUSH2 0x15DD PUSH0 DUP4 ADD DUP5 PUSH2 0x15BB JUMP JUMPDEST SWAP3 SWAP2 POP POP JUMP JUMPDEST PUSH0 DUP1 REVERT JUMPDEST PUSH0 DUP1 REVERT JUMPDEST PUSH32 0x4E487B7100000000000000000000000000000000000000000000000000000000 PUSH0 MSTORE PUSH1 0x41 PUSH1 0x4 MSTORE PUSH1 0x24 PUSH0 REVERT JUMPDEST PUSH2 0x1621 DUP3 PUSH2 0x1398 JUMP JUMPDEST DUP2 ADD DUP2 DUP2 LT PUSH8 0xFFFFFFFFFFFFFFFF DUP3 GT OR ISZERO PUSH2 0x1640 JUMPI PUSH2 0x163F PUSH2 0x15EB JUMP JUMPDEST JUMPDEST DUP1 PUSH1 0x40 MSTORE POP POP POP JUMP JUMPDEST PUSH0 PUSH2 0x1652 PUSH2 0x1301 JUMP JUMPDEST SWAP1 POP PUSH2 0x165E DUP3 DUP3 PUSH2 0x1618 JUMP JUMPDEST SWAP2 SWAP1 POP JUMP JUMPDEST PUSH0 PUSH8 0xFFFFFFFFFFFFFFFF DUP3 GT ISZERO PUSH2 0x167D JUMPI PUSH2 0x167C PUSH2 0x15EB JUMP JUMPDEST JUMPDEST PUSH2 0x1686 DUP3 PUSH2 0x1398 JUMP JUMPDEST SWAP1 POP PUSH1 0x20 DUP2 ADD SWAP1 POP SWAP2 SWAP1 POP JUMP JUMPDEST DUP3 DUP2 DUP4 CALLDATACOPY PUSH0 DUP4 DUP4 ADD MSTORE POP POP POP JUMP JUMPDEST PUSH0 PUSH2 0x16B3 PUSH2 0x16AE DUP5 PUSH2 0x1663 JUMP JUMPDEST PUSH2 0x1649 JUMP JUMPDEST SWAP1 POP DUP3 DUP2 MSTORE PUSH1 0x20 DUP2 ADD DUP5 DUP5 DUP5 ADD GT ISZERO PUSH2 0x16CF JUMPI PUSH2 0x16CE PUSH2 0x15E7 JUMP JUMPDEST JUMPDEST PUSH2 0x16DA DUP5 DUP3 DUP6 PUSH2 0x1693 JUMP JUMPDEST POP SWAP4 SWAP3 POP POP POP JUMP JUMPDEST PUSH0 DUP3 PUSH1 0x1F DUP4 ADD SLT PUSH2 0x16F6 JUMPI PUSH2 0x16F5 PUSH2 0x15E3 JUMP JUMPDEST JUMPDEST DUP2 CALLDATALOAD PUSH2 0x1706 DUP5 DUP3 PUSH1 0x20 DUP7 ADD PUSH2 0x16A1 JUMP JUMPDEST SWAP2 POP POP SWAP3 SWAP2 POP POP JUMP JUMPDEST PUSH0 DUP1 PUSH1 0x40 DUP4 DUP6 SUB SLT ISZERO PUSH2 0x1725 JUMPI PUSH2 0x1724 PUSH2 0x130A JUMP JUMPDEST JUMPDEST PUSH0 DUP4 ADD CALLDATALOAD PUSH8 0xFFFFFFFFFFFFFFFF DUP2 GT ISZERO PUSH2 0x1742 JUMPI PUSH2 0x1741 PUSH2 0x130E JUMP JUMPDEST JUMPDEST PUSH2 0x174E DUP6 DUP3 DUP7 ADD PUSH2 0x16E2 JUMP JUMPDEST SWAP3 POP POP PUSH1 0x20 PUSH2 0x175F DUP6 DUP3 DUP7 ADD PUSH2 0x1331 JUMP JUMPDEST SWAP2 POP POP SWAP3 POP SWAP3 SWAP1 POP JUMP JUMPDEST PUSH0 PUSH1 0x20 DUP3 DUP5 SUB SLT ISZERO PUSH2 0x177E JUMPI PUSH2 0x177D PUSH2 0x130A JUMP JUMPDEST JUMPDEST PUSH0 PUSH2 0x178B DUP5 DUP3 DUP6 ADD PUSH2 0x1569 JUMP JUMPDEST SWAP2 POP POP SWAP3 SWAP2 POP POP JUMP JUMPDEST PUSH0 DUP2 MLOAD SWAP1 POP SWAP2 SWAP1 POP JUMP JUMPDEST PUSH0 DUP3 DUP3 MSTORE PUSH1 0x20 DUP3 ADD SWAP1 POP SWAP3 SWAP2 POP POP JUMP JUMPDEST PUSH0 DUP2 SWAP1 POP PUSH1 0x20 DUP3 ADD SWAP1 POP SWAP2 SWAP1 POP JUMP JUMPDEST PUSH0 DUP3 DUP3 MSTORE PUSH1 0x20 DUP3 ADD SWAP1 POP SWAP3 SWAP2 POP POP JUMP JUMPDEST PUSH0 PUSH2 0x17D7 DUP3 PUSH2 0x1370 JUMP JUMPDEST PUSH2 0x17E1 DUP2 DUP6 PUSH2 0x17BD JUMP JUMPDEST SWAP4 POP PUSH2 0x17F1 DUP2 DUP6 PUSH1 0x20 DUP7 ADD PUSH2 0x138A JUMP JUMPDEST PUSH2 0x17FA DUP2 PUSH2 0x1398 JUMP JUMPDEST DUP5 ADD SWAP2 POP POP SWAP3 SWAP2 POP POP JUMP JUMPDEST PUSH2 0x180E DUP2 PUSH2 0x1312 JUMP JUMPDEST DUP3 MSTORE POP POP JUMP JUMPDEST PUSH0 PUSH1 0x60 DUP4 ADD PUSH0 DUP4 ADD MLOAD DUP5 DUP3 SUB PUSH0 DUP7 ADD MSTORE PUSH2 0x182E DUP3 DUP3 PUSH2 0x17CD JUMP JUMPDEST SWAP2 POP POP PUSH1 0x20 DUP4 ADD MLOAD PUSH2 0x1843 PUSH1 0x20 DUP7 ADD DUP3 PUSH2 0x1805 JUMP JUMPDEST POP PUSH1 0x40 DUP4 ADD MLOAD PUSH2 0x1856 PUSH1 0x40 DUP7 ADD DUP3 PUSH2 0x1805 JUMP JUMPDEST POP DUP1 SWAP2 POP POP SWAP3 SWAP2 POP POP JUMP JUMPDEST PUSH0 PUSH2 0x186C DUP4 DUP4 PUSH2 0x1814 JUMP JUMPDEST SWAP1 POP SWAP3 SWAP2 POP POP JUMP JUMPDEST PUSH0 PUSH1 0x20 DUP3 ADD SWAP1 POP SWAP2 SWAP1 POP JUMP JUMPDEST PUSH0 PUSH2 0x188A DUP3 PUSH2 0x1794 JUMP JUMPDEST PUSH2 0x1894 DUP2 DUP6 PUSH2 0x179E JUMP JUMPDEST SWAP4 POP DUP4 PUSH1 0x20 DUP3 MUL DUP6 ADD PUSH2 0x18A6 DUP6 PUSH2 0x17AE JUMP JUMPDEST DUP1 PUSH0 JUMPDEST DUP6 DUP2 LT ISZERO PUSH2 0x18E1 JUMPI DUP5 DUP5 SUB DUP10 MSTORE DUP2 MLOAD PUSH2 0x18C2 DUP6 DUP3 PUSH2 0x1861 JUMP JUMPDEST SWAP5 POP PUSH2 0x18CD DUP4 PUSH2 0x1874 JUMP JUMPDEST SWAP3 POP PUSH1 0x20 DUP11 ADD SWAP10 POP POP PUSH1 0x1 DUP2 ADD SWAP1 POP PUSH2 0x18A9 JUMP JUMPDEST POP DUP3 SWAP8 POP DUP8 SWAP6 POP POP POP POP POP POP SWAP3 SWAP2 POP POP JUMP JUMPDEST PUSH0 PUSH1 0x20 DUP3 ADD SWAP1 POP DUP2 DUP2 SUB PUSH0 DUP4 ADD MSTORE PUSH2 0x190B DUP2 DUP5 PUSH2 0x1880 JUMP JUMPDEST SWAP1 POP SWAP3 SWAP2 POP POP JUMP JUMPDEST PUSH32 0x4E487B7100000000000000000000000000000000000000000000000000000000 PUSH0 MSTORE PUSH1 0x22 PUSH1 0x4 MSTORE PUSH1 0x24 PUSH0 REVERT JUMPDEST PUSH0 PUSH1 0x2 DUP3 DIV SWAP1 POP PUSH1 0x1 DUP3 AND DUP1 PUSH2 0x1957 JUMPI PUSH1 0x7F DUP3 AND SWAP2 POP JUMPDEST PUSH1 0x20 DUP3 LT DUP2 SUB PUSH2 0x196A JUMPI PUSH2 0x1969 PUSH2 0x1913 JUMP JUMPDEST JUMPDEST POP SWAP2 SWAP1 POP JUMP JUMPDEST PUSH32 0x4E6F7420746865204F776E657200000000000000000000000000000000000000 PUSH0 DUP3 ADD MSTORE POP JUMP JUMPDEST PUSH0 PUSH2 0x19A4 PUSH1 0xD DUP4 PUSH2 0x137A JUMP JUMPDEST SWAP2 POP PUSH2 0x19AF DUP3 PUSH2 0x1970 JUMP JUMPDEST PUSH1 0x20 DUP3 ADD SWAP1 POP SWAP2 SWAP1 POP JUMP JUMPDEST PUSH0 PUSH1 0x20 DUP3 ADD SWAP1 POP DUP2 DUP2 SUB PUSH0 DUP4 ADD MSTORE PUSH2 0x19D1 DUP2 PUSH2 0x1998 JUMP JUMPDEST SWAP1 POP SWAP2 SWAP1 POP JUMP JUMPDEST PUSH32 0x43616D7061696E206973204E6F74204163746976650000000000000000000000 PUSH0 DUP3 ADD MSTORE POP JUMP JUMPDEST PUSH0 PUSH2 0x1A0C PUSH1 0x15 DUP4 PUSH2 0x137A JUMP JUMPDEST SWAP2 POP PUSH2 0x1A17 DUP3 PUSH2 0x19D8 JUMP JUMPDEST PUSH1 0x20 DUP3 ADD SWAP1 POP SWAP2 SWAP1 POP JUMP JUMPDEST PUSH0 PUSH1 0x20 DUP3 ADD SWAP1 POP DUP2 DUP2 SUB PUSH0 DUP4 ADD MSTORE PUSH2 0x1A39 DUP2 PUSH2 0x1A00 JUMP JUMPDEST SWAP1 POP SWAP2 SWAP1 POP JUMP JUMPDEST PUSH32 0x4E487B7100000000000000000000000000000000000000000000000000000000 PUSH0 MSTORE PUSH1 0x11 PUSH1 0x4 MSTORE PUSH1 0x24 PUSH0 REVERT JUMPDEST PUSH0 PUSH2 0x1A77 DUP3 PUSH2 0x1312 JUMP JUMPDEST SWAP2 POP PUSH2 0x1A82 DUP4 PUSH2 0x1312 JUMP JUMPDEST SWAP3 POP DUP3 DUP3 ADD SWAP1 POP DUP1 DUP3 GT ISZERO PUSH2 0x1A9A JUMPI PUSH2 0x1A99 PUSH2 0x1A40 JUMP JUMPDEST JUMPDEST SWAP3 SWAP2 POP POP JUMP JUMPDEST PUSH32 0x43616D7061696E206E6F742073756365737366756C0000000000000000000000 PUSH0 DUP3 ADD MSTORE POP JUMP JUMPDEST PUSH0 PUSH2 0x1AD4 PUSH1 0x15 DUP4 PUSH2 0x137A JUMP JUMPDEST SWAP2 POP PUSH2 0x1ADF DUP3 PUSH2 0x1AA0 JUMP JUMPDEST PUSH1 0x20 DUP3 ADD SWAP1 POP SWAP2 SWAP1 POP JUMP JUMPDEST PUSH0 PUSH1 0x20 DUP3 ADD SWAP1 POP DUP2 DUP2 SUB PUSH0 DUP4 ADD MSTORE PUSH2 0x1B01 DUP2 PUSH2 0x1AC8 JUMP JUMPDEST SWAP1 POP SWAP2 SWAP1 POP JUMP JUMPDEST PUSH32 0x4E6F2062616C616E636520746F20776974686472617700000000000000000000 PUSH0 DUP3 ADD MSTORE POP JUMP JUMPDEST PUSH0 PUSH2 0x1B3C PUSH1 0x16 DUP4 PUSH2 0x137A JUMP JUMPDEST SWAP2 POP PUSH2 0x1B47 DUP3 PUSH2 0x1B08 JUMP JUMPDEST PUSH1 0x20 DUP3 ADD SWAP1 POP SWAP2 SWAP1 POP JUMP JUMPDEST PUSH0 PUSH1 0x20 DUP3 ADD SWAP1 POP DUP2 DUP2 SUB PUSH0 DUP4 ADD MSTORE PUSH2 0x1B69 DUP2 PUSH2 0x1B30 JUMP JUMPDEST SWAP1 POP SWAP2 SWAP1 POP JUMP JUMPDEST PUSH32 0x596F7520616C7265616479204361696D656420796F757220636F6E7472696275 PUSH0 DUP3 ADD MSTORE PUSH32 0x74696F6E00000000000000000000000000000000000000000000000000000000 PUSH1 0x20 DUP3 ADD MSTORE POP JUMP JUMPDEST PUSH0 PUSH2 0x1BCA PUSH1 0x24 DUP4 PUSH2 0x137A JUMP JUMPDEST SWAP2 POP PUSH2 0x1BD5 DUP3 PUSH2 0x1B70 JUMP JUMPDEST PUSH1 0x40 DUP3 ADD SWAP1 POP SWAP2 SWAP1 POP JUMP JUMPDEST PUSH0 PUSH1 0x20 DUP3 ADD SWAP1 POP DUP2 DUP2 SUB PUSH0 DUP4 ADD MSTORE PUSH2 0x1BF7 DUP2 PUSH2 0x1BBE JUMP JUMPDEST SWAP1 POP SWAP2 SWAP1 POP JUMP JUMPDEST PUSH32 0x5469657220646F65736E27742065786973740000000000000000000000000000 PUSH0 DUP3 ADD MSTORE POP JUMP JUMPDEST PUSH0 PUSH2 0x1C32 PUSH1 0x12 DUP4 PUSH2 0x137A JUMP JUMPDEST SWAP2 POP PUSH2 0x1C3D DUP3 PUSH2 0x1BFE JUMP JUMPDEST PUSH1 0x20 DUP3 ADD SWAP1 POP SWAP2 SWAP1 POP JUMP JUMPDEST PUSH0 PUSH1 0x20 DUP3 ADD SWAP1 POP DUP2 DUP2 SUB PUSH0 DUP4 ADD MSTORE PUSH2 0x1C5F DUP2 PUSH2 0x1C26 JUMP JUMPDEST SWAP1 POP SWAP2 SWAP1 POP JUMP JUMPDEST PUSH0 PUSH2 0x1C70 DUP3 PUSH2 0x1312 JUMP JUMPDEST SWAP2 POP PUSH2 0x1C7B DUP4 PUSH2 0x1312 JUMP JUMPDEST SWAP3 POP DUP3 DUP3 SUB SWAP1 POP DUP2 DUP2 GT ISZERO PUSH2 0x1C93 JUMPI PUSH2 0x1C92 PUSH2 0x1A40 JUMP JUMPDEST JUMPDEST SWAP3 SWAP2 POP POP JUMP JUMPDEST PUSH32 0x4E487B7100000000000000000000000000000000000000000000000000000000 PUSH0 MSTORE PUSH1 0x32 PUSH1 0x4 MSTORE PUSH1 0x24 PUSH0 REVERT JUMPDEST PUSH0 DUP2 SLOAD SWAP1 POP PUSH2 0x1CD4 DUP2 PUSH2 0x1940 JUMP JUMPDEST SWAP1 POP SWAP2 SWAP1 POP JUMP JUMPDEST PUSH0 DUP2 SWAP1 POP DUP2 PUSH0 MSTORE PUSH1 0x20 PUSH0 KECCAK256 SWAP1 POP SWAP2 SWAP1 POP JUMP JUMPDEST PUSH0 PUSH1 0x20 PUSH1 0x1F DUP4 ADD DIV SWAP1 POP SWAP2 SWAP1 POP JUMP JUMPDEST PUSH0 DUP3 DUP3 SHL SWAP1 POP SWAP3 SWAP2 POP POP JUMP JUMPDEST PUSH0 PUSH1 0x8 DUP4 MUL PUSH2 0x1D37 PUSH32 0xFFFFFFFFFFFFFFFFFFFFFFFFFFFFFFFFFFFFFFFFFFFFFFFFFFFFFFFFFFFFFFFF DUP3 PUSH2 0x1CFC JUMP JUMPDEST PUSH2 0x1D41 DUP7 DUP4 PUSH2 0x1CFC JUMP JUMPDEST SWAP6 POP DUP1 NOT DUP5 AND SWAP4 POP DUP1 DUP7 AND DUP5 OR SWAP3 POP POP POP SWAP4 SWAP3 POP POP POP JUMP JUMPDEST PUSH0 DUP2 SWAP1 POP SWAP2 SWAP1 POP JUMP JUMPDEST PUSH0 PUSH2 0x1D7C PUSH2 0x1D77 PUSH2 0x1D72 DUP5 PUSH2 0x1312 JUMP JUMPDEST PUSH2 0x1D59 JUMP JUMPDEST PUSH2 0x1312 JUMP JUMPDEST SWAP1 POP SWAP2 SWAP1 POP JUMP JUMPDEST PUSH0 DUP2 SWAP1 POP SWAP2 SWAP1 POP JUMP JUMPDEST PUSH2 0x1D95 DUP4 PUSH2 0x1D62 JUMP JUMPDEST PUSH2 0x1DA9 PUSH2 0x1DA1 DUP3 PUSH2 0x1D83 JUMP JUMPDEST DUP5 DUP5 SLOAD PUSH2 0x1D08 JUMP JUMPDEST DUP3 SSTORE POP POP POP POP JUMP JUMPDEST PUSH0 SWAP1 JUMP JUMPDEST PUSH2 0x1DBD PUSH2 0x1DB1 JUMP JUMPDEST PUSH2 0x1DC8 DUP2 DUP5 DUP5 PUSH2 0x1D8C JUMP JUMPDEST POP POP POP JUMP JUMPDEST JUMPDEST DUP2 DUP2 LT ISZERO PUSH2 0x1DEB JUMPI PUSH2 0x1DE0 PUSH0 DUP3 PUSH2 0x1DB5 JUMP JUMPDEST PUSH1 0x1 DUP2 ADD SWAP1 POP PUSH2 0x1DCE JUMP JUMPDEST POP POP JUMP JUMPDEST PUSH1 0x1F DUP3 GT ISZERO PUSH2 0x1E30 JUMPI PUSH2 0x1E01 DUP2 PUSH2 0x1CDB JUMP JUMPDEST PUSH2 0x1E0A DUP5 PUSH2 0x1CED JUMP JUMPDEST DUP2 ADD PUSH1 0x20 DUP6 LT ISZERO PUSH2 0x1E19 JUMPI DUP2 SWAP1 POP JUMPDEST PUSH2 0x1E2D PUSH2 0x1E25 DUP6 PUSH2 0x1CED JUMP JUMPDEST DUP4 ADD DUP3 PUSH2 0x1DCD JUMP JUMPDEST POP POP JUMPDEST POP POP POP JUMP JUMPDEST PUSH0 DUP3 DUP3 SHR SWAP1 POP SWAP3 SWAP2 POP POP JUMP JUMPDEST PUSH0 PUSH2 0x1E50 PUSH0 NOT DUP5 PUSH1 0x8 MUL PUSH2 0x1E35 JUMP JUMPDEST NOT DUP1 DUP4 AND SWAP2 POP POP SWAP3 SWAP2 POP POP JUMP JUMPDEST PUSH0 PUSH2 0x1E68 DUP4 DUP4 PUSH2 0x1E41 JUMP JUMPDEST SWAP2 POP DUP3 PUSH1 0x2 MUL DUP3 OR SWAP1 POP SWAP3 SWAP2 POP POP JUMP JUMPDEST DUP2 DUP2 SUB PUSH2 0x1E86 JUMPI POP POP PUSH2 0x1F5B JUMP JUMPDEST PUSH2 0x1E8F DUP3 PUSH2 0x1CC6 JUMP JUMPDEST PUSH8 0xFFFFFFFFFFFFFFFF DUP2 GT ISZERO PUSH2 0x1EA8 JUMPI PUSH2 0x1EA7 PUSH2 0x15EB JUMP JUMPDEST JUMPDEST PUSH2 0x1EB2 DUP3 SLOAD PUSH2 0x1940 JUMP JUMPDEST PUSH2 0x1EBD DUP3 DUP3 DUP6 PUSH2 0x1DEF JUMP JUMPDEST PUSH0 PUSH1 0x1F DUP4 GT PUSH1 0x1 DUP2 EQ PUSH2 0x1EEA JUMPI PUSH0 DUP5 ISZERO PUSH2 0x1ED8 JUMPI DUP3 DUP8 ADD SLOAD SWAP1 POP JUMPDEST PUSH2 0x1EE2 DUP6 DUP3 PUSH2 0x1E5D JUMP JUMPDEST DUP7 SSTORE POP PUSH2 0x1F54 JUMP JUMPDEST PUSH1 0x1F NOT DUP5 AND PUSH2 0x1EF8 DUP8 PUSH2 0x1CDB JUMP JUMPDEST SWAP7 POP PUSH2 0x1F03 DUP7 PUSH2 0x1CDB JUMP JUMPDEST PUSH0 JUMPDEST DUP3 DUP2 LT ISZERO PUSH2 0x1F2A JUMPI DUP5 DUP10 ADD SLOAD DUP3 SSTORE PUSH1 0x1 DUP3 ADD SWAP2 POP PUSH1 0x1 DUP6 ADD SWAP5 POP PUSH1 0x20 DUP2 ADD SWAP1 POP PUSH2 0x1F05 JUMP JUMPDEST DUP7 DUP4 LT ISZERO PUSH2 0x1F47 JUMPI DUP5 DUP10 ADD SLOAD PUSH2 0x1F43 PUSH1 0x1F DUP10 AND DUP3 PUSH2 0x1E41 JUMP JUMPDEST DUP4 SSTORE POP JUMPDEST PUSH1 0x1 PUSH1 0x2 DUP9 MUL ADD DUP9 SSTORE POP POP POP JUMPDEST POP POP POP POP POP POP JUMPDEST JUMP JUMPDEST PUSH32 0x4E487B7100000000000000000000000000000000000000000000000000000000 PUSH0 MSTORE PUSH1 0x31 PUSH1 0x4 MSTORE PUSH1 0x24 PUSH0 REVERT JUMPDEST PUSH32 0x416D6F756E742073686F756C6420626520686967686572207468616E207A6572 PUSH0 DUP3 ADD MSTORE PUSH32 0x6F00000000000000000000000000000000000000000000000000000000000000 PUSH1 0x20 DUP3 ADD MSTORE POP JUMP JUMPDEST PUSH0 PUSH2 0x1FE4 PUSH1 0x21 DUP4 PUSH2 0x137A JUMP JUMPDEST SWAP2 POP PUSH2 0x1FEF DUP3 PUSH2 0x1F8A JUMP JUMPDEST PUSH1 0x40 DUP3 ADD SWAP1 POP SWAP2 SWAP1 POP JUMP JUMPDEST PUSH0 PUSH1 0x20 DUP3 ADD SWAP1 POP DUP2 DUP2 SUB PUSH0 DUP4 ADD MSTORE PUSH2 0x2011 DUP2 PUSH2 0x1FD8 JUMP JUMPDEST SWAP1 POP SWAP2 SWAP1 POP JUMP JUMPDEST PUSH2 0x2021 DUP3 PUSH2 0x1370 JUMP JUMPDEST PUSH8 0xFFFFFFFFFFFFFFFF DUP2 GT ISZERO PUSH2 0x203A JUMPI PUSH2 0x2039 PUSH2 0x15EB JUMP JUMPDEST JUMPDEST PUSH2 0x2044 DUP3 SLOAD PUSH2 0x1940 JUMP JUMPDEST PUSH2 0x204F DUP3 DUP3 DUP6 PUSH2 0x1DEF JUMP JUMPDEST PUSH0 PUSH1 0x20 SWAP1 POP PUSH1 0x1F DUP4 GT PUSH1 0x1 DUP2 EQ PUSH2 0x2080 JUMPI PUSH0 DUP5 ISZERO PUSH2 0x206E JUMPI DUP3 DUP8 ADD MLOAD SWAP1 POP JUMPDEST PUSH2 0x2078 DUP6 DUP3 PUSH2 0x1E5D JUMP JUMPDEST DUP7 SSTORE POP PUSH2 0x20DF JUMP JUMPDEST PUSH1 0x1F NOT DUP5 AND PUSH2 0x208E DUP7 PUSH2 0x1CDB JUMP JUMPDEST PUSH0 JUMPDEST DUP3 DUP2 LT ISZERO PUSH2 0x20B5 JUMPI DUP5 DUP10 ADD MLOAD DUP3 SSTORE PUSH1 0x1 DUP3 ADD SWAP2 POP PUSH1 0x20 DUP6 ADD SWAP5 POP PUSH1 0x20 DUP2 ADD SWAP1 POP PUSH2 0x2090 JUMP JUMPDEST DUP7 DUP4 LT ISZERO PUSH2 0x20D2 JUMPI DUP5 DUP10 ADD MLOAD PUSH2 0x20CE PUSH1 0x1F DUP10 AND DUP3 PUSH2 0x1E41 JUMP JUMPDEST DUP4 SSTORE POP JUMPDEST PUSH1 0x1 PUSH1 0x2 DUP9 MUL ADD DUP9 SSTORE POP POP POP JUMPDEST POP POP POP POP POP POP JUMP JUMPDEST PUSH32 0x5468652043616D706169676E2069732070617573656421000000000000000000 PUSH0 DUP3 ADD MSTORE POP JUMP JUMPDEST PUSH0 PUSH2 0x211B PUSH1 0x17 DUP4 PUSH2 0x137A JUMP JUMPDEST SWAP2 POP PUSH2 0x2126 DUP3 PUSH2 0x20E7 JUMP JUMPDEST PUSH1 0x20 DUP3 ADD SWAP1 POP SWAP2 SWAP1 POP JUMP JUMPDEST PUSH0 PUSH1 0x20 DUP3 ADD SWAP1 POP DUP2 DUP2 SUB PUSH0 DUP4 ADD MSTORE PUSH2 0x2148 DUP2 PUSH2 0x210F JUMP JUMPDEST SWAP1 POP SWAP2 SWAP1 POP JUMP JUMPDEST PUSH32 0x496E76616C696420746965720000000000000000000000000000000000000000 PUSH0 DUP3 ADD MSTORE POP JUMP JUMPDEST PUSH0 PUSH2 0x2183 PUSH1 0xC DUP4 PUSH2 0x137A JUMP JUMPDEST SWAP2 POP PUSH2 0x218E DUP3 PUSH2 0x214F JUMP JUMPDEST PUSH1 0x20 DUP3 ADD SWAP1 POP SWAP2 SWAP1 POP JUMP JUMPDEST PUSH0 PUSH1 0x20 DUP3 ADD SWAP1 POP DUP2 DUP2 SUB PUSH0 DUP4 ADD MSTORE PUSH2 0x21B0 DUP2 PUSH2 0x2177 JUMP JUMPDEST SWAP1 POP SWAP2 SWAP1 POP JUMP JUMPDEST PUSH32 0x496E636F727265637420416D6F756E7400000000000000000000000000000000 PUSH0 DUP3 ADD MSTORE POP JUMP JUMPDEST PUSH0 PUSH2 0x21EB PUSH1 0x10 DUP4 PUSH2 0x137A JUMP JUMPDEST SWAP2 POP PUSH2 0x21F6 DUP3 PUSH2 0x21B7 JUMP JUMPDEST PUSH1 0x20 DUP3 ADD SWAP1 POP SWAP2 SWAP1 POP JUMP JUMPDEST PUSH0 PUSH1 0x20 DUP3 ADD SWAP1 POP DUP2 DUP2 SUB PUSH0 DUP4 ADD MSTORE PUSH2 0x2218 DUP2 PUSH2 0x21DF JUMP JUMPDEST SWAP1 POP SWAP2 SWAP1 POP JUMP JUMPDEST PUSH0 PUSH2 0x2229 DUP3 PUSH2 0x1312 JUMP JUMPDEST SWAP2 POP PUSH32 0xFFFFFFFFFFFFFFFFFFFFFFFFFFFFFFFFFFFFFFFFFFFFFFFFFFFFFFFFFFFFFFFF DUP3 SUB PUSH2 0x225B JUMPI PUSH2 0x225A PUSH2 0x1A40 JUMP JUMPDEST JUMPDEST PUSH1 0x1 DUP3 ADD SWAP1 POP SWAP2 SWAP1 POP JUMP INVALID LOG2 PUSH5 0x6970667358 0x22 SLT KECCAK256 0xEF MUL 0xC3 0xAD SWAP13 0xC 0xD0 DUP3 DUP16 PUSH21 0x718DE7CB0234EE88661ED29D308A11978365637EA 0x4C PUSH5 0x736F6C6343 STOP ADDMOD BYTE STOP CALLER "
				},
				"gasEstimates": {
					"creation": {
						"codeDepositCost": "1772000",
						"executionCost": "infinite",
						"totalCost": "infinite"
					},
					"external": {
						"addTier(string,uint256)": "infinite",
						"backers(address)": "2837",
						"deadline()": "2537",
						"description()": "infinite",
						"extendDeadline(uint256)": "infinite",
						"fund(uint256)": "infinite",
						"getBalance()": "424",
						"getCampaignStatus()": "7075",
						"getTiers()": "infinite",
						"goal()": "2492",
						"hasFundedTier(address,uint256)": "3190",
						"name()": "infinite",
						"owner()": "2597",
						"paused()": "2628",
						"refund()": "infinite",
						"removeTier(uint256)": "infinite",
						"state()": "2649",
						"tiers(uint256)": "infinite",
						"togglePause()": "28884",
						"withdraw()": "infinite"
					},
					"internal": {
						"checkAndUpdateCampaignState()": "30878"
					}
				},
				"methodIdentifiers": {
					"addTier(string,uint256)": "8ece7b91",
					"backers(address)": "b85dfb80",
					"deadline()": "29dcb0cf",
					"description()": "7284e416",
					"extendDeadline(uint256)": "389b7533",
					"fund(uint256)": "ca1d209d",
					"getBalance()": "12065fe0",
					"getCampaignStatus()": "10550515",
					"getTiers()": "de170570",
					"goal()": "40193883",
					"hasFundedTier(address,uint256)": "7adba527",
					"name()": "06fdde03",
					"owner()": "8da5cb5b",
					"paused()": "5c975abb",
					"refund()": "590e1ae3",
					"removeTier(uint256)": "7497211b",
					"state()": "c19d93fb",
					"tiers(uint256)": "039af9eb",
					"togglePause()": "c4ae3168",
					"withdraw()": "3ccfd60b"
				}
			},
			"storageLayout": {
				"storage": [
					{
						"astId": 3,
						"contract": "Crowdfunding.sol:Crowdfunding",
						"label": "name",
						"offset": 0,
						"slot": "0",
						"type": "t_string_storage"
					},
					{
						"astId": 5,
						"contract": "Crowdfunding.sol:Crowdfunding",
						"label": "description",
						"offset": 0,
						"slot": "1",
						"type": "t_string_storage"
					},
					{
						"astId": 7,
						"contract": "Crowdfunding.sol:Crowdfunding",
						"label": "goal",
						"offset": 0,
						"slot": "2",
						"type": "t_uint256"
					},
					{
						"astId": 9,
						"contract": "Crowdfunding.sol:Crowdfunding",
						"label": "deadline",
						"offset": 0,
						"slot": "3",
						"type": "t_uint256"
					},
					{
						"astId": 11,
						"contract": "Crowdfunding.sol:Crowdfunding",
						"label": "owner",
						"offset": 0,
						"slot": "4",
						"type": "t_address"
					},
					{
						"astId": 13,
						"contract": "Crowdfunding.sol:Crowdfunding",
						"label": "paused",
						"offset": 20,
						"slot": "4",
						"type": "t_bool"
					},
					{
						"astId": 20,
						"contract": "Crowdfunding.sol:Crowdfunding",
						"label": "state",
						"offset": 21,
						"slot": "4",
						"type": "t_enum(CampaignState)17"
					},
					{
						"astId": 38,
						"contract": "Crowdfunding.sol:Crowdfunding",
						"label": "tiers",
						"offset": 0,
						"slot": "5",
						"type": "t_array(t_struct(Tier)27_storage)dyn_storage"
					},
					{
						"astId": 43,
						"contract": "Crowdfunding.sol:Crowdfunding",
						"label": "backers",
						"offset": 0,
						"slot": "6",
						"type": "t_mapping(t_address,t_struct(Backer)34_storage)"
					}
				],
				"types": {
					"t_address": {
						"encoding": "inplace",
						"label": "address",
						"numberOfBytes": "20"
					},
					"t_array(t_struct(Tier)27_storage)dyn_storage": {
						"base": "t_struct(Tier)27_storage",
						"encoding": "dynamic_array",
						"label": "struct Crowdfunding.Tier[]",
						"numberOfBytes": "32"
					},
					"t_bool": {
						"encoding": "inplace",
						"label": "bool",
						"numberOfBytes": "1"
					},
					"t_enum(CampaignState)17": {
						"encoding": "inplace",
						"label": "enum Crowdfunding.CampaignState",
						"numberOfBytes": "1"
					},
					"t_mapping(t_address,t_struct(Backer)34_storage)": {
						"encoding": "mapping",
						"key": "t_address",
						"label": "mapping(address => struct Crowdfunding.Backer)",
						"numberOfBytes": "32",
						"value": "t_struct(Backer)34_storage"
					},
					"t_mapping(t_uint256,t_bool)": {
						"encoding": "mapping",
						"key": "t_uint256",
						"label": "mapping(uint256 => bool)",
						"numberOfBytes": "32",
						"value": "t_bool"
					},
					"t_string_storage": {
						"encoding": "bytes",
						"label": "string",
						"numberOfBytes": "32"
					},
					"t_struct(Backer)34_storage": {
						"encoding": "inplace",
						"label": "struct Crowdfunding.Backer",
						"members": [
							{
								"astId": 29,
								"contract": "Crowdfunding.sol:Crowdfunding",
								"label": "totalContribution",
								"offset": 0,
								"slot": "0",
								"type": "t_uint256"
							},
							{
								"astId": 33,
								"contract": "Crowdfunding.sol:Crowdfunding",
								"label": "fundedTiers",
								"offset": 0,
								"slot": "1",
								"type": "t_mapping(t_uint256,t_bool)"
							}
						],
						"numberOfBytes": "64"
					},
					"t_struct(Tier)27_storage": {
						"encoding": "inplace",
						"label": "struct Crowdfunding.Tier",
						"members": [
							{
								"astId": 22,
								"contract": "Crowdfunding.sol:Crowdfunding",
								"label": "name",
								"offset": 0,
								"slot": "0",
								"type": "t_string_storage"
							},
							{
								"astId": 24,
								"contract": "Crowdfunding.sol:Crowdfunding",
								"label": "amount",
								"offset": 0,
								"slot": "1",
								"type": "t_uint256"
							},
							{
								"astId": 26,
								"contract": "Crowdfunding.sol:Crowdfunding",
								"label": "backers",
								"offset": 0,
								"slot": "2",
								"type": "t_uint256"
							}
						],
						"numberOfBytes": "96"
					},
					"t_uint256": {
						"encoding": "inplace",
						"label": "uint256",
						"numberOfBytes": "32"
					}
				}
			},
			"userdoc": {
				"kind": "user",
				"methods": {},
				"version": 1
			}
		}
	}
}